{
  "_format": "hh-sol-artifact-1",
  "contractName": "MstationSchool",
  "sourceName": "contracts/mstationNFT/MstationSchool.sol",
  "abi": [
    {
      "anonymous": false,
      "inputs": [
        {
          "indexed": true,
          "internalType": "address",
          "name": "previousOwner",
          "type": "address"
        },
        {
          "indexed": true,
          "internalType": "address",
          "name": "newOwner",
          "type": "address"
        }
      ],
      "name": "OwnershipTransferred",
      "type": "event"
    },
    {
      "anonymous": false,
      "inputs": [
        {
          "indexed": false,
          "internalType": "address",
          "name": "_nftAddress",
          "type": "address"
        },
        {
          "indexed": false,
          "internalType": "uint256",
          "name": "_tokenId",
          "type": "uint256"
        },
        {
          "indexed": false,
          "internalType": "bool",
          "name": "result",
          "type": "bool"
        },
        {
          "indexed": false,
          "internalType": "uint16",
          "name": "newLevel",
          "type": "uint16"
        }
      ],
      "name": "UpgradeLevel",
      "type": "event"
    },
    {
      "inputs": [
        {
          "internalType": "address",
          "name": "_nftAddress",
          "type": "address"
        },
        {
          "internalType": "uint256",
          "name": "_tokenId",
          "type": "uint256"
        }
      ],
      "name": "Upgrade",
      "outputs": [],
      "stateMutability": "payable",
      "type": "function"
    },
    {
      "inputs": [],
      "name": "bscdAddress",
      "outputs": [
        {
          "internalType": "contract ERC20Upgradeable",
          "name": "",
          "type": "address"
        }
      ],
      "stateMutability": "view",
      "type": "function"
    },
    {
      "inputs": [],
      "name": "bscsAddress",
      "outputs": [
        {
          "internalType": "contract ERC20Upgradeable",
          "name": "",
          "type": "address"
        }
      ],
      "stateMutability": "view",
      "type": "function"
    },
    {
      "inputs": [],
      "name": "burnNFTWallet",
      "outputs": [
        {
          "internalType": "address",
          "name": "",
          "type": "address"
        }
      ],
      "stateMutability": "view",
      "type": "function"
    },
    {
      "inputs": [],
      "name": "burnWallet",
      "outputs": [
        {
          "internalType": "address",
          "name": "",
          "type": "address"
        }
      ],
      "stateMutability": "view",
      "type": "function"
    },
    {
      "inputs": [
        {
          "internalType": "uint256",
          "name": "_tokenId",
          "type": "uint256"
        }
      ],
      "name": "getLevel",
      "outputs": [
        {
          "internalType": "uint256",
          "name": "",
          "type": "uint256"
        }
      ],
      "stateMutability": "view",
      "type": "function"
    },
    {
      "inputs": [
        {
          "internalType": "address",
          "name": "_treausy",
          "type": "address"
        },
        {
          "internalType": "address",
          "name": "_burnWallet",
          "type": "address"
        },
        {
          "internalType": "address",
          "name": "_BSCSAddress",
          "type": "address"
        },
        {
          "internalType": "address",
          "name": "_BSCDAddress",
          "type": "address"
        },
        {
          "internalType": "uint256[]",
          "name": "amountBSCS",
          "type": "uint256[]"
        },
        {
          "internalType": "uint256[]",
          "name": "amountBSCD",
          "type": "uint256[]"
        },
        {
          "internalType": "uint16[]",
          "name": "rateFailure",
          "type": "uint16[]"
        }
      ],
      "name": "initData",
      "outputs": [],
      "stateMutability": "nonpayable",
      "type": "function"
    },
    {
      "inputs": [],
      "name": "initialize",
      "outputs": [],
      "stateMutability": "nonpayable",
      "type": "function"
    },
    {
      "inputs": [],
      "name": "mstationAddress",
      "outputs": [
        {
          "internalType": "address",
          "name": "",
          "type": "address"
        }
      ],
      "stateMutability": "view",
      "type": "function"
    },
    {
      "inputs": [],
      "name": "owner",
      "outputs": [
        {
          "internalType": "address",
          "name": "",
          "type": "address"
        }
      ],
      "stateMutability": "view",
      "type": "function"
    },
    {
      "inputs": [],
      "name": "renounceOwnership",
      "outputs": [],
      "stateMutability": "nonpayable",
      "type": "function"
    },
    {
      "inputs": [
        {
          "internalType": "address",
          "name": "newOwner",
          "type": "address"
        }
      ],
      "name": "transferOwnership",
      "outputs": [],
      "stateMutability": "nonpayable",
      "type": "function"
    },
    {
      "inputs": [],
      "name": "treasury",
      "outputs": [
        {
          "internalType": "address",
          "name": "",
          "type": "address"
        }
      ],
      "stateMutability": "view",
      "type": "function"
    },
    {
      "inputs": [
        {
          "internalType": "uint256",
          "name": "_burnNumerator",
          "type": "uint256"
        }
      ],
      "name": "updateBurn",
      "outputs": [],
      "stateMutability": "nonpayable",
      "type": "function"
    },
    {
      "inputs": [
        {
          "internalType": "address",
          "name": "_burnNFTWallet",
          "type": "address"
        }
      ],
      "name": "updateBurnWallet",
      "outputs": [],
      "stateMutability": "nonpayable",
      "type": "function"
    },
    {
      "inputs": [
        {
          "internalType": "uint256[]",
          "name": "amountBSCS",
          "type": "uint256[]"
        },
        {
          "internalType": "uint256[]",
          "name": "amountBSCD",
          "type": "uint256[]"
        },
        {
          "internalType": "uint16[]",
          "name": "rateFailure",
          "type": "uint16[]"
        }
      ],
      "name": "updateUpgradeFee",
      "outputs": [],
      "stateMutability": "nonpayable",
      "type": "function"
    }
  ],
  "bytecode": "0x608060405234801561001057600080fd5b50612954806100206000396000f3fe6080604052600436106100f35760003560e01c80638be939da1161008a578063b1acc0c611610059578063b1acc0c6146102ec578063b383938914610319578063f2fde38b14610339578063f87308941461035957600080fd5b80638be939da146102475780638da5cb5b146102745780639d3cb6761461029f578063abe2f3d0146102bf57600080fd5b806361d027b3116100c657806361d027b3146101b1578063715018a6146101de5780638129fc1c146101f357806386481d401461020857600080fd5b806306228749146100f857806306c31f501461014f5780632e9b081914610171578063318d2be91461019e575b600080fd5b34801561010457600080fd5b506099546101259073ffffffffffffffffffffffffffffffffffffffff1681565b60405173ffffffffffffffffffffffffffffffffffffffff90911681526020015b60405180910390f35b34801561015b57600080fd5b5061016f61016a366004612556565b610379565b005b34801561017d57600080fd5b50609d546101259073ffffffffffffffffffffffffffffffffffffffff1681565b61016f6101ac366004612621565b61078a565b3480156101bd57600080fd5b506098546101259073ffffffffffffffffffffffffffffffffffffffff1681565b3480156101ea57600080fd5b5061016f6110f4565b3480156101ff57600080fd5b5061016f611181565b34801561021457600080fd5b506102396102233660046126f0565b6000908152609f602052604090205461ffff1690565b604051908152602001610146565b34801561025357600080fd5b50609b546101259073ffffffffffffffffffffffffffffffffffffffff1681565b34801561028057600080fd5b5060335473ffffffffffffffffffffffffffffffffffffffff16610125565b3480156102ab57600080fd5b5061016f6102ba3660046126f0565b6112b2565b3480156102cb57600080fd5b50609a546101259073ffffffffffffffffffffffffffffffffffffffff1681565b3480156102f857600080fd5b50609c546101259073ffffffffffffffffffffffffffffffffffffffff1681565b34801561032557600080fd5b5061016f61033436600461251e565b611338565b34801561034557600080fd5b5061016f61035436600461251e565b611400565b34801561036557600080fd5b5061016f61037436600461264c565b61152d565b60335473ffffffffffffffffffffffffffffffffffffffff1633146103ff576040517f08c379a000000000000000000000000000000000000000000000000000000000815260206004820181905260248201527f4f776e61626c653a2063616c6c6572206973206e6f7420746865206f776e657260448201526064015b60405180910390fd5b73ffffffffffffffffffffffffffffffffffffffff871661041f57600080fd5b73ffffffffffffffffffffffffffffffffffffffff861661043f57600080fd5b73ffffffffffffffffffffffffffffffffffffffff851661045f57600080fd5b73ffffffffffffffffffffffffffffffffffffffff841661047f57600080fd5b815183511461048d57600080fd5b6098805473ffffffffffffffffffffffffffffffffffffffff808a167fffffffffffffffffffffffff000000000000000000000000000000000000000092831617909255609980548984169083168117909155609c8054898516908416179055609d805493881693831693909317909255609a8054909116909117905560005b83518161ffff16101561078057609e6000610529836001612793565b61ffff16815260208101919091526040908101600090812080547fffffffffffffffffffffffffffffffffffffffffffffffffffffffff00000000168155600180820183905560028201839055600390910180547fffffffffffffffffffffffffffffffffffffffffffffffffffffffffffff0000169055825160a0810190935290919081906105ba908590612793565b61ffff1681526020016105ce846002612793565b61ffff168152602001868461ffff1681518110610614577f4e487b7100000000000000000000000000000000000000000000000000000000600052603260045260246000fd5b60200260200101518152602001858461ffff168151811061065e577f4e487b7100000000000000000000000000000000000000000000000000000000600052603260045260246000fd5b60200260200101518152602001848461ffff16815181106106a8577f4e487b7100000000000000000000000000000000000000000000000000000000600052603260045260246000fd5b602002602001015161ffff16815250905080609e60008460016106cb9190612793565b61ffff908116825260208083019390935260409182016000208451815494860151831662010000027fffffffffffffffffffffffffffffffffffffffffffffffffffffffff00000000909516908316179390931783559083015160018301556060830151600283015560809092015160039091018054919092167fffffffffffffffffffffffffffffffffffffffffffffffffffffffffffff000091909116179055508061077881612839565b91505061050d565b5050505050505050565b600260655414156107f7576040517f08c379a000000000000000000000000000000000000000000000000000000000815260206004820152601f60248201527f5265656e7472616e637947756172643a207265656e7472616e742063616c6c0060448201526064016103f6565b60026065556000818152609f6020526040902054600a61ffff9091161061087a576040517f08c379a000000000000000000000000000000000000000000000000000000000815260206004820152601160248201527f596f7520617265206d6178206c6576656c00000000000000000000000000000060448201526064016103f6565b73ffffffffffffffffffffffffffffffffffffffff82166108f7576040517f08c379a000000000000000000000000000000000000000000000000000000000815260206004820152601060248201527f636f6e747261637420696e76616c69640000000000000000000000000000000060448201526064016103f6565b60008111610961576040517f08c379a000000000000000000000000000000000000000000000000000000000815260206004820152600d60248201527f746f6b656e20696e76616c69640000000000000000000000000000000000000060448201526064016103f6565b336040517f6352211e0000000000000000000000000000000000000000000000000000000081526004810183905273ffffffffffffffffffffffffffffffffffffffff91821691841690636352211e9060240160206040518083038186803b1580156109cc57600080fd5b505afa1580156109e0573d6000803e3d6000fd5b505050506040513d601f19601f82011682018060405250810190610a04919061253a565b73ffffffffffffffffffffffffffffffffffffffff1614610a81576040517f08c379a000000000000000000000000000000000000000000000000000000000815260206004820152600d60248201527f494e56414c49445f4f574e45520000000000000000000000000000000000000060448201526064016103f6565b6000818152609f602052604090205461ffff16610b4557604080516060810182526001808252602080830185815273ffffffffffffffffffffffffffffffffffffffff8781168587019081526000888152609f90945295909220935184547fffffffffffffffffffffffffffffffffffffffffffffffffffffffffffff00001661ffff90911617845551918301919091559151600290910180547fffffffffffffffffffffffff000000000000000000000000000000000000000016919092161790555b6000818152609f602090815260408083205461ffff908116808552609e845293829020825160a08101845281548084168252620100009004831694810194909452600181015492840192909252600282015460608401819052600390920154166080830152609d5473ffffffffffffffffffffffffffffffffffffffff166370a08231336040517fffffffff0000000000000000000000000000000000000000000000000000000060e084901b16815273ffffffffffffffffffffffffffffffffffffffff909116600482015260240160206040518083038186803b158015610c2d57600080fd5b505afa158015610c41573d6000803e3d6000fd5b505050506040513d601f19601f82011682018060405250810190610c659190612708565b1015610ccd576040517f08c379a000000000000000000000000000000000000000000000000000000000815260206004820152601460248201527f42616c616e636520696e73756666696369656e7400000000000000000000000060448201526064016103f6565b6040810151609c5473ffffffffffffffffffffffffffffffffffffffff166370a08231336040517fffffffff0000000000000000000000000000000000000000000000000000000060e084901b16815273ffffffffffffffffffffffffffffffffffffffff909116600482015260240160206040518083038186803b158015610d5557600080fd5b505afa158015610d69573d6000803e3d6000fd5b505050506040513d601f19601f82011682018060405250810190610d8d9190612708565b1015610df5576040517f08c379a000000000000000000000000000000000000000000000000000000000815260206004820152601460248201527f42616c616e636520696e73756666696369656e7400000000000000000000000060448201526064016103f6565b606081015115610ebd57609d54610e5e9073ffffffffffffffffffffffffffffffffffffffff163360995460a054606086015173ffffffffffffffffffffffffffffffffffffffff90921691610e5991620186a091610e5391611838565b9061184b565b611857565b609d54610ebd9073ffffffffffffffffffffffffffffffffffffffff163360985460a05473ffffffffffffffffffffffffffffffffffffffff90911690610e5990620186a090610e5390610eb29083612822565b606089015190611838565b604081015115610f7a57609c54610f1b9073ffffffffffffffffffffffffffffffffffffffff163360995460a054604086015173ffffffffffffffffffffffffffffffffffffffff90921691610e5991620186a091610e5391611838565b609c54610f7a9073ffffffffffffffffffffffffffffffffffffffff163360985460a05473ffffffffffffffffffffffffffffffffffffffff90911690610e5990620186a090610e5390610f6f9083612822565b604089015190611838565b61ffff8083166000908152609e602052604090206003015416156110bd5773ffffffffffffffffffffffffffffffffffffffff841663e985e9c5336040517fffffffff0000000000000000000000000000000000000000000000000000000060e084901b16815273ffffffffffffffffffffffffffffffffffffffff909116600482015230602482015260440160206040518083038186803b15801561101f57600080fd5b505afa158015611033573d6000803e3d6000fd5b505050506040513d601f19601f8201168201806040525081019061105791906126d0565b6110bd576040517f08c379a000000000000000000000000000000000000000000000000000000000815260206004820152601960248201527f524551554952455f415050524f56455f544f4b454e5f4e46540000000000000060448201526064016103f6565b60006110c883611a73565b905080156110de576110d984611abc565b6110e8565b6110e88585611c51565b50506001606555505050565b60335473ffffffffffffffffffffffffffffffffffffffff163314611175576040517f08c379a000000000000000000000000000000000000000000000000000000000815260206004820181905260248201527f4f776e61626c653a2063616c6c6572206973206e6f7420746865206f776e657260448201526064016103f6565b61117f6000611db3565b565b600054610100900460ff168061119a575060005460ff16155b611226576040517f08c379a000000000000000000000000000000000000000000000000000000000815260206004820152602e60248201527f496e697469616c697a61626c653a20636f6e747261637420697320616c72656160448201527f647920696e697469616c697a656400000000000000000000000000000000000060648201526084016103f6565b600054610100900460ff1615801561126557600080547fffffffffffffffffffffffffffffffffffffffffffffffffffffffffffff0000166101011790555b61126d611e2a565b611275611f4f565b600060975561271060a05580156112af57600080547fffffffffffffffffffffffffffffffffffffffffffffffffffffffffffff00ff1690555b50565b60335473ffffffffffffffffffffffffffffffffffffffff163314611333576040517f08c379a000000000000000000000000000000000000000000000000000000000815260206004820181905260248201527f4f776e61626c653a2063616c6c6572206973206e6f7420746865206f776e657260448201526064016103f6565b60a055565b60335473ffffffffffffffffffffffffffffffffffffffff1633146113b9576040517f08c379a000000000000000000000000000000000000000000000000000000000815260206004820181905260248201527f4f776e61626c653a2063616c6c6572206973206e6f7420746865206f776e657260448201526064016103f6565b609a80547fffffffffffffffffffffffff00000000000000000000000000000000000000001673ffffffffffffffffffffffffffffffffffffffff92909216919091179055565b60335473ffffffffffffffffffffffffffffffffffffffff163314611481576040517f08c379a000000000000000000000000000000000000000000000000000000000815260206004820181905260248201527f4f776e61626c653a2063616c6c6572206973206e6f7420746865206f776e657260448201526064016103f6565b73ffffffffffffffffffffffffffffffffffffffff8116611524576040517f08c379a000000000000000000000000000000000000000000000000000000000815260206004820152602660248201527f4f776e61626c653a206e6577206f776e657220697320746865207a65726f206160448201527f646472657373000000000000000000000000000000000000000000000000000060648201526084016103f6565b6112af81611db3565b60335473ffffffffffffffffffffffffffffffffffffffff1633146115ae576040517f08c379a000000000000000000000000000000000000000000000000000000000815260206004820181905260248201527f4f776e61626c653a2063616c6c6572206973206e6f7420746865206f776e657260448201526064016103f6565b81518351146115bc57600080fd5b60005b83518161ffff16101561183257609e60006115db836001612793565b61ffff16815260208101919091526040908101600090812080547fffffffffffffffffffffffffffffffffffffffffffffffffffffffff00000000168155600180820183905560028201839055600390910180547fffffffffffffffffffffffffffffffffffffffffffffffffffffffffffff0000169055825160a08101909352909190819061166c908590612793565b61ffff168152602001611680846002612793565b61ffff168152602001868461ffff16815181106116c6577f4e487b7100000000000000000000000000000000000000000000000000000000600052603260045260246000fd5b60200260200101518152602001858461ffff1681518110611710577f4e487b7100000000000000000000000000000000000000000000000000000000600052603260045260246000fd5b60200260200101518152602001848461ffff168151811061175a577f4e487b7100000000000000000000000000000000000000000000000000000000600052603260045260246000fd5b602002602001015161ffff16815250905080609e600084600161177d9190612793565b61ffff908116825260208083019390935260409182016000208451815494860151831662010000027fffffffffffffffffffffffffffffffffffffffffffffffffffffffff00000000909516908316179390931783559083015160018301556060830151600283015560809092015160039091018054919092167fffffffffffffffffffffffffffffffffffffffffffffffffffffffffffff000091909116179055508061182a81612839565b9150506115bf565b50505050565b600061184482846127e5565b9392505050565b600061184482846127d1565b6040517f70a0823100000000000000000000000000000000000000000000000000000000815273ffffffffffffffffffffffffffffffffffffffff8481166004830152600091908616906370a082319060240160206040518083038186803b1580156118c257600080fd5b505afa1580156118d6573d6000803e3d6000fd5b505050506040513d601f19601f820116820180604052508101906118fa9190612708565b9050808211156119ba576040517f23b872dd00000000000000000000000000000000000000000000000000000000815273ffffffffffffffffffffffffffffffffffffffff85811660048301528481166024830152604482018390528616906323b872dd90606401602060405180830381600087803b15801561197c57600080fd5b505af1158015611990573d6000803e3d6000fd5b505050506040513d601f19601f820116820180604052508101906119b491906126d0565b50611a6c565b6040517f23b872dd00000000000000000000000000000000000000000000000000000000815273ffffffffffffffffffffffffffffffffffffffff85811660048301528481166024830152604482018490528616906323b872dd90606401602060405180830381600087803b158015611a3257600080fd5b505af1158015611a46573d6000803e3d6000fd5b505050506040513d601f19601f82011682018060405250810190611a6a91906126d0565b505b5050505050565b61ffff8082166000908152609e602052604081206003015490911681611a9a81606461203b565b90508161ffff16811015611ab2575060019392505050565b5060009392505050565b6000818152609f602052604090206002015473ffffffffffffffffffffffffffffffffffffffff166342842e0e3360995460405160e084901b7fffffffff0000000000000000000000000000000000000000000000000000000016815273ffffffffffffffffffffffffffffffffffffffff92831660048201529116602482015260448101849052606401600060405180830381600087803b158015611b6157600080fd5b505af1158015611b75573d6000803e3d6000fd5b5050506000828152609f6020908152604080832060020154815173ffffffffffffffffffffffffffffffffffffffff9091168152918201859052810182905260608101919091527f12d3017676fe53f22ca1d28f832b4f698fc63923a79ef7f9376a2edb83cb9b2a915060800160405180910390a16000908152609f6020526040812080547fffffffffffffffffffffffffffffffffffffffffffffffffffffffffffff0000168155600181019190915560020180547fffffffffffffffffffffffff0000000000000000000000000000000000000000169055565b6000818152609f6020526040902054611c6f9061ffff166001612793565b6000828152609f60205260409081902080547fffffffffffffffffffffffffffffffffffffffffffffffffffffffffffff00001661ffff939093169283179055517fc5aa43f100000000000000000000000000000000000000000000000000000000815260048101839052602481019190915273ffffffffffffffffffffffffffffffffffffffff83169063c5aa43f190604401600060405180830381600087803b158015611d1d57600080fd5b505af1158015611d31573d6000803e3d6000fd5b5050506000828152609f602090815260409182902060028101549054835173ffffffffffffffffffffffffffffffffffffffff909216825291810185905260019281019290925261ffff1660608201527f12d3017676fe53f22ca1d28f832b4f698fc63923a79ef7f9376a2edb83cb9b2a915060800160405180910390a15050565b6033805473ffffffffffffffffffffffffffffffffffffffff8381167fffffffffffffffffffffffff0000000000000000000000000000000000000000831681179093556040519116919082907f8be0079c531659141344cd1fd0a4f28419497f9722a3daafe3b4186f6b6457e090600090a35050565b600054610100900460ff1680611e43575060005460ff16155b611ecf576040517f08c379a000000000000000000000000000000000000000000000000000000000815260206004820152602e60248201527f496e697469616c697a61626c653a20636f6e747261637420697320616c72656160448201527f647920696e697469616c697a656400000000000000000000000000000000000060648201526084016103f6565b600054610100900460ff16158015611f0e57600080547fffffffffffffffffffffffffffffffffffffffffffffffffffffffffffff0000166101011790555b611f16612100565b611f1e612214565b80156112af57600080547fffffffffffffffffffffffffffffffffffffffffffffffffffffffffffff00ff16905550565b600054610100900460ff1680611f68575060005460ff16155b611ff4576040517f08c379a000000000000000000000000000000000000000000000000000000000815260206004820152602e60248201527f496e697469616c697a61626c653a20636f6e747261637420697320616c72656160448201527f647920696e697469616c697a656400000000000000000000000000000000000060648201526084016103f6565b600054610100900460ff1615801561203357600080547fffffffffffffffffffffffffffffffffffffffffffffffffffffffffffff0000166101011790555b611f1e612301565b60006120cb61204a8484612822565b609754604080514260208201527fffffffffffffffffffffffffffffffffffffffff0000000000000000000000003360601b16918101919091526054810191909152607401604080517fffffffffffffffffffffffffffffffffffffffffffffffffffffffffffffffe081840301815291905280516020909101209061241b565b90506120d783826127b9565b6097549091506120e8906001612427565b60978190556120f79082612427565b60975592915050565b600054610100900460ff1680612119575060005460ff16155b6121a5576040517f08c379a000000000000000000000000000000000000000000000000000000000815260206004820152602e60248201527f496e697469616c697a61626c653a20636f6e747261637420697320616c72656160448201527f647920696e697469616c697a656400000000000000000000000000000000000060648201526084016103f6565b600054610100900460ff16158015611f1e57600080547fffffffffffffffffffffffffffffffffffffffffffffffffffffffffffff00001661010117905580156112af57600080547fffffffffffffffffffffffffffffffffffffffffffffffffffffffffffff00ff16905550565b600054610100900460ff168061222d575060005460ff16155b6122b9576040517f08c379a000000000000000000000000000000000000000000000000000000000815260206004820152602e60248201527f496e697469616c697a61626c653a20636f6e747261637420697320616c72656160448201527f647920696e697469616c697a656400000000000000000000000000000000000060648201526084016103f6565b600054610100900460ff161580156122f857600080547fffffffffffffffffffffffffffffffffffffffffffffffffffffffffffff0000166101011790555b611f1e33611db3565b600054610100900460ff168061231a575060005460ff16155b6123a6576040517f08c379a000000000000000000000000000000000000000000000000000000000815260206004820152602e60248201527f496e697469616c697a61626c653a20636f6e747261637420697320616c72656160448201527f647920696e697469616c697a656400000000000000000000000000000000000060648201526084016103f6565b600054610100900460ff161580156123e557600080547fffffffffffffffffffffffffffffffffffffffffffffffffffffffffffff0000166101011790555b600160655580156112af57600080547fffffffffffffffffffffffffffffffffffffffffffffffffffffffffffff00ff16905550565b6000611844828461285b565b600061184482846127b9565b803561243e816128fc565b919050565b600082601f830112612453578081fd5b813560206124686124638361276f565b612720565b80838252828201915082860187848660051b8901011115612487578586fd5b855b858110156124b457813561ffff811681146124a2578788fd5b84529284019290840190600101612489565b5090979650505050505050565b600082601f8301126124d1578081fd5b813560206124e16124638361276f565b80838252828201915082860187848660051b8901011115612500578586fd5b855b858110156124b457813584529284019290840190600101612502565b60006020828403121561252f578081fd5b8135611844816128fc565b60006020828403121561254b578081fd5b8151611844816128fc565b600080600080600080600060e0888a031215612570578283fd5b873561257b816128fc565b9650602088013561258b816128fc565b955061259960408901612433565b94506125a760608901612433565b9350608088013567ffffffffffffffff808211156125c3578485fd5b6125cf8b838c016124c1565b945060a08a01359150808211156125e4578384fd5b6125f08b838c016124c1565b935060c08a0135915080821115612605578283fd5b506126128a828b01612443565b91505092959891949750929550565b60008060408385031215612633578182fd5b823561263e816128fc565b946020939093013593505050565b600080600060608486031215612660578283fd5b833567ffffffffffffffff80821115612677578485fd5b612683878388016124c1565b94506020860135915080821115612698578384fd5b6126a4878388016124c1565b935060408601359150808211156126b9578283fd5b506126c686828701612443565b9150509250925092565b6000602082840312156126e1578081fd5b81518015158114611844578182fd5b600060208284031215612701578081fd5b5035919050565b600060208284031215612719578081fd5b5051919050565b604051601f82017fffffffffffffffffffffffffffffffffffffffffffffffffffffffffffffffe016810167ffffffffffffffff81118282101715612767576127676128cd565b604052919050565b600067ffffffffffffffff821115612789576127896128cd565b5060051b60200190565b600061ffff8083168185168083038211156127b0576127b061286f565b01949350505050565b600082198211156127cc576127cc61286f565b500190565b6000826127e0576127e061289e565b500490565b6000817fffffffffffffffffffffffffffffffffffffffffffffffffffffffffffffffff048311821515161561281d5761281d61286f565b500290565b6000828210156128345761283461286f565b500390565b600061ffff808316818114156128515761285161286f565b6001019392505050565b60008261286a5761286a61289e565b500690565b7f4e487b7100000000000000000000000000000000000000000000000000000000600052601160045260246000fd5b7f4e487b7100000000000000000000000000000000000000000000000000000000600052601260045260246000fd5b7f4e487b7100000000000000000000000000000000000000000000000000000000600052604160045260246000fd5b73ffffffffffffffffffffffffffffffffffffffff811681146112af57600080fdfea2646970667358221220eee9a601bcd269570f5be8208676000027309eeeb025d6bf2a4dc694de08351964736f6c63430008040033",
  "linkReferences": {},
  "deployedLinkReferences": {}
}