{
  "_format": "hh-sol-artifact-1",
  "contractName": "MstationPvEUtils",
  "sourceName": "contracts/pve/MstationPveUtils.sol",
  "abi": [
    {
      "anonymous": false,
      "inputs": [
        {
          "indexed": true,
          "internalType": "address",
          "name": "previousOwner",
          "type": "address"
        },
        {
          "indexed": true,
          "internalType": "address",
          "name": "newOwner",
          "type": "address"
        }
      ],
      "name": "OwnershipTransferred",
      "type": "event"
    },
    {
      "anonymous": false,
      "inputs": [
        {
          "indexed": false,
          "internalType": "uint256[]",
          "name": "rewardMST",
          "type": "uint256[]"
        }
      ],
      "name": "PoolRewardMST",
      "type": "event"
    },
    {
      "anonymous": false,
      "inputs": [
        {
          "indexed": false,
          "internalType": "uint16[]",
          "name": "level",
          "type": "uint16[]"
        },
        {
          "indexed": false,
          "internalType": "uint16[]",
          "name": "_dungeonlevel",
          "type": "uint16[]"
        },
        {
          "indexed": false,
          "internalType": "uint256[]",
          "name": "rewardMST",
          "type": "uint256[]"
        }
      ],
      "name": "UpdatePoolRewardConfig",
      "type": "event"
    },
    {
      "inputs": [
        {
          "internalType": "uint256",
          "name": "",
          "type": "uint256"
        },
        {
          "internalType": "uint256",
          "name": "",
          "type": "uint256"
        }
      ],
      "name": "_rewardPoolMST",
      "outputs": [
        {
          "internalType": "uint256",
          "name": "",
          "type": "uint256"
        }
      ],
      "stateMutability": "view",
      "type": "function"
    },
    {
      "inputs": [
        {
          "internalType": "address",
          "name": "_contract",
          "type": "address"
        },
        {
          "internalType": "uint256",
          "name": "_tokenId",
          "type": "uint256"
        },
        {
          "internalType": "uint256[]",
          "name": "_battleInfo",
          "type": "uint256[]"
        },
        {
          "internalType": "uint256[]",
          "name": "_monsterId",
          "type": "uint256[]"
        },
        {
          "internalType": "uint256[]",
          "name": "_result",
          "type": "uint256[]"
        },
        {
          "components": [
            {
              "internalType": "uint256",
              "name": "totalRewardMST",
              "type": "uint256"
            },
            {
              "internalType": "uint256",
              "name": "spentRewardMST",
              "type": "uint256"
            }
          ],
          "internalType": "struct MstationPvEUtils.PoolReward",
          "name": "poolReward",
          "type": "tuple"
        },
        {
          "components": [
            {
              "internalType": "uint16",
              "name": "numBattle",
              "type": "uint16"
            },
            {
              "internalType": "uint256",
              "name": "rewardedMST",
              "type": "uint256"
            },
            {
              "internalType": "uint256",
              "name": "rewardedBSCD",
              "type": "uint256"
            },
            {
              "internalType": "uint16",
              "name": "heroHealth",
              "type": "uint16"
            },
            {
              "internalType": "uint16",
              "name": "heroLevel",
              "type": "uint16"
            }
          ],
          "internalType": "struct MstationPvEUtils.HeroReward",
          "name": "rewardLog",
          "type": "tuple"
        }
      ],
      "name": "battleReward",
      "outputs": [
        {
          "internalType": "uint256[]",
          "name": "amountMST",
          "type": "uint256[]"
        },
        {
          "internalType": "uint256[]",
          "name": "amountBSCD",
          "type": "uint256[]"
        },
        {
          "internalType": "uint256[]",
          "name": "rewardPerBattle",
          "type": "uint256[]"
        }
      ],
      "stateMutability": "nonpayable",
      "type": "function"
    },
    {
      "inputs": [
        {
          "internalType": "uint256[]",
          "name": "_feeBSCD",
          "type": "uint256[]"
        }
      ],
      "name": "calculatePoolReward",
      "outputs": [],
      "stateMutability": "nonpayable",
      "type": "function"
    },
    {
      "inputs": [
        {
          "internalType": "uint256",
          "name": "_tokenId",
          "type": "uint256"
        },
        {
          "internalType": "uint256",
          "name": "_heroLevel",
          "type": "uint256"
        },
        {
          "internalType": "address",
          "name": "_nftAddress",
          "type": "address"
        }
      ],
      "name": "getPillFee",
      "outputs": [
        {
          "components": [
            {
              "internalType": "uint256",
              "name": "amountMST",
              "type": "uint256"
            },
            {
              "internalType": "uint256",
              "name": "amountBSCD",
              "type": "uint256"
            }
          ],
          "internalType": "struct MstationPvEUtils.PillFee",
          "name": "_amount",
          "type": "tuple"
        }
      ],
      "stateMutability": "view",
      "type": "function"
    },
    {
      "inputs": [
        {
          "internalType": "uint256",
          "name": "heroLevel",
          "type": "uint256"
        },
        {
          "internalType": "uint256",
          "name": "dungeonLevel",
          "type": "uint256"
        }
      ],
      "name": "getPoolReward",
      "outputs": [
        {
          "internalType": "uint256",
          "name": "_amount",
          "type": "uint256"
        }
      ],
      "stateMutability": "view",
      "type": "function"
    },
    {
      "inputs": [
        {
          "internalType": "address[]",
          "name": "path",
          "type": "address[]"
        }
      ],
      "name": "getTokenPrice",
      "outputs": [
        {
          "internalType": "uint256",
          "name": "_price",
          "type": "uint256"
        }
      ],
      "stateMutability": "view",
      "type": "function"
    },
    {
      "inputs": [],
      "name": "initialize",
      "outputs": [],
      "stateMutability": "nonpayable",
      "type": "function"
    },
    {
      "inputs": [
        {
          "internalType": "uint64",
          "name": "",
          "type": "uint64"
        }
      ],
      "name": "listMonster",
      "outputs": [
        {
          "internalType": "uint256",
          "name": "rewardMST",
          "type": "uint256"
        },
        {
          "internalType": "uint256",
          "name": "rewardBSCD",
          "type": "uint256"
        }
      ],
      "stateMutability": "view",
      "type": "function"
    },
    {
      "inputs": [],
      "name": "owner",
      "outputs": [
        {
          "internalType": "address",
          "name": "",
          "type": "address"
        }
      ],
      "stateMutability": "view",
      "type": "function"
    },
    {
      "inputs": [
        {
          "internalType": "uint256",
          "name": "",
          "type": "uint256"
        }
      ],
      "name": "pathBSCD",
      "outputs": [
        {
          "internalType": "address",
          "name": "",
          "type": "address"
        }
      ],
      "stateMutability": "view",
      "type": "function"
    },
    {
      "inputs": [
        {
          "internalType": "uint256",
          "name": "",
          "type": "uint256"
        }
      ],
      "name": "pathMST",
      "outputs": [
        {
          "internalType": "address",
          "name": "",
          "type": "address"
        }
      ],
      "stateMutability": "view",
      "type": "function"
    },
    {
      "inputs": [
        {
          "internalType": "uint256",
          "name": "",
          "type": "uint256"
        },
        {
          "internalType": "uint256",
          "name": "",
          "type": "uint256"
        }
      ],
      "name": "pillFee",
      "outputs": [
        {
          "internalType": "uint256",
          "name": "",
          "type": "uint256"
        }
      ],
      "stateMutability": "view",
      "type": "function"
    },
    {
      "inputs": [
        {
          "internalType": "uint256",
          "name": "",
          "type": "uint256"
        },
        {
          "internalType": "uint256",
          "name": "",
          "type": "uint256"
        }
      ],
      "name": "pillFee2",
      "outputs": [
        {
          "internalType": "uint256",
          "name": "amountMST",
          "type": "uint256"
        },
        {
          "internalType": "uint256",
          "name": "amountBSCD",
          "type": "uint256"
        }
      ],
      "stateMutability": "view",
      "type": "function"
    },
    {
      "inputs": [],
      "name": "renounceOwnership",
      "outputs": [],
      "stateMutability": "nonpayable",
      "type": "function"
    },
    {
      "inputs": [
        {
          "internalType": "uint256",
          "name": "",
          "type": "uint256"
        }
      ],
      "name": "rewardConfigs",
      "outputs": [
        {
          "internalType": "uint16",
          "name": "numBattle",
          "type": "uint16"
        },
        {
          "internalType": "uint256",
          "name": "rewardMST",
          "type": "uint256"
        },
        {
          "internalType": "uint256",
          "name": "rewardBSCD",
          "type": "uint256"
        }
      ],
      "stateMutability": "view",
      "type": "function"
    },
    {
      "inputs": [
        {
          "internalType": "address",
          "name": "_pveAddress",
          "type": "address"
        },
        {
          "internalType": "bool",
          "name": "_whitelist",
          "type": "bool"
        }
      ],
      "name": "setPvEAddress",
      "outputs": [],
      "stateMutability": "nonpayable",
      "type": "function"
    },
    {
      "inputs": [
        {
          "internalType": "address[]",
          "name": "_pathMST",
          "type": "address[]"
        },
        {
          "internalType": "address[]",
          "name": "_pathBSCD",
          "type": "address[]"
        }
      ],
      "name": "setTokenPath",
      "outputs": [],
      "stateMutability": "nonpayable",
      "type": "function"
    },
    {
      "inputs": [
        {
          "internalType": "address",
          "name": "newOwner",
          "type": "address"
        }
      ],
      "name": "transferOwnership",
      "outputs": [],
      "stateMutability": "nonpayable",
      "type": "function"
    },
    {
      "inputs": [
        {
          "components": [
            {
              "internalType": "uint256",
              "name": "amountMST",
              "type": "uint256"
            },
            {
              "internalType": "uint256",
              "name": "amountBSCD",
              "type": "uint256"
            }
          ],
          "internalType": "struct MstationPvEUtils.PillFee[]",
          "name": "levelLengendary",
          "type": "tuple[]"
        },
        {
          "components": [
            {
              "internalType": "uint256",
              "name": "amountMST",
              "type": "uint256"
            },
            {
              "internalType": "uint256",
              "name": "amountBSCD",
              "type": "uint256"
            }
          ],
          "internalType": "struct MstationPvEUtils.PillFee[]",
          "name": "levelEpic",
          "type": "tuple[]"
        },
        {
          "components": [
            {
              "internalType": "uint256",
              "name": "amountMST",
              "type": "uint256"
            },
            {
              "internalType": "uint256",
              "name": "amountBSCD",
              "type": "uint256"
            }
          ],
          "internalType": "struct MstationPvEUtils.PillFee[]",
          "name": "levelElite",
          "type": "tuple[]"
        },
        {
          "components": [
            {
              "internalType": "uint256",
              "name": "amountMST",
              "type": "uint256"
            },
            {
              "internalType": "uint256",
              "name": "amountBSCD",
              "type": "uint256"
            }
          ],
          "internalType": "struct MstationPvEUtils.PillFee[]",
          "name": "levelRare",
          "type": "tuple[]"
        },
        {
          "components": [
            {
              "internalType": "uint256",
              "name": "amountMST",
              "type": "uint256"
            },
            {
              "internalType": "uint256",
              "name": "amountBSCD",
              "type": "uint256"
            }
          ],
          "internalType": "struct MstationPvEUtils.PillFee[]",
          "name": "levelCommon",
          "type": "tuple[]"
        }
      ],
      "name": "updatePillFee",
      "outputs": [],
      "stateMutability": "nonpayable",
      "type": "function"
    },
    {
      "inputs": [
        {
          "internalType": "uint16[]",
          "name": "level",
          "type": "uint16[]"
        },
        {
          "internalType": "uint16[]",
          "name": "numBattle",
          "type": "uint16[]"
        },
        {
          "internalType": "uint256[]",
          "name": "rewardMST",
          "type": "uint256[]"
        },
        {
          "internalType": "uint256[]",
          "name": "rewardBSCD",
          "type": "uint256[]"
        }
      ],
      "name": "updateRewardConfig",
      "outputs": [],
      "stateMutability": "nonpayable",
      "type": "function"
    }
  ],
  "bytecode": "0x608060405234801561001057600080fd5b5061368d806100206000396000f3fe608060405234801561001057600080fd5b506004361061016c5760003560e01c806382308f1d116100cd578063a8bd33ae11610081578063da29b26511610066578063da29b26514610355578063ea69557c146103a9578063f2fde38b146103bc57600080fd5b8063a8bd33ae1461032f578063c43f4e041461034257600080fd5b80638da5cb5b116100b25780638da5cb5b146102eb578063935ae98c1461030957806396cd77ec1461031c57600080fd5b806382308f1d146102a35780638a313e4e146102c457600080fd5b806352a3107b116101245780635b3db3f3116101095780635b3db3f314610280578063715018a6146102935780638129fc1c1461029b57600080fd5b806352a3107b146102355780635955d8461461024857600080fd5b8063183614e711610155578063183614e7146101b95780632f0ff472146101cc57806351754ba51461021357600080fd5b806305f58497146101715780631595421f146101a4575b600080fd5b61018461017f36600461327a565b6103cf565b604080518251815260209283015192810192909252015b60405180910390f35b6101b76101b2366004612f7f565b61068a565b005b6101b76101c7366004612e4a565b6108e4565b6101fe6101da366004613259565b606b6020908152600092835260408084209091529082529020805460019091015482565b6040805192835260208301919091520161019b565b610226610221366004612cb1565b6109ec565b60405161019b93929190613310565b6101b761024336600461303e565b61133b565b61025b610256366004613241565b611690565b60405173ffffffffffffffffffffffffffffffffffffffff909116815260200161019b565b61025b61028e366004613241565b6116c7565b6101b76116d7565b6101b7611764565b6102b66102b1366004613259565b611a17565b60405190815260200161019b565b6101fe6102d23660046132ae565b606c602052600090815260409020805460019091015482565b60335473ffffffffffffffffffffffffffffffffffffffff1661025b565b6102b6610317366004613259565b611a48565b6101b761032a366004612eb3565b611a64565b6102b661033d366004612e0a565b611da0565b6101b7610350366004612c77565b611ecc565b610389610363366004613241565b60656020526000908152604090208054600182015460029092015461ffff909116919083565b6040805161ffff909416845260208401929092529082015260600161019b565b6102b66103b7366004613259565b612020565b6101b76103ca366004612c5d565b6120d8565b60408051808201909152600080825260208201526040517fd70e208d0000000000000000000000000000000000000000000000000000000081526004810185905260009073ffffffffffffffffffffffffffffffffffffffff84169063d70e208d906024016101a06040518083038186803b15801561044d57600080fd5b505afa158015610461573d6000803e3d6000fd5b505050506040513d601f19601f82011682018060405250810190610485919061310c565b905060008160a00151826080015183606001518460400151856020015186600001516104b191906134a0565b6104bb91906134a0565b6104c591906134a0565b6104cf91906134a0565b6104d991906134a0565b61ffff169050610190811115610554576000808052606b6020527fc8cc8bda7ad4886bea3ebbdafa02e79d37c39bf4011696b26a31a0802fd9458b90610520600188613577565b8152602001908152602001600020604051806040016040529081600082015481526020016001820154815250509250610681565b61017281106105955760016000818152606b6020527fa775687211c2b3346a0f5a2a0e7590e6c1838453e3785e6dd2a8efd6265ddf15916105209088613577565b61014081106105d75760026000908152606b6020527fb507b92927105c30ff6e8afc661972d5ba73e86e28bafa70cb531ddda52bdf0490610520600188613577565b60fa81106106185760036000908152606b6020527f4e5c7e8f4b1f6c9808b80aae6c41bbd046930d99f67f4e24136b55524acbcb0e90610520600188613577565b60046000908152606b6020527ff0ae10cbc4b7e5d41a3a6c7f530e4919b2e487e56976cad1b0bf6c5c77e6791590610651600188613577565b81526020019081526020016000206040518060400160405290816000820154815260200160018201548152505092505b50509392505050565b3360009081526069602052604090205460ff1661070e576040517f08c379a00000000000000000000000000000000000000000000000000000000081526004016107059060208082526004908201527f464f524200000000000000000000000000000000000000000000000000000000604082015260600190565b60405180910390fd5b60005b61ffff81168811156108d957600089898361ffff1681811061075c577f4e487b7100000000000000000000000000000000000000000000000000000000600052603260045260246000fd5b90506020020160208101906107719190613209565b9050604051806060016040528089898561ffff168181106107bb577f4e487b7100000000000000000000000000000000000000000000000000000000600052603260045260246000fd5b90506020020160208101906107d09190613209565b61ffff16815260200187878561ffff16818110610816577f4e487b7100000000000000000000000000000000000000000000000000000000600052603260045260246000fd5b90506020020135815260200185858561ffff1681811061085f577f4e487b7100000000000000000000000000000000000000000000000000000000600052603260045260246000fd5b6020908102929092013590925261ffff938416600090815260658252604090819020845181547fffffffffffffffffffffffffffffffffffffffffffffffffffffffffffff0000169616959095178555908301516001850155919091015160029092019190915550806108d18161358e565b915050610711565b505050505050505050565b60335473ffffffffffffffffffffffffffffffffffffffff163314610965576040517f08c379a000000000000000000000000000000000000000000000000000000000815260206004820181905260248201527f4f776e61626c653a2063616c6c6572206973206e6f7420746865206f776e65726044820152606401610705565b826109cc576040517f08c379a000000000000000000000000000000000000000000000000000000000815260206004820152600d60248201527f494e56414c49445f494e505554000000000000000000000000000000000000006044820152606401610705565b6109d860668585612968565b506109e560678383612968565b5050505050565b6060806060855167ffffffffffffffff811115610a32577f4e487b7100000000000000000000000000000000000000000000000000000000600052604160045260246000fd5b604051908082528060200260200182016040528015610a5b578160200160208202803683370190505b509250855167ffffffffffffffff811115610a9f577f4e487b7100000000000000000000000000000000000000000000000000000000600052604160045260246000fd5b604051908082528060200260200182016040528015610ac8578160200160208202803683370190505b5060408051600580825260c082019092529193506020820160a080368337019050506040517f86481d40000000000000000000000000000000000000000000000000000000008152600481018b905290915060009073ffffffffffffffffffffffffffffffffffffffff8c16906386481d409060240160206040518083038186803b158015610b5657600080fd5b505afa158015610b6a573d6000803e3d6000fd5b505050506040513d601f19601f82011682018060405250810190610b8e9190613225565b61ffff808216600081815260656020908152604091829020825160608101845281548616815260018201549281019290925260020154918101919091526080890151939450929091161015610c0e576040805160a081018252600080825260208201819052918101919091526064606082015261ffff8316608082015295505b856020015181602001511115610cb5578551815160019161ffff90811691161115610c485786518251610c419190613554565b61ffff1690505b610c6d81610c678960200151856020015161220590919063ffffffff16565b90612211565b84600081518110610ca7577f4e487b7100000000000000000000000000000000000000000000000000000000600052603260045260246000fd5b602002602001018181525050505b87518a5160019182918291906000908f906002908110610cfe577f4e487b7100000000000000000000000000000000000000000000000000000000600052603260045260246000fd5b6020026020010151905060005b828161ffff161015610dd65760008f8261ffff1681518110610d56577f4e487b7100000000000000000000000000000000000000000000000000000000600052603260045260246000fd5b60200260200101519050606c60008267ffffffffffffffff1667ffffffffffffffff1681526020019081526020016000206000015486610d9691906134c6565b67ffffffffffffffff82166000908152606c6020526040902060010154909650610dc090866134c6565b9450508080610dce9061358e565b915050610d0b565b5060018411610e41576040517f08c379a000000000000000000000000000000000000000000000000000000000815260206004820152600b60248201527f494e56414c49445f4d53540000000000000000000000000000000000000000006044820152606401610705565b60018311610eab576040517f08c379a000000000000000000000000000000000000000000000000000000000815260206004820152600c60248201527f494e56414c49445f4253434400000000000000000000000000000000000000006044820152606401610705565b60005b828161ffff1610156113265760008f8261ffff1681518110610ef9577f4e487b7100000000000000000000000000000000000000000000000000000000600052603260045260246000fd5b602002602001015190508e8261ffff1681518110610f40577f4e487b7100000000000000000000000000000000000000000000000000000000600052603260045260246000fd5b60200260200101516001141561130e5767ffffffffffffffff81166000908152606c60205260408120548b51610fc3928992610c679290918f91610fad577f4e487b7100000000000000000000000000000000000000000000000000000000600052603260045260246000fd5b602002602001015161221d90919063ffffffff16565b8c8361ffff1681518110611000577f4e487b7100000000000000000000000000000000000000000000000000000000600052603260045260246000fd5b60200260200101818152505061107885610c67606c60008567ffffffffffffffff1667ffffffffffffffff168152602001908152602001600020600101548d600181518110610fad577f4e487b7100000000000000000000000000000000000000000000000000000000600052603260045260246000fd5b8b8361ffff16815181106110b5577f4e487b7100000000000000000000000000000000000000000000000000000000600052603260045260246000fd5b60200260200101818152505060006110d18a61ffff1685612020565b90506000811180156110f25750808f602001516110ee91906134c6565b8f51115b156111d95767ffffffffffffffff82166000908152606c602052604081205461112b908990610c6790611125868b61221d565b9061221d565b9050808e8561ffff168151811061116b577f4e487b7100000000000000000000000000000000000000000000000000000000600052603260045260246000fd5b6020026020010181815161117f91906134c6565b9052508b5181908d9060049081106111c0577f4e487b7100000000000000000000000000000000000000000000000000000000600052603260045260246000fd5b602002602001018181516111d491906134c6565b905250505b8c8361ffff1681518110611216577f4e487b7100000000000000000000000000000000000000000000000000000000600052603260045260246000fd5b60200260200101518b600281518110611258577f4e487b7100000000000000000000000000000000000000000000000000000000600052603260045260246000fd5b6020026020010181815161126c91906134c6565b9052508b518c9061ffff85169081106112ae577f4e487b7100000000000000000000000000000000000000000000000000000000600052603260045260246000fd5b60200260200101518b6003815181106112f0577f4e487b7100000000000000000000000000000000000000000000000000000000600052603260045260246000fd5b6020026020010181815161130491906134c6565b9052506113139050565b600096505b508061131e8161358e565b915050610eae565b50505050505050509750975097945050505050565b3360009081526069602052604090205460ff166113b6576040517f08c379a00000000000000000000000000000000000000000000000000000000081526004016107059060208082526004908201527f464f524200000000000000000000000000000000000000000000000000000000604082015260600190565b6040517fd06ca61f0000000000000000000000000000000000000000000000000000000081526000907310ed43c718714eb63d5aa57b78b54704e256024e9063d06ca61f9061141490670de0b6b3a7640000906066906004016133aa565b60006040518083038186803b15801561142c57600080fd5b505afa158015611440573d6000803e3d6000fd5b505050506040513d6000823e601f3d9081017fffffffffffffffffffffffffffffffffffffffffffffffffffffffffffffffe01682016040526114869190810190613079565b9050600081600183516114999190613577565b815181106114d0577f4e487b7100000000000000000000000000000000000000000000000000000000600052603260045260246000fd5b6020026020010151905060007310ed43c718714eb63d5aa57b78b54704e256024e73ffffffffffffffffffffffffffffffffffffffff1663d06ca61f670de0b6b3a764000060676040518363ffffffff1660e01b81526004016115349291906133aa565b60006040518083038186803b15801561154c57600080fd5b505afa158015611560573d6000803e3d6000fd5b505050506040513d6000823e601f3d9081017fffffffffffffffffffffffffffffffffffffffffffffffffffffffffffffffe01682016040526115a69190810190613079565b9050600081600183516115b99190613577565b815181106115f0577f4e487b7100000000000000000000000000000000000000000000000000000000600052603260045260246000fd5b602002602001015190506000600190505b600a811161168857604080516003808252608082019092526000916020820160608036833701905050905061164f8284878a6065600088815260200190815260200160002060010154612229565b600083815260686020908152604090912082519293506116739290918401906129f0565b50508080611680906135b0565b915050611601565b505050505050565b606681815481106116a057600080fd5b60009182526020909120015473ffffffffffffffffffffffffffffffffffffffff16905081565b606781815481106116a057600080fd5b60335473ffffffffffffffffffffffffffffffffffffffff163314611758576040517f08c379a000000000000000000000000000000000000000000000000000000000815260206004820181905260248201527f4f776e61626c653a2063616c6c6572206973206e6f7420746865206f776e65726044820152606401610705565b61176260006123a5565b565b600054610100900460ff168061177d575060005460ff16155b611809576040517f08c379a000000000000000000000000000000000000000000000000000000000815260206004820152602e60248201527f496e697469616c697a61626c653a20636f6e747261637420697320616c72656160448201527f647920696e697469616c697a65640000000000000000000000000000000000006064820152608401610705565b600054610100900460ff1615801561184857600080547fffffffffffffffffffffffffffffffffffffffffffffffffffffffffffff0000166101011790555b61185061241c565b6040805160608101825273e7af3fcc9cb79243f76947402117d98918bd88ea815273bb4cdb9cbd36b01bd1cbaebf2de08d9173bc095c602082015273e9e7cea3dedca5984780bafc599bd69add087d56918101919091526118b5906066906003612a2b565b506040805160608101825273e0387845f8289fd5875e7193064392e061f46e58815273bb4cdb9cbd36b01bd1cbaebf2de08d9173bc095c602082015273e9e7cea3dedca5984780bafc599bd69add087d569181019190915261191b906067906003612a2b565b50734bfbe60cd5b7d6a73f12dba42014cb744b0c5d4a6000908152606960208190527fc09a9bbebe899fe94ce6ff1581f0d7ceccf7ca2c11f2ffe7ec577d9635d8ace780547fffffffffffffffffffffffffffffffffffffffffffffffffffffffffffffff00166001908117909155916119923390565b73ffffffffffffffffffffffffffffffffffffffff168152602081019190915260400160002080547fffffffffffffffffffffffffffffffffffffffffffffffffffffffffffffff00169115159190911790558015611a1457600080547fffffffffffffffffffffffffffffffffffffffffffffffffffffffffffff00ff1690555b50565b60686020528160005260406000208181548110611a3357600080fd5b90600052602060002001600091509150505481565b606a6020528160005260406000208181548110611a3357600080fd5b3360009081526069602052604090205460ff16611adf576040517f08c379a00000000000000000000000000000000000000000000000000000000081526004016107059060208082526004908201527f464f524200000000000000000000000000000000000000000000000000000000604082015260600190565b60005b85518161ffff16101561168857858161ffff1681518110611b2c577f4e487b7100000000000000000000000000000000000000000000000000000000600052603260045260246000fd5b60209081029190910181015161ffff831660008181527fc8cc8bda7ad4886bea3ebbdafa02e79d37c39bf4011696b26a31a0802fd9458b84526040902082518155919092015160019091015585518691908110611bb2577f4e487b7100000000000000000000000000000000000000000000000000000000600052603260045260246000fd5b60209081029190910181015161ffff831660008181527fa775687211c2b3346a0f5a2a0e7590e6c1838453e3785e6dd2a8efd6265ddf1584526040902082518155919092015160019091015584518591908110611c38577f4e487b7100000000000000000000000000000000000000000000000000000000600052603260045260246000fd5b60209081029190910181015161ffff831660008181527fb507b92927105c30ff6e8afc661972d5ba73e86e28bafa70cb531ddda52bdf0484526040902082518155919092015160019091015583518491908110611cbe577f4e487b7100000000000000000000000000000000000000000000000000000000600052603260045260246000fd5b60209081029190910181015161ffff831660008181527f4e5c7e8f4b1f6c9808b80aae6c41bbd046930d99f67f4e24136b55524acbcb0e84526040902082518155919092015160019091015582518391908110611d44577f4e487b7100000000000000000000000000000000000000000000000000000000600052603260045260246000fd5b60209081029190910181015161ffff831660009081527ff0ae10cbc4b7e5d41a3a6c7f530e4919b2e487e56976cad1b0bf6c5c77e679158352604090208151815591015160019091015580611d988161358e565b915050611ae2565b6040517fd06ca61f00000000000000000000000000000000000000000000000000000000815260009081907310ed43c718714eb63d5aa57b78b54704e256024e9063d06ca61f90611e0190670de0b6b3a76400009088908890600401613353565b60006040518083038186803b158015611e1957600080fd5b505afa158015611e2d573d6000803e3d6000fd5b505050506040513d6000823e601f3d9081017fffffffffffffffffffffffffffffffffffffffffffffffffffffffffffffffe0168201604052611e739190810190613079565b90508060018251611e849190613577565b81518110611ebb577f4e487b7100000000000000000000000000000000000000000000000000000000600052603260045260246000fd5b602002602001015191505092915050565b60335473ffffffffffffffffffffffffffffffffffffffff163314611f4d576040517f08c379a000000000000000000000000000000000000000000000000000000000815260206004820181905260248201527f4f776e61626c653a2063616c6c6572206973206e6f7420746865206f776e65726044820152606401610705565b73ffffffffffffffffffffffffffffffffffffffff8216611fca576040517f08c379a000000000000000000000000000000000000000000000000000000000815260206004820152600d60248201527f494e56414c49445f494e505554000000000000000000000000000000000000006044820152606401610705565b73ffffffffffffffffffffffffffffffffffffffff91909116600090815260696020526040902080547fffffffffffffffffffffffffffffffffffffffffffffffffffffffffffffff0016911515919091179055565b6000818311156120a85760008281526068602052604090206120a190606490610c6790606e90612051600188613577565b81548110612088577f4e487b7100000000000000000000000000000000000000000000000000000000600052603260045260246000fd5b906000526020600020015461221d90919063ffffffff16565b90506120d2565b60008381526068602052604090206120cf90606490610c6790606e90612051600188613577565b90505b92915050565b60335473ffffffffffffffffffffffffffffffffffffffff163314612159576040517f08c379a000000000000000000000000000000000000000000000000000000000815260206004820181905260248201527f4f776e61626c653a2063616c6c6572206973206e6f7420746865206f776e65726044820152606401610705565b73ffffffffffffffffffffffffffffffffffffffff81166121fc576040517f08c379a000000000000000000000000000000000000000000000000000000000815260206004820152602660248201527f4f776e61626c653a206e6577206f776e657220697320746865207a65726f206160448201527f64647265737300000000000000000000000000000000000000000000000000006064820152608401610705565b611a14816123a5565b60006120cf8284613577565b60006120cf82846134de565b60006120cf8284613517565b60606000612238878787612541565b61224a90670de0b6b3a7640000613517565b60408051600a8082526101608201909252919250602082016101408036833701905050915060015b600a8161ffff161161239a57600260036007600088612292600187613554565b61ffff16815181106122cd577f4e487b7100000000000000000000000000000000000000000000000000000000600052603260045260246000fd5b6020026020010151905060038c11156122e8578461ffff1692505b60028561ffff16118015612300575060098561ffff16105b1561230e5760039350612320565b60088561ffff16111561232057600493505b6123308b8b868686868e8d6126ac565b8761233c600188613554565b61ffff1681518110612377577f4e487b7100000000000000000000000000000000000000000000000000000000600052603260045260246000fd5b6020026020010181815250505050505080806123929061358e565b915050612272565b505095945050505050565b6033805473ffffffffffffffffffffffffffffffffffffffff8381167fffffffffffffffffffffffff0000000000000000000000000000000000000000831681179093556040519116919082907f8be0079c531659141344cd1fd0a4f28419497f9722a3daafe3b4186f6b6457e090600090a35050565b600054610100900460ff1680612435575060005460ff16155b6124c1576040517f08c379a000000000000000000000000000000000000000000000000000000000815260206004820152602e60248201527f496e697469616c697a61626c653a20636f6e747261637420697320616c72656160448201527f647920696e697469616c697a65640000000000000000000000000000000000006064820152608401610705565b600054610100900460ff1615801561250057600080547fffffffffffffffffffffffffffffffffffffffffffffffffffffffffffff0000166101011790555b612508612767565b61251061287b565b8015611a1457600080547fffffffffffffffffffffffffffffffffffffffffffffffffffffffffffff00ff16905550565b6000836001141561255e5761255782601c613517565b90506126a5565b83600214156125885761257282600a613517565b61257e846161a8613517565b61255791906134c6565b83600314156125a95761259c82602d613517565b61257e84620186a0613517565b83600414156125ca576125bd8260b4613517565b61257e8462030d40613517565b83600514156125ec576125df826101c2613517565b61257e8462061a80613517565b836006141561260e5761260182610384613517565b61257e84620f4240613517565b836007141561263057612623826108ca613517565b61257e84622dc6c0613517565b83600814156126525761264582612328613517565b61257e8462989680613517565b83600914156126755761266782616978613517565b61257e846301312d00613517565b83600a14156126a55761268a8261d2f0613517565b612698846302625a00613517565b6126a291906134c6565b90505b9392505050565b60006126bf87666a94d74f430000613517565b6126d190670de0b6b3a7640000613517565b6126e56064610c676055611125898f61221d565b6126fd6126f68961ffff8a16613517565b8590612211565b61270791906134c6565b61271191906134c6565b905061274461273d896111258961272c8c61ffff8c16613517565b6127369190613517565b8790612211565b8290612205565b905061275a612753888a613517565b8290612211565b9998505050505050505050565b600054610100900460ff1680612780575060005460ff16155b61280c576040517f08c379a000000000000000000000000000000000000000000000000000000000815260206004820152602e60248201527f496e697469616c697a61626c653a20636f6e747261637420697320616c72656160448201527f647920696e697469616c697a65640000000000000000000000000000000000006064820152608401610705565b600054610100900460ff1615801561251057600080547fffffffffffffffffffffffffffffffffffffffffffffffffffffffffffff0000166101011790558015611a1457600080547fffffffffffffffffffffffffffffffffffffffffffffffffffffffffffff00ff16905550565b600054610100900460ff1680612894575060005460ff16155b612920576040517f08c379a000000000000000000000000000000000000000000000000000000000815260206004820152602e60248201527f496e697469616c697a61626c653a20636f6e747261637420697320616c72656160448201527f647920696e697469616c697a65640000000000000000000000000000000000006064820152608401610705565b600054610100900460ff1615801561295f57600080547fffffffffffffffffffffffffffffffffffffffffffffffffffffffffffff0000166101011790555b612510336123a5565b8280548282559060005260206000209081019282156129e0579160200282015b828111156129e05781547fffffffffffffffffffffffff00000000000000000000000000000000000000001673ffffffffffffffffffffffffffffffffffffffff843516178255602090920191600190910190612988565b506129ec929150612aa5565b5090565b8280548282559060005260206000209081019282156129e0579160200282015b828111156129e0578251825591602001919060010190612a10565b8280548282559060005260206000209081019282156129e0579160200282015b828111156129e057825182547fffffffffffffffffffffffff00000000000000000000000000000000000000001673ffffffffffffffffffffffffffffffffffffffff909116178255602090920191600190910190612a4b565b5b808211156129ec5760008155600101612aa6565b803573ffffffffffffffffffffffffffffffffffffffff81168114612ade57600080fd5b919050565b60008083601f840112612af4578182fd5b50813567ffffffffffffffff811115612b0b578182fd5b6020830191508360208260051b8501011115612b2657600080fd5b9250929050565b600082601f830112612b3d578081fd5b81356020612b52612b4d8361347c565b61342d565b80838252828201915082860187848660061b8901011115612b71578586fd5b855b85811015612b9a57612b858983612c04565b84529284019260409190910190600101612b73565b5090979650505050505050565b600082601f830112612bb7578081fd5b81356020612bc7612b4d8361347c565b80838252828201915082860187848660051b8901011115612be6578586fd5b855b85811015612b9a57813584529284019290840190600101612be8565b600060408284031215612c15578081fd5b6040516040810181811067ffffffffffffffff82111715612c3857612c38613618565b604052823581526020928301359281019290925250919050565b8051612ade81613647565b600060208284031215612c6e578081fd5b6120cf82612aba565b60008060408385031215612c89578081fd5b612c9283612aba565b915060208301358015158114612ca6578182fd5b809150509250929050565b6000806000806000806000878903610180811215612ccd578384fd5b612cd689612aba565b975060208901359650604089013567ffffffffffffffff80821115612cf9578586fd5b612d058c838d01612ba7565b975060608b0135915080821115612d1a578586fd5b612d268c838d01612ba7565b965060808b0135915080821115612d3b578586fd5b612d478c838d01612ba7565b9550612d568c60a08d01612c04565b945060a07fffffffffffffffffffffffffffffffffffffffffffffffffffffffffffffff2084011215612d87578384fd5b604051925060a0830191508282108183111715612da657612da6613618565b5060405260e0890135612db881613647565b815261010089013560208201526101208901356040820152610140890135612ddf81613647565b6060820152610160890135612df381613647565b806080830152508091505092959891949750929550565b60008060208385031215612e1c578182fd5b823567ffffffffffffffff811115612e32578283fd5b612e3e85828601612ae3565b90969095509350505050565b60008060008060408587031215612e5f578182fd5b843567ffffffffffffffff80821115612e76578384fd5b612e8288838901612ae3565b90965094506020870135915080821115612e9a578384fd5b50612ea787828801612ae3565b95989497509550505050565b600080600080600060a08688031215612eca578283fd5b853567ffffffffffffffff80821115612ee1578485fd5b612eed89838a01612b2d565b96506020880135915080821115612f02578485fd5b612f0e89838a01612b2d565b95506040880135915080821115612f23578485fd5b612f2f89838a01612b2d565b94506060880135915080821115612f44578283fd5b612f5089838a01612b2d565b93506080880135915080821115612f65578283fd5b50612f7288828901612b2d565b9150509295509295909350565b6000806000806000806000806080898b031215612f9a578182fd5b883567ffffffffffffffff80821115612fb1578384fd5b612fbd8c838d01612ae3565b909a50985060208b0135915080821115612fd5578384fd5b612fe18c838d01612ae3565b909850965060408b0135915080821115612ff9578384fd5b6130058c838d01612ae3565b909650945060608b013591508082111561301d578384fd5b5061302a8b828c01612ae3565b999c989b5096995094979396929594505050565b60006020828403121561304f578081fd5b813567ffffffffffffffff811115613065578182fd5b61307184828501612ba7565b949350505050565b6000602080838503121561308b578182fd5b825167ffffffffffffffff8111156130a1578283fd5b8301601f810185136130b1578283fd5b80516130bf612b4d8261347c565b80828252848201915084840188868560051b87010111156130de578687fd5b8694505b838510156131005780518352600194909401939185019185016130e2565b50979650505050505050565b60006101a0828403121561311e578081fd5b613126613403565b61312f83612c52565b815261313d60208401612c52565b602082015261314e60408401612c52565b604082015261315f60608401612c52565b606082015261317060808401612c52565b608082015261318160a08401612c52565b60a082015261319260c08401612c52565b60c08201526131a360e08401612c52565b60e08201526101006131b6818501612c52565b908201526101206131c8848201612c52565b908201526101406131da848201612c52565b908201526101606131ec848201612c52565b908201526101806131fe848201612c52565b908201529392505050565b60006020828403121561321a578081fd5b81356126a581613647565b600060208284031215613236578081fd5b81516126a581613647565b600060208284031215613252578081fd5b5035919050565b6000806040838503121561326b578182fd5b50508035926020909101359150565b60008060006060848603121561328e578081fd5b83359250602084013591506132a560408501612aba565b90509250925092565b6000602082840312156132bf578081fd5b813567ffffffffffffffff811681146126a5578182fd5b6000815180845260208085019450808401835b83811015613305578151875295820195908201906001016132e9565b509495945050505050565b60608152600061332360608301866132d6565b828103602084015261333581866132d6565b9050828103604084015261334981856132d6565b9695505050505050565b83815260406020808301829052908201839052600090849060608401835b868110156131005773ffffffffffffffffffffffffffffffffffffffff61339785612aba565b1682529282019290820190600101613371565b60006040820184835260206040818501528185548084526060860191508685528285209350845b81811015612b9a57845473ffffffffffffffffffffffffffffffffffffffff16835260019485019492840192016133d1565b6040516101a0810167ffffffffffffffff8111828210171561342757613427613618565b60405290565b604051601f82017fffffffffffffffffffffffffffffffffffffffffffffffffffffffffffffffe016810167ffffffffffffffff8111828210171561347457613474613618565b604052919050565b600067ffffffffffffffff82111561349657613496613618565b5060051b60200190565b600061ffff8083168185168083038211156134bd576134bd6135e9565b01949350505050565b600082198211156134d9576134d96135e9565b500190565b600082613512577f4e487b710000000000000000000000000000000000000000000000000000000081526012600452602481fd5b500490565b6000817fffffffffffffffffffffffffffffffffffffffffffffffffffffffffffffffff048311821515161561354f5761354f6135e9565b500290565b600061ffff8381169083168181101561356f5761356f6135e9565b039392505050565b600082821015613589576135896135e9565b500390565b600061ffff808316818114156135a6576135a66135e9565b6001019392505050565b60007fffffffffffffffffffffffffffffffffffffffffffffffffffffffffffffffff8214156135e2576135e26135e9565b5060010190565b7f4e487b7100000000000000000000000000000000000000000000000000000000600052601160045260246000fd5b7f4e487b7100000000000000000000000000000000000000000000000000000000600052604160045260246000fd5b61ffff81168114611a1457600080fdfea2646970667358221220ee33bc7d66a87dc319ef10541e29fb267501af5d2abe3bc9fa436ae0e839015964736f6c63430008040033",
  "linkReferences": {},
  "deployedLinkReferences": {}
}