{
  "_format": "hh-sol-artifact-1",
  "contractName": "MStationPool",
  "sourceName": "contracts/DragonCastle/MStationPool.sol",
  "abi": [
    {
      "inputs": [
        {
          "internalType": "string",
          "name": "poolName",
          "type": "string"
        },
        {
          "internalType": "string",
          "name": "symbol",
          "type": "string"
        }
      ],
      "stateMutability": "nonpayable",
      "type": "constructor"
    },
    {
      "anonymous": false,
      "inputs": [
        {
          "indexed": false,
          "internalType": "address",
          "name": "tokenRecovered",
          "type": "address"
        },
        {
          "indexed": false,
          "internalType": "uint256",
          "name": "amount",
          "type": "uint256"
        }
      ],
      "name": "AdminTokenRecovery",
      "type": "event"
    },
    {
      "anonymous": false,
      "inputs": [
        {
          "indexed": true,
          "internalType": "address",
          "name": "owner",
          "type": "address"
        },
        {
          "indexed": true,
          "internalType": "address",
          "name": "spender",
          "type": "address"
        },
        {
          "indexed": false,
          "internalType": "uint256",
          "name": "value",
          "type": "uint256"
        }
      ],
      "name": "Approval",
      "type": "event"
    },
    {
      "anonymous": false,
      "inputs": [
        {
          "indexed": true,
          "internalType": "address",
          "name": "user",
          "type": "address"
        },
        {
          "indexed": true,
          "internalType": "address",
          "name": "nftAddress",
          "type": "address"
        },
        {
          "indexed": false,
          "internalType": "uint256",
          "name": "tokenId",
          "type": "uint256"
        }
      ],
      "name": "ClaimNFT",
      "type": "event"
    },
    {
      "anonymous": false,
      "inputs": [
        {
          "indexed": true,
          "internalType": "address",
          "name": "user",
          "type": "address"
        },
        {
          "indexed": false,
          "internalType": "uint256",
          "name": "amount",
          "type": "uint256"
        }
      ],
      "name": "Deposit",
      "type": "event"
    },
    {
      "anonymous": false,
      "inputs": [
        {
          "indexed": true,
          "internalType": "address",
          "name": "user",
          "type": "address"
        },
        {
          "indexed": false,
          "internalType": "uint256",
          "name": "amount",
          "type": "uint256"
        }
      ],
      "name": "EmergencyWithdraw",
      "type": "event"
    },
    {
      "anonymous": false,
      "inputs": [
        {
          "indexed": false,
          "internalType": "uint256",
          "name": "blockStakeForNFT",
          "type": "uint256"
        }
      ],
      "name": "NewBlockStakeForNFT",
      "type": "event"
    },
    {
      "anonymous": false,
      "inputs": [
        {
          "indexed": false,
          "internalType": "uint256",
          "name": "minStakeForNFT",
          "type": "uint256"
        }
      ],
      "name": "NewMinStakeForNFT",
      "type": "event"
    },
    {
      "anonymous": false,
      "inputs": [
        {
          "indexed": false,
          "internalType": "address",
          "name": "user",
          "type": "address"
        }
      ],
      "name": "NewNFTSlot",
      "type": "event"
    },
    {
      "anonymous": false,
      "inputs": [
        {
          "indexed": false,
          "internalType": "address",
          "name": "nftAddress",
          "type": "address"
        }
      ],
      "name": "NewNftAddress",
      "type": "event"
    },
    {
      "anonymous": false,
      "inputs": [
        {
          "indexed": false,
          "internalType": "uint256[]",
          "name": "nftIds",
          "type": "uint256[]"
        }
      ],
      "name": "NewNftTokenIds",
      "type": "event"
    },
    {
      "anonymous": false,
      "inputs": [
        {
          "indexed": false,
          "internalType": "uint256",
          "name": "poolCap",
          "type": "uint256"
        }
      ],
      "name": "NewPoolCap",
      "type": "event"
    },
    {
      "anonymous": false,
      "inputs": [
        {
          "indexed": false,
          "internalType": "uint256",
          "name": "poolLimitPerUser",
          "type": "uint256"
        }
      ],
      "name": "NewPoolLimit",
      "type": "event"
    },
    {
      "anonymous": false,
      "inputs": [
        {
          "indexed": false,
          "internalType": "uint256",
          "name": "rewardPerBlock",
          "type": "uint256"
        },
        {
          "indexed": false,
          "internalType": "contract ERC20",
          "name": "token",
          "type": "address"
        }
      ],
      "name": "NewRewardPerBlock",
      "type": "event"
    },
    {
      "anonymous": false,
      "inputs": [
        {
          "indexed": false,
          "internalType": "contract ERC20",
          "name": "token",
          "type": "address"
        },
        {
          "indexed": false,
          "internalType": "uint256",
          "name": "rewardPerBlock",
          "type": "uint256"
        },
        {
          "indexed": false,
          "internalType": "uint256",
          "name": "p_factor",
          "type": "uint256"
        }
      ],
      "name": "NewRewardToken",
      "type": "event"
    },
    {
      "anonymous": false,
      "inputs": [
        {
          "indexed": false,
          "internalType": "uint256",
          "name": "startStakingBlock",
          "type": "uint256"
        },
        {
          "indexed": false,
          "internalType": "uint256",
          "name": "endStakingBlock",
          "type": "uint256"
        }
      ],
      "name": "NewStakingBlocks",
      "type": "event"
    },
    {
      "anonymous": false,
      "inputs": [
        {
          "indexed": false,
          "internalType": "uint256",
          "name": "startBlock",
          "type": "uint256"
        },
        {
          "indexed": false,
          "internalType": "uint256",
          "name": "endBlock",
          "type": "uint256"
        }
      ],
      "name": "NewStartAndEndBlocks",
      "type": "event"
    },
    {
      "anonymous": false,
      "inputs": [
        {
          "indexed": false,
          "internalType": "uint256",
          "name": "startUnStakingBlock",
          "type": "uint256"
        }
      ],
      "name": "NewUnStakingBlock",
      "type": "event"
    },
    {
      "anonymous": false,
      "inputs": [
        {
          "indexed": true,
          "internalType": "address",
          "name": "previousOwner",
          "type": "address"
        },
        {
          "indexed": true,
          "internalType": "address",
          "name": "newOwner",
          "type": "address"
        }
      ],
      "name": "OwnershipTransferred",
      "type": "event"
    },
    {
      "anonymous": false,
      "inputs": [
        {
          "indexed": false,
          "internalType": "contract ERC20",
          "name": "token",
          "type": "address"
        }
      ],
      "name": "RemoveRewardToken",
      "type": "event"
    },
    {
      "anonymous": false,
      "inputs": [
        {
          "indexed": false,
          "internalType": "uint256",
          "name": "blockNumber",
          "type": "uint256"
        }
      ],
      "name": "RewardsStop",
      "type": "event"
    },
    {
      "anonymous": false,
      "inputs": [
        {
          "indexed": true,
          "internalType": "address",
          "name": "from",
          "type": "address"
        },
        {
          "indexed": true,
          "internalType": "address",
          "name": "to",
          "type": "address"
        },
        {
          "indexed": false,
          "internalType": "uint256",
          "name": "value",
          "type": "uint256"
        }
      ],
      "name": "Transfer",
      "type": "event"
    },
    {
      "anonymous": false,
      "inputs": [
        {
          "indexed": true,
          "internalType": "address",
          "name": "user",
          "type": "address"
        },
        {
          "indexed": false,
          "internalType": "uint256",
          "name": "amount",
          "type": "uint256"
        }
      ],
      "name": "Withdraw",
      "type": "event"
    },
    {
      "inputs": [],
      "name": "M_CASTLE_FACTORY",
      "outputs": [
        {
          "internalType": "address",
          "name": "",
          "type": "address"
        }
      ],
      "stateMutability": "view",
      "type": "function"
    },
    {
      "inputs": [
        {
          "internalType": "contract ERC20",
          "name": "",
          "type": "address"
        }
      ],
      "name": "PRECISION_FACTOR",
      "outputs": [
        {
          "internalType": "uint256",
          "name": "",
          "type": "uint256"
        }
      ],
      "stateMutability": "view",
      "type": "function"
    },
    {
      "inputs": [
        {
          "internalType": "contract ERC20",
          "name": "",
          "type": "address"
        }
      ],
      "name": "accTokenPerShare",
      "outputs": [
        {
          "internalType": "uint256",
          "name": "",
          "type": "uint256"
        }
      ],
      "stateMutability": "view",
      "type": "function"
    },
    {
      "inputs": [
        {
          "internalType": "contract ERC20",
          "name": "_token",
          "type": "address"
        },
        {
          "internalType": "uint256",
          "name": "_rewardPerBlock",
          "type": "uint256"
        }
      ],
      "name": "addRewardToken",
      "outputs": [],
      "stateMutability": "nonpayable",
      "type": "function"
    },
    {
      "inputs": [
        {
          "internalType": "address",
          "name": "owner",
          "type": "address"
        },
        {
          "internalType": "address",
          "name": "spender",
          "type": "address"
        }
      ],
      "name": "allowance",
      "outputs": [
        {
          "internalType": "uint256",
          "name": "",
          "type": "uint256"
        }
      ],
      "stateMutability": "view",
      "type": "function"
    },
    {
      "inputs": [
        {
          "internalType": "address",
          "name": "spender",
          "type": "address"
        },
        {
          "internalType": "uint256",
          "name": "amount",
          "type": "uint256"
        }
      ],
      "name": "approve",
      "outputs": [
        {
          "internalType": "bool",
          "name": "",
          "type": "bool"
        }
      ],
      "stateMutability": "nonpayable",
      "type": "function"
    },
    {
      "inputs": [
        {
          "internalType": "address",
          "name": "account",
          "type": "address"
        }
      ],
      "name": "balanceOf",
      "outputs": [
        {
          "internalType": "uint256",
          "name": "",
          "type": "uint256"
        }
      ],
      "stateMutability": "view",
      "type": "function"
    },
    {
      "inputs": [],
      "name": "blockStakeForNFT",
      "outputs": [
        {
          "internalType": "uint256",
          "name": "",
          "type": "uint256"
        }
      ],
      "stateMutability": "view",
      "type": "function"
    },
    {
      "inputs": [],
      "name": "bonusEndBlock",
      "outputs": [
        {
          "internalType": "uint256",
          "name": "",
          "type": "uint256"
        }
      ],
      "stateMutability": "view",
      "type": "function"
    },
    {
      "inputs": [],
      "name": "claimNFT",
      "outputs": [],
      "stateMutability": "nonpayable",
      "type": "function"
    },
    {
      "inputs": [],
      "name": "decimals",
      "outputs": [
        {
          "internalType": "uint8",
          "name": "",
          "type": "uint8"
        }
      ],
      "stateMutability": "view",
      "type": "function"
    },
    {
      "inputs": [
        {
          "internalType": "address",
          "name": "spender",
          "type": "address"
        },
        {
          "internalType": "uint256",
          "name": "subtractedValue",
          "type": "uint256"
        }
      ],
      "name": "decreaseAllowance",
      "outputs": [
        {
          "internalType": "bool",
          "name": "",
          "type": "bool"
        }
      ],
      "stateMutability": "nonpayable",
      "type": "function"
    },
    {
      "inputs": [
        {
          "internalType": "uint256",
          "name": "_amount",
          "type": "uint256"
        }
      ],
      "name": "deposit",
      "outputs": [],
      "stateMutability": "nonpayable",
      "type": "function"
    },
    {
      "inputs": [
        {
          "internalType": "uint256",
          "name": "_amount",
          "type": "uint256"
        }
      ],
      "name": "emergencyRemoval",
      "outputs": [],
      "stateMutability": "nonpayable",
      "type": "function"
    },
    {
      "inputs": [
        {
          "internalType": "uint256",
          "name": "_amount",
          "type": "uint256"
        }
      ],
      "name": "emergencyRewardWithdraw",
      "outputs": [],
      "stateMutability": "nonpayable",
      "type": "function"
    },
    {
      "inputs": [],
      "name": "emergencyWithdraw",
      "outputs": [],
      "stateMutability": "nonpayable",
      "type": "function"
    },
    {
      "inputs": [],
      "name": "feeCollector",
      "outputs": [
        {
          "internalType": "address",
          "name": "",
          "type": "address"
        }
      ],
      "stateMutability": "view",
      "type": "function"
    },
    {
      "inputs": [],
      "name": "feePeriod",
      "outputs": [
        {
          "internalType": "uint256",
          "name": "",
          "type": "uint256"
        }
      ],
      "stateMutability": "view",
      "type": "function"
    },
    {
      "inputs": [
        {
          "internalType": "contract ERC20[]",
          "name": "_tokens",
          "type": "address[]"
        }
      ],
      "name": "getAllAccTokenPerShared",
      "outputs": [
        {
          "internalType": "uint256[]",
          "name": "",
          "type": "uint256[]"
        }
      ],
      "stateMutability": "view",
      "type": "function"
    },
    {
      "inputs": [
        {
          "internalType": "contract ERC20[]",
          "name": "_tokens",
          "type": "address[]"
        }
      ],
      "name": "getAllPreFactor",
      "outputs": [
        {
          "internalType": "uint256[]",
          "name": "",
          "type": "uint256[]"
        }
      ],
      "stateMutability": "view",
      "type": "function"
    },
    {
      "inputs": [
        {
          "internalType": "contract ERC20[]",
          "name": "_tokens",
          "type": "address[]"
        }
      ],
      "name": "getAllRewardPerBlock",
      "outputs": [
        {
          "internalType": "uint256[]",
          "name": "",
          "type": "uint256[]"
        }
      ],
      "stateMutability": "view",
      "type": "function"
    },
    {
      "inputs": [],
      "name": "getFeeCollector",
      "outputs": [
        {
          "internalType": "address",
          "name": "",
          "type": "address"
        }
      ],
      "stateMutability": "view",
      "type": "function"
    },
    {
      "inputs": [],
      "name": "getFeePeriod",
      "outputs": [
        {
          "internalType": "uint256",
          "name": "",
          "type": "uint256"
        }
      ],
      "stateMutability": "view",
      "type": "function"
    },
    {
      "inputs": [
        {
          "internalType": "address",
          "name": "_user",
          "type": "address"
        }
      ],
      "name": "getLastStakingBlock",
      "outputs": [
        {
          "internalType": "uint256",
          "name": "",
          "type": "uint256"
        }
      ],
      "stateMutability": "view",
      "type": "function"
    },
    {
      "inputs": [
        {
          "internalType": "address",
          "name": "_user",
          "type": "address"
        }
      ],
      "name": "getPendingNftReward",
      "outputs": [
        {
          "internalType": "uint256",
          "name": "",
          "type": "uint256"
        }
      ],
      "stateMutability": "view",
      "type": "function"
    },
    {
      "inputs": [],
      "name": "getStakingEndBlock",
      "outputs": [
        {
          "internalType": "uint256",
          "name": "",
          "type": "uint256"
        }
      ],
      "stateMutability": "view",
      "type": "function"
    },
    {
      "inputs": [],
      "name": "getUnStakingFee",
      "outputs": [
        {
          "internalType": "uint256",
          "name": "",
          "type": "uint256"
        }
      ],
      "stateMutability": "view",
      "type": "function"
    },
    {
      "inputs": [
        {
          "internalType": "address",
          "name": "_usr",
          "type": "address"
        }
      ],
      "name": "getUserDebt",
      "outputs": [
        {
          "internalType": "contract ERC20[]",
          "name": "",
          "type": "address[]"
        },
        {
          "internalType": "uint256[]",
          "name": "",
          "type": "uint256[]"
        }
      ],
      "stateMutability": "view",
      "type": "function"
    },
    {
      "inputs": [
        {
          "internalType": "address",
          "name": "_usr",
          "type": "address"
        },
        {
          "internalType": "contract ERC20",
          "name": "_token",
          "type": "address"
        }
      ],
      "name": "getUserDebtByToken",
      "outputs": [
        {
          "internalType": "uint256",
          "name": "",
          "type": "uint256"
        }
      ],
      "stateMutability": "view",
      "type": "function"
    },
    {
      "inputs": [],
      "name": "hasPoolLimit",
      "outputs": [
        {
          "internalType": "bool",
          "name": "",
          "type": "bool"
        }
      ],
      "stateMutability": "view",
      "type": "function"
    },
    {
      "inputs": [],
      "name": "hasUserLimit",
      "outputs": [
        {
          "internalType": "bool",
          "name": "",
          "type": "bool"
        }
      ],
      "stateMutability": "view",
      "type": "function"
    },
    {
      "inputs": [
        {
          "internalType": "address",
          "name": "spender",
          "type": "address"
        },
        {
          "internalType": "uint256",
          "name": "addedValue",
          "type": "uint256"
        }
      ],
      "name": "increaseAllowance",
      "outputs": [
        {
          "internalType": "bool",
          "name": "",
          "type": "bool"
        }
      ],
      "stateMutability": "nonpayable",
      "type": "function"
    },
    {
      "inputs": [
        {
          "internalType": "contract ERC20",
          "name": "_stakedToken",
          "type": "address"
        },
        {
          "internalType": "contract ERC20[]",
          "name": "_rewardTokens",
          "type": "address[]"
        },
        {
          "internalType": "uint256[]",
          "name": "_rewardPerBlock",
          "type": "uint256[]"
        },
        {
          "internalType": "uint256[]",
          "name": "_startEndBlocks",
          "type": "uint256[]"
        },
        {
          "internalType": "uint256[]",
          "name": "_stakingBlocks",
          "type": "uint256[]"
        },
        {
          "internalType": "uint256",
          "name": "_unStakingBlock",
          "type": "uint256"
        },
        {
          "internalType": "uint256[]",
          "name": "_feeSettings",
          "type": "uint256[]"
        },
        {
          "internalType": "address",
          "name": "_feeCollector",
          "type": "address"
        },
        {
          "internalType": "uint256",
          "name": "_poolLimitPerUser",
          "type": "uint256"
        },
        {
          "internalType": "uint256",
          "name": "_poolCap",
          "type": "uint256"
        },
        {
          "internalType": "bool",
          "name": "_isRemovable",
          "type": "bool"
        },
        {
          "internalType": "address",
          "name": "_admin",
          "type": "address"
        }
      ],
      "name": "initialize",
      "outputs": [],
      "stateMutability": "nonpayable",
      "type": "function"
    },
    {
      "inputs": [],
      "name": "isInitialized",
      "outputs": [
        {
          "internalType": "bool",
          "name": "",
          "type": "bool"
        }
      ],
      "stateMutability": "view",
      "type": "function"
    },
    {
      "inputs": [],
      "name": "lastRewardBlock",
      "outputs": [
        {
          "internalType": "uint256",
          "name": "",
          "type": "uint256"
        }
      ],
      "stateMutability": "view",
      "type": "function"
    },
    {
      "inputs": [],
      "name": "minStakeForNFT",
      "outputs": [
        {
          "internalType": "uint256",
          "name": "",
          "type": "uint256"
        }
      ],
      "stateMutability": "view",
      "type": "function"
    },
    {
      "inputs": [],
      "name": "name",
      "outputs": [
        {
          "internalType": "string",
          "name": "",
          "type": "string"
        }
      ],
      "stateMutability": "view",
      "type": "function"
    },
    {
      "inputs": [],
      "name": "nftAddress",
      "outputs": [
        {
          "internalType": "address",
          "name": "",
          "type": "address"
        }
      ],
      "stateMutability": "view",
      "type": "function"
    },
    {
      "inputs": [],
      "name": "owner",
      "outputs": [
        {
          "internalType": "address",
          "name": "",
          "type": "address"
        }
      ],
      "stateMutability": "view",
      "type": "function"
    },
    {
      "inputs": [
        {
          "internalType": "address",
          "name": "_user",
          "type": "address"
        }
      ],
      "name": "pendingReward",
      "outputs": [
        {
          "internalType": "uint256[]",
          "name": "",
          "type": "uint256[]"
        },
        {
          "internalType": "contract ERC20[]",
          "name": "",
          "type": "address[]"
        }
      ],
      "stateMutability": "view",
      "type": "function"
    },
    {
      "inputs": [
        {
          "internalType": "address",
          "name": "_user",
          "type": "address"
        },
        {
          "internalType": "contract ERC20",
          "name": "_token",
          "type": "address"
        }
      ],
      "name": "pendingRewardByToken",
      "outputs": [
        {
          "internalType": "uint256",
          "name": "",
          "type": "uint256"
        }
      ],
      "stateMutability": "view",
      "type": "function"
    },
    {
      "inputs": [],
      "name": "poolCap",
      "outputs": [
        {
          "internalType": "uint256",
          "name": "",
          "type": "uint256"
        }
      ],
      "stateMutability": "view",
      "type": "function"
    },
    {
      "inputs": [],
      "name": "poolLimitPerUser",
      "outputs": [
        {
          "internalType": "uint256",
          "name": "",
          "type": "uint256"
        }
      ],
      "stateMutability": "view",
      "type": "function"
    },
    {
      "inputs": [
        {
          "internalType": "address",
          "name": "_tokenAddress",
          "type": "address"
        },
        {
          "internalType": "uint256",
          "name": "_tokenAmount",
          "type": "uint256"
        }
      ],
      "name": "recoverWrongTokens",
      "outputs": [],
      "stateMutability": "nonpayable",
      "type": "function"
    },
    {
      "inputs": [
        {
          "internalType": "contract ERC20",
          "name": "_token",
          "type": "address"
        }
      ],
      "name": "removeRewardToken",
      "outputs": [],
      "stateMutability": "nonpayable",
      "type": "function"
    },
    {
      "inputs": [],
      "name": "renounceOwnership",
      "outputs": [],
      "stateMutability": "nonpayable",
      "type": "function"
    },
    {
      "inputs": [
        {
          "internalType": "contract ERC20",
          "name": "",
          "type": "address"
        }
      ],
      "name": "rewardPerBlock",
      "outputs": [
        {
          "internalType": "uint256",
          "name": "",
          "type": "uint256"
        }
      ],
      "stateMutability": "view",
      "type": "function"
    },
    {
      "inputs": [
        {
          "internalType": "uint256",
          "name": "",
          "type": "uint256"
        }
      ],
      "name": "rewardTokens",
      "outputs": [
        {
          "internalType": "contract ERC20",
          "name": "",
          "type": "address"
        }
      ],
      "stateMutability": "view",
      "type": "function"
    },
    {
      "inputs": [],
      "name": "stakedToken",
      "outputs": [
        {
          "internalType": "contract ERC20",
          "name": "",
          "type": "address"
        }
      ],
      "stateMutability": "view",
      "type": "function"
    },
    {
      "inputs": [],
      "name": "stakingBlock",
      "outputs": [
        {
          "internalType": "uint256",
          "name": "",
          "type": "uint256"
        }
      ],
      "stateMutability": "view",
      "type": "function"
    },
    {
      "inputs": [],
      "name": "stakingEndBlock",
      "outputs": [
        {
          "internalType": "uint256",
          "name": "",
          "type": "uint256"
        }
      ],
      "stateMutability": "view",
      "type": "function"
    },
    {
      "inputs": [],
      "name": "startBlock",
      "outputs": [
        {
          "internalType": "uint256",
          "name": "",
          "type": "uint256"
        }
      ],
      "stateMutability": "view",
      "type": "function"
    },
    {
      "inputs": [],
      "name": "stopReward",
      "outputs": [],
      "stateMutability": "nonpayable",
      "type": "function"
    },
    {
      "inputs": [],
      "name": "symbol",
      "outputs": [
        {
          "internalType": "string",
          "name": "",
          "type": "string"
        }
      ],
      "stateMutability": "view",
      "type": "function"
    },
    {
      "inputs": [],
      "name": "totalSupply",
      "outputs": [
        {
          "internalType": "uint256",
          "name": "",
          "type": "uint256"
        }
      ],
      "stateMutability": "view",
      "type": "function"
    },
    {
      "inputs": [
        {
          "internalType": "address",
          "name": "recipient",
          "type": "address"
        },
        {
          "internalType": "uint256",
          "name": "amount",
          "type": "uint256"
        }
      ],
      "name": "transfer",
      "outputs": [
        {
          "internalType": "bool",
          "name": "",
          "type": "bool"
        }
      ],
      "stateMutability": "nonpayable",
      "type": "function"
    },
    {
      "inputs": [
        {
          "internalType": "address",
          "name": "sender",
          "type": "address"
        },
        {
          "internalType": "address",
          "name": "recipient",
          "type": "address"
        },
        {
          "internalType": "uint256",
          "name": "amount",
          "type": "uint256"
        }
      ],
      "name": "transferFrom",
      "outputs": [
        {
          "internalType": "bool",
          "name": "",
          "type": "bool"
        }
      ],
      "stateMutability": "nonpayable",
      "type": "function"
    },
    {
      "inputs": [
        {
          "internalType": "address",
          "name": "newOwner",
          "type": "address"
        }
      ],
      "name": "transferOwnership",
      "outputs": [],
      "stateMutability": "nonpayable",
      "type": "function"
    },
    {
      "inputs": [],
      "name": "unStakingBlock",
      "outputs": [
        {
          "internalType": "uint256",
          "name": "",
          "type": "uint256"
        }
      ],
      "stateMutability": "view",
      "type": "function"
    },
    {
      "inputs": [],
      "name": "unStakingFee",
      "outputs": [
        {
          "internalType": "uint256",
          "name": "",
          "type": "uint256"
        }
      ],
      "stateMutability": "view",
      "type": "function"
    },
    {
      "inputs": [
        {
          "internalType": "address",
          "name": "_newCollector",
          "type": "address"
        }
      ],
      "name": "updateFeeCollector",
      "outputs": [],
      "stateMutability": "nonpayable",
      "type": "function"
    },
    {
      "inputs": [
        {
          "internalType": "uint256",
          "name": "_newFeePeriod",
          "type": "uint256"
        }
      ],
      "name": "updateFeePeriod",
      "outputs": [],
      "stateMutability": "nonpayable",
      "type": "function"
    },
    {
      "inputs": [
        {
          "internalType": "bool",
          "name": "_hasPoolLimit",
          "type": "bool"
        },
        {
          "internalType": "uint256",
          "name": "_poolCap",
          "type": "uint256"
        }
      ],
      "name": "updatePoolCap",
      "outputs": [],
      "stateMutability": "nonpayable",
      "type": "function"
    },
    {
      "inputs": [
        {
          "internalType": "bool",
          "name": "_hasUserLimit",
          "type": "bool"
        },
        {
          "internalType": "uint256",
          "name": "_poolLimitPerUser",
          "type": "uint256"
        }
      ],
      "name": "updatePoolLimitPerUser",
      "outputs": [],
      "stateMutability": "nonpayable",
      "type": "function"
    },
    {
      "inputs": [
        {
          "internalType": "uint256",
          "name": "_rewardPerBlock",
          "type": "uint256"
        },
        {
          "internalType": "contract ERC20",
          "name": "_token",
          "type": "address"
        }
      ],
      "name": "updateRewardPerBlock",
      "outputs": [],
      "stateMutability": "nonpayable",
      "type": "function"
    },
    {
      "inputs": [
        {
          "internalType": "uint256",
          "name": "_startStakingBlock",
          "type": "uint256"
        },
        {
          "internalType": "uint256",
          "name": "_endStakingBlock",
          "type": "uint256"
        }
      ],
      "name": "updateStakingBlocks",
      "outputs": [],
      "stateMutability": "nonpayable",
      "type": "function"
    },
    {
      "inputs": [
        {
          "internalType": "uint256",
          "name": "_startBlock",
          "type": "uint256"
        },
        {
          "internalType": "uint256",
          "name": "_bonusEndBlock",
          "type": "uint256"
        }
      ],
      "name": "updateStartAndEndBlocks",
      "outputs": [],
      "stateMutability": "nonpayable",
      "type": "function"
    },
    {
      "inputs": [
        {
          "internalType": "uint256",
          "name": "_startUnStakingBlock",
          "type": "uint256"
        }
      ],
      "name": "updateUnStakingBlock",
      "outputs": [],
      "stateMutability": "nonpayable",
      "type": "function"
    },
    {
      "inputs": [
        {
          "internalType": "uint256",
          "name": "_newFee",
          "type": "uint256"
        }
      ],
      "name": "updateUnstakingFee",
      "outputs": [],
      "stateMutability": "nonpayable",
      "type": "function"
    },
    {
      "inputs": [
        {
          "internalType": "address",
          "name": "",
          "type": "address"
        }
      ],
      "name": "userInfo",
      "outputs": [
        {
          "internalType": "uint256",
          "name": "amount",
          "type": "uint256"
        },
        {
          "internalType": "uint256",
          "name": "lastStakingBlock",
          "type": "uint256"
        },
        {
          "internalType": "uint256",
          "name": "nftSlot",
          "type": "uint256"
        },
        {
          "internalType": "uint256",
          "name": "nftStakingBlock",
          "type": "uint256"
        }
      ],
      "stateMutability": "view",
      "type": "function"
    },
    {
      "inputs": [
        {
          "internalType": "uint256",
          "name": "_amount",
          "type": "uint256"
        }
      ],
      "name": "withdraw",
      "outputs": [],
      "stateMutability": "nonpayable",
      "type": "function"
    }
  ],
  "bytecode": "0x60806040523480156200001157600080fd5b5060405162005d8b38038062005d8b83398101604081905262000034916200023c565b81816200004a6200004462000097565b6200009b565b60018055815162000063906005906020850190620000eb565b50805162000079906006906020840190620000eb565b5050600780546001600160a01b0319163317905550620002f6915050565b3390565b600080546001600160a01b038381166001600160a01b0319831681178455604051919092169283917f8be0079c531659141344cd1fd0a4f28419497f9722a3daafe3b4186f6b6457e09190a35050565b828054620000f990620002a3565b90600052602060002090601f0160209004810192826200011d576000855562000168565b82601f106200013857805160ff191683800117855562000168565b8280016001018555821562000168579182015b82811115620001685782518255916020019190600101906200014b565b50620001769291506200017a565b5090565b5b808211156200017657600081556001016200017b565b600082601f830112620001a2578081fd5b81516001600160401b0380821115620001bf57620001bf620002e0565b6040516020601f8401601f1916820181018381118382101715620001e757620001e7620002e0565b6040528382528584018101871015620001fe578485fd5b8492505b8383101562000221578583018101518284018201529182019162000202565b838311156200023257848185840101525b5095945050505050565b600080604083850312156200024f578182fd5b82516001600160401b038082111562000266578384fd5b620002748683870162000191565b935060208501519150808211156200028a578283fd5b50620002998582860162000191565b9150509250929050565b600281046001821680620002b857607f821691505b60208210811415620002da57634e487b7160e01b600052602260045260246000fd5b50919050565b634e487b7160e01b600052604160045260246000fd5b615a8580620003066000396000f3fe608060405234801561001057600080fd5b506004361061041d5760003560e01c8063715018a61161022b578063b5206edd11610130578063db7cbc6d116100b8578063e6b8b33c11610087578063e6b8b33c14610835578063ea6e2beb1461083d578063ee58963614610845578063f2fde38b14610858578063f40f0f521461086b5761041d565b8063db7cbc6d146107db578063dd62ed3e146107ee578063e5bddf9214610801578063e65896c9146108145761041d565b8063bdaf73bc116100ff578063bdaf73bc146107a8578063c415b95c146107b0578063cc7a262e146107b8578063d2c35ce8146107c0578063db2e21bc146107d35761041d565b8063b5206edd14610772578063b647848b14610785578063b6b55f251461078d578063b954dc57146107a05761041d565b806397131172116101b3578063a6d37a4d11610182578063a6d37a4d14610734578063a9059cbb14610747578063a9f8d1811461075a578063ad99b27714610762578063b27a19081461076a5761041d565b806397131172146106f3578063a0b4090514610706578063a457c2d714610719578063a48264ff1461072c5761041d565b806392e8990e116101fa57806392e8990e146106aa5780639391f989146106b25780639513997f146106c557806395d89b41146106d857806396acfa1e146106e05761041d565b8063715018a61461067f5780637bb7bed11461068757806380dc06721461069a5780638da5cb5b146106a25761041d565b8063313ce5671161033157806348cd4cb1116102b957806366fe9f8a1161028857806366fe9f8a14610636578063672756ad1461063e578063684dc54a14610646578063684e6f011461065957806370a082311461066c5761041d565b806348cd4cb1146106005780634d73056b146106085780635bc335fa1461061b5780635bf8633a1461062e5761041d565b8063395093511161030057806339509351146105b75780633b0c74cf146105ca5780633d509c97146105d25780633f138d4b146105e557806345deeda6146105f85761041d565b8063313ce5671461057f5780633279beab14610594578063392e53cd146105a757806339301417146105af5761041d565b806312fde4b7116103b45780631959a002116103835780631959a0021461051b5780631aed65531461053e5780631cdcdec01461054657806323b872dd146105595780632e1a7d4d1461056c5761041d565b806312fde4b7146104e357806318160ddd146104f85780631830ed571461050057806318b297cc146105135761041d565b80630a122c8a116103f05780630a122c8a146104955780630cb5503b1461049d5780630e3802e9146104b05780630fd4ead9146104c35761041d565b806302055d2d1461042257806306fdde031461044b578063095ea7b31461046057806309f6ae1414610480575b600080fd5b6104356104303660046147df565b61088c565b604051610442919061576e565b60405180910390f35b6104536108ae565b6040516104429190614c6d565b61047361046e366004614885565b610940565b6040516104429190614c41565b61049361048e366004614a82565b61095e565b005b6104356109ab565b6104356104ab3660046147df565b6109b1565b6104936104be366004614a70565b6109c3565b6104d66104d13660046148b0565b610bed565b6040516104429190614c09565b6104eb610ce1565b6040516104429190614b8a565b610435610cf0565b61043561050e3660046147df565b610cf6565b610435610d08565b61052e6105293660046147df565b610d0e565b604051610442949392919061579c565b610435610d35565b610493610554366004614906565b610d3b565b610473610567366004614833565b610e0d565b61049361057a366004614a82565b610e9f565b610587611429565b60405161044291906157b7565b6104936105a2366004614a82565b61142e565b61047361153f565b61043561154f565b6104736105c5366004614885565b611555565b6104356115a9565b6104936105e03660046147df565b6115af565b6104936105f3366004614885565b611731565b6104356118c8565b6104356118ce565b610493610616366004614a82565b6118d4565b6104d66106293660046148b0565b6119b5565b6104eb611aa2565b610435611ab1565b610493611ab7565b6104356106543660046147df565b611d09565b6104356106673660046147df565b611d1b565b61043561067a3660046147df565b611d39565b610493611d54565b6104eb610695366004614a82565b611d9f565b610493611dc9565b6104eb611e0e565b610473611e1d565b6104936106c0366004614ab2565b611e2d565b6104936106d3366004614ad6565b611f17565b61045361203a565b6104936106ee366004614a82565b612049565b610435610701366004614873565b6121d5565b610493610714366004614906565b6123cc565b610473610727366004614885565b612492565b61047361250b565b610493610742366004614a82565b61251b565b610473610755366004614885565b61255f565b610435612573565b610435612579565b61043561257f565b6104d66107803660046148b0565b612585565b6104eb612672565b61049361079b366004614a82565b612681565b610435612bcb565b610435612bd1565b6104eb612bd7565b6104eb612be6565b6104936107ce3660046147df565b612bf5565b610493612c84565b6104936107e9366004614ad6565b612db1565b6104356107fc3660046147fb565b612ed0565b61049361080f366004614923565b612efb565b6108276108223660046147df565b6133fc565b604051610442929190614bdb565b610435613573565b610435613579565b610435610853366004614873565b61357f565b6104936108663660046147df565b6135ae565b61087e6108793660046147df565b61361c565b604051610442929190614c1c565b6001600160a01b0381166000908152601960205260409020600101545b919050565b6060600580546108bd906159aa565b80601f01602080910402602001604051908101604052809291908181526020018280546108e9906159aa565b80156109365780601f1061090b57610100808354040283529160200191610936565b820191906000526020600020905b81548152906001019060200180831161091957829003601f168201915b5050505050905090565b600061095461094d613b4b565b8484613b4f565b5060015b92915050565b610966613b4b565b6001600160a01b0316610977611e0e565b6001600160a01b0316146109a65760405162461bcd60e51b815260040161099d90615305565b60405180910390fd5b600c55565b600a5481565b60156020526000908152604090205481565b6109cb613b4b565b6001600160a01b03166109dc611e0e565b6001600160a01b031614610a025760405162461bcd60e51b815260040161099d90615305565b6001600160a01b038216610a285760405162461bcd60e51b815260040161099d90614e80565b6001600160a01b038216301415610a515760405162461bcd60e51b815260040161099d90614e80565b600080610a5f846017613c03565b915091508115610a815760405162461bcd60e51b815260040161099d90614f56565b6017805460018101825560009182527fc624b66cc0138b8fabc209247f72d758e1cf3343756d543badbf24212bed8c150180546001600160a01b0319166001600160a01b0387169081179091556040805163313ce56760e01b8152905163313ce56791600480820192602092909190829003018186803b158015610b0457600080fd5b505afa158015610b18573d6000803e3d6000fd5b505050506040513d601f19601f82011682018060405250810190610b3c9190614af7565b60ff169050601e8110610b615760405162461bcd60e51b815260040161099d90615715565b610b6c601e82613c84565b610b7790600a61588f565b6001600160a01b038616600090815260166020818152604080842094855560158252808420899055600882528084209390935552905490517f06503357b3526cae94a5cae2393d03eeba70357ff6c54870b54563fb0b493b5791610bde9188918891614c4c565b60405180910390a15050505050565b6060600082516001600160401b03811115610c1857634e487b7160e01b600052604160045260246000fd5b604051908082528060200260200182016040528015610c41578160200160208202803683370190505b50905060005b8351811015610cda5760086000858381518110610c7457634e487b7160e01b600052603260045260246000fd5b60200260200101516001600160a01b03166001600160a01b0316815260200190815260200160002054828281518110610cbd57634e487b7160e01b600052603260045260246000fd5b602090810291909101015280610cd2816159e5565b915050610c47565b5092915050565b600e546001600160a01b031690565b60045490565b60166020526000908152604090205481565b600b5481565b60196020526000908152604090208054600182015460038301546004909301549192909184565b600f5481565b610d43613b4b565b6001600160a01b0316610d54611e0e565b6001600160a01b031614610d7a5760405162461bcd60e51b815260040161099d90615305565b600754600160a81b900460ff16610da35760405162461bcd60e51b815260040161099d9061533a565b8115610db3576013819055610dd0565b6007805460ff60a81b1916600160a81b8415150217905560006013555b7ff20b09605c6beac7559c601059ac7e4205b9fcd5d28bd1ecf35f0977632d1e30601354604051610e01919061576e565b60405180910390a15050565b6000610e1a848484613c90565b6001600160a01b038416600090815260036020526040812081610e3b613b4b565b6001600160a01b03166001600160a01b0316815260200190815260200160002054905082811015610e7e5760405162461bcd60e51b815260040161099d906152bd565b610e9285610e8a613b4b565b858403613b4f565b60019150505b9392505050565b60026001541415610ec25760405162461bcd60e51b815260040161099d90615606565b60026001553360009081526019602052604090208115610efe5743600b541115610efe5760405162461bcd60e51b815260040161099d90615029565b8054821115610f1f5760405162461bcd60e51b815260040161099d90615483565b610f27613dba565b6000805b6017548110156110945761103a83600201600060178481548110610f5f57634e487b7160e01b600052603260045260246000fd5b60009182526020808320909101546001600160a01b03168352820192909252604001812054601780549192611034926016929087908110610fb057634e487b7160e01b600052603260045260246000fd5b60009182526020808320909101546001600160a01b0316835282019290925260400181205460178054919261102e92600892908990811061100157634e487b7160e01b600052603260045260246000fd5b60009182526020808320909101546001600160a01b03168352820192909252604001902054885490613f8f565b90613f9b565b90613c84565b91508115611082576110826017828154811061106657634e487b7160e01b600052603260045260246000fd5b6000918252602090912001546001600160a01b03163384613fa7565b8061108c816159e5565b915050610f2b565b5082156112cd5781546110a79084613c84565b82556110b3338461413d565b6110bd838361422f565b60185460405163a9059cbb60e01b81529194506001600160a01b03169063a9059cbb906110f09033908790600401614bc2565b602060405180830381600087803b15801561110a57600080fd5b505af115801561111e573d6000803e3d6000fd5b505050506040513d601f19601f8201168201806040525081019061114291906148ea565b50816003015460011480156111595750601d548254105b80156111745750601f546004830154611172904361597c565b105b156112cd5760006003830155601e54156112b7576000601e6000815481106111ac57634e487b7160e01b600052603260045260246000fd5b60009182526020808320909101546001600160a01b031680835260199091526040909120601e805492935090916111e59060019061597c565b8154811061120357634e487b7160e01b600052603260045260246000fd5b6000918252602082200154601e80546001600160a01b0390921692909161123a57634e487b7160e01b600052603260045260246000fd5b9060005260206000200160006101000a8154816001600160a01b0302191690836001600160a01b03160217905550601e80548061128757634e487b7160e01b600052603160045260246000fd5b600082815260209020810160001990810180546001600160a01b03191690550190556001600390910155506112cd565b601c80549060006112c783615993565b91905055505b60005b6017548110156113de57611380601660006017848154811061130257634e487b7160e01b600052603260045260246000fd5b60009182526020808320909101546001600160a01b0316835282019290925260400181205460178054919261102e92600892908790811061135357634e487b7160e01b600052603260045260246000fd5b60009182526020808320909101546001600160a01b03168352820192909252604001902054865490613f8f565b836002016000601784815481106113a757634e487b7160e01b600052603260045260246000fd5b60009182526020808320909101546001600160a01b03168352820192909252604001902055806113d6816159e5565b9150506112d0565b50336001600160a01b03167f884edad9ce6fa2440d8a54cc123490eb96d2768479d49ff9c7366125a942436484604051611418919061576e565b60405180910390a250506001805550565b601290565b611436613b4b565b6001600160a01b0316611447611e0e565b6001600160a01b03161461146d5760405162461bcd60e51b815260040161099d90615305565b60005b60175481101561153b576017818154811061149b57634e487b7160e01b600052603260045260246000fd5b60009182526020909120015460405163a9059cbb60e01b81526001600160a01b039091169063a9059cbb906114d69033908690600401614bc2565b602060405180830381600087803b1580156114f057600080fd5b505af1158015611504573d6000803e3d6000fd5b505050506040513d601f19601f8201168201806040525081019061152891906148ea565b5080611533816159e5565b915050611470565b5050565b600754600160b01b900460ff1681565b601f5481565b6000610954611562613b4b565b848460036000611570613b4b565b6001600160a01b03908116825260208083019390935260409182016000908120918b16815292529020546115a49190615811565b613b4f565b60095481565b6115b7613b4b565b6001600160a01b03166115c8611e0e565b6001600160a01b0316146115ee5760405162461bcd60e51b815260040161099d90615305565b6001600160a01b0381166116145760405162461bcd60e51b815260040161099d90614e80565b6001600160a01b03811630141561163d5760405162461bcd60e51b815260040161099d90614e80565b60175461165c5760405162461bcd60e51b815260040161099d90614ff9565b60008061166a836017613c03565b915091508161168b5760405162461bcd60e51b815260040161099d90615242565b60008061169983601761433e565b805191935091506116b1906017906020840190614680565b50816116cf5760405162461bcd60e51b815260040161099d9061520b565b6001600160a01b038516600090815260166020908152604080832083905560158252808320839055600890915280822091909155517f36bd04094fa067bb9471a8fbdb0a6e8a43424a2566ad3a740c88973fa40a311890610bde908790614b8a565b611739613b4b565b6001600160a01b031661174a611e0e565b6001600160a01b0316146117705760405162461bcd60e51b815260040161099d90615305565b6018546001600160a01b038381169116141561179e5760405162461bcd60e51b815260040161099d906154fe565b60005b60175481101561181557601781815481106117cc57634e487b7160e01b600052603260045260246000fd5b6000918252602090912001546001600160a01b03848116911614156118035760405162461bcd60e51b815260040161099d90615453565b8061180d816159e5565b9150506117a1565b5060405163a9059cbb60e01b81526001600160a01b0383169063a9059cbb906118449033908590600401614bc2565b602060405180830381600087803b15801561185e57600080fd5b505af1158015611872573d6000803e3d6000fd5b505050506040513d601f19601f8201168201806040525081019061189691906148ea565b507f74545154aac348a3eac92596bd1971957ca94795f4e954ec5f613b55fab781298282604051610e01929190614bc2565b600d5481565b60105481565b6118dc613b4b565b6001600160a01b03166118ed611e0e565b6001600160a01b0316146119135760405162461bcd60e51b815260040161099d90615305565b600b5443106119345760405162461bcd60e51b815260040161099d90615592565b8060095411156119565760405162461bcd60e51b815260040161099d906155c1565b8043106119755760405162461bcd60e51b815260040161099d90614f02565b600b8190556040517f262ce5e14c2c9659a43ec74362996b8d47a145b1e362b9c572cf22bfe9f0974b906119aa90839061576e565b60405180910390a150565b6060600082516001600160401b038111156119e057634e487b7160e01b600052604160045260246000fd5b604051908082528060200260200182016040528015611a09578160200160208202803683370190505b50905060005b8351811015610cda5760166000858381518110611a3c57634e487b7160e01b600052603260045260246000fd5b60200260200101516001600160a01b03166001600160a01b0316815260200190815260200160002054828281518110611a8557634e487b7160e01b600052603260045260246000fd5b602090810291909101015280611a9a816159e5565b915050611a0f565b601a546001600160a01b031681565b60125481565b60026001541415611ada5760405162461bcd60e51b815260040161099d90615606565b600260019081553360009081526019602052604090206003810154909114611b145760405162461bcd60e51b815260040161099d90614f7c565b601f546004820154611b26904361597c565b1015611b445760405162461bcd60e51b815260040161099d90615110565b601b54611b635760405162461bcd60e51b815260040161099d906151e0565b60026003820155601a54600090611b82906001600160a01b031661451f565b90506000601b600081548110611ba857634e487b7160e01b600052603260045260246000fd5b90600052602060002001549050816001600160a01b03166342842e0e3033846040518463ffffffff1660e01b8152600401611be593929190614b9e565b600060405180830381600087803b158015611bff57600080fd5b505af1158015611c13573d6000803e3d6000fd5b5050601b8054909250611c29915060019061597c565b81548110611c4757634e487b7160e01b600052603260045260246000fd5b9060005260206000200154601b600081548110611c7457634e487b7160e01b600052603260045260246000fd5b600091825260209091200155601b805480611c9f57634e487b7160e01b600052603160045260246000fd5b600082815260208120820160001990810191909155019055601a546040516001600160a01b039091169033907f040389a73767c5f67f650d528d0035127f2e7464d82519881f3af541d2f5ce5c90611cf890859061576e565b60405180910390a350506001805550565b60086020526000908152604090205481565b6001600160a01b031660009081526019602052604090206003015490565b6001600160a01b031660009081526002602052604090205490565b611d5c613b4b565b6001600160a01b0316611d6d611e0e565b6001600160a01b031614611d935760405162461bcd60e51b815260040161099d90615305565b611d9d6000614522565b565b60178181548110611daf57600080fd5b6000918252602090912001546001600160a01b0316905081565b611dd1613b4b565b6001600160a01b0316611de2611e0e565b6001600160a01b031614611e085760405162461bcd60e51b815260040161099d90615305565b43600f55565b6000546001600160a01b031690565b600754600160a01b900460ff1681565b611e35613b4b565b6001600160a01b0316611e46611e0e565b6001600160a01b031614611e6c5760405162461bcd60e51b815260040161099d90615305565b6010544310611e8d5760405162461bcd60e51b815260040161099d90614ed8565b600080611e9b836017613c03565b9150915081611ebc5760405162461bcd60e51b815260040161099d90615242565b6001600160a01b03831660009081526015602052604090819020859055517f27294c6fc8caeb45b3e5a0afcc3c67ed74d9d5b89140f30d751fc44928aff4e490611f099086908690615777565b60405180910390a150505050565b611f1f613b4b565b6001600160a01b0316611f30611e0e565b6001600160a01b031614611f565760405162461bcd60e51b815260040161099d90615305565b6010544310611f775760405162461bcd60e51b815260040161099d90614ed8565b808210611f965760405162461bcd60e51b815260040161099d906150c2565b814310611fb55760405162461bcd60e51b815260040161099d9061526d565b816009541115611fd75760405162461bcd60e51b815260040161099d90614d03565b80600a541115611ff95760405162461bcd60e51b815260040161099d90614daf565b6010829055600f81905560118290556040517f7cd0ab87d19036f3dfadadb232c78aa4879dda3f0c994a9d637532410ee2ce0690610e01908490849061578e565b6060600680546108bd906159aa565b612051613b4b565b6001600160a01b0316612062611e0e565b6001600160a01b0316146120885760405162461bcd60e51b815260040161099d90615305565b60145460ff166120aa5760405162461bcd60e51b815260040161099d9061563d565b6018546040516370a0823160e01b815282916001600160a01b0316906370a08231906120da903090600401614b8a565b60206040518083038186803b1580156120f257600080fd5b505afa158015612106573d6000803e3d6000fd5b505050506040513d601f19601f8201168201806040525081019061212a9190614a9a565b10156121485760405162461bcd60e51b815260040161099d9061555b565b80156121d25760185460405163a9059cbb60e01b81526001600160a01b039091169063a9059cbb906121809033908590600401614bc2565b602060405180830381600087803b15801561219a57600080fd5b505af11580156121ae573d6000803e3d6000fd5b505050506040513d601f19601f8201168201806040525081019061153b91906148ea565b50565b60008060006121e5846017613c03565b91509150816121f957600092505050610958565b6001600160a01b0380861660009081526019602052604080822060185491516370a0823160e01b8152909391909116906370a082319061223d903090600401614b8a565b60206040518083038186803b15801561225557600080fd5b505afa158015612269573d6000803e3d6000fd5b505050506040513d601f19601f8201168201806040525081019061228d9190614a9a565b90506000601154431180156122a157508115155b1561237c5760006122b460115443614572565b6001600160a01b038916600090815260156020526040812054919250906122dc908390613f8f565b6001600160a01b038a166000908152601660205260408120549192509061232d9061230e90879061102e908690613f8f565b6001600160a01b038c16600090815260086020526040902054906145ac565b6001600160a01b038b166000908152600288016020908152604080832054601690925290912054885492935061236c92611034919061102e9086613f8f565b9850610958975050505050505050565b6001600160a01b03871660009081526002840160209081526040808320546016835281842054600890935292205485546123c0939261103492909161102e91613f8f565b95505050505050610958565b6123d4613b4b565b6001600160a01b03166123e5611e0e565b6001600160a01b03161461240b5760405162461bcd60e51b815260040161099d90615305565b600754600160a01b900460ff166124345760405162461bcd60e51b815260040161099d9061533a565b8115612444576012819055612461565b6007805460ff60a01b1916600160a01b8415150217905560006012555b7f241f67ee5f41b7a5cabf911367329be7215900f602ebfc47f89dce2a6bcd847c601254604051610e01919061576e565b600080600360006124a1613b4b565b6001600160a01b03908116825260208083019390935260409182016000908120918816815292529020549050828110156124ed5760405162461bcd60e51b815260040161099d90615699565b6125016124f8613b4b565b85858403613b4f565b5060019392505050565b600754600160a81b900460ff1681565b612523613b4b565b6001600160a01b0316612534611e0e565b6001600160a01b03161461255a5760405162461bcd60e51b815260040161099d90615305565b600d55565b600061095461256c613b4b565b8484613c90565b60115481565b600a5490565b601d5481565b6060600082516001600160401b038111156125b057634e487b7160e01b600052604160045260246000fd5b6040519080825280602002602001820160405280156125d9578160200160208202803683370190505b50905060005b8351811015610cda576015600085838151811061260c57634e487b7160e01b600052603260045260246000fd5b60200260200101516001600160a01b03166001600160a01b031681526020019081526020016000205482828151811061265557634e487b7160e01b600052603260045260246000fd5b60209081029190910101528061266a816159e5565b9150506125df565b6007546001600160a01b031681565b600260015414156126a45760405162461bcd60e51b815260040161099d90615606565b60026001553360009081526019602052604090206009544310156126da5760405162461bcd60e51b815260040161099d9061508b565b43600a5410156126fc5760405162461bcd60e51b815260040161099d90615060565b600754600160a81b900460ff16156127bf576018546040516370a0823160e01b81526000916001600160a01b0316906370a082319061273f903090600401614b8a565b60206040518083038186803b15801561275757600080fd5b505afa15801561276b573d6000803e3d6000fd5b505050506040513d601f19601f8201168201806040525081019061278f9190614a9a565b60135490915061279f84836145ac565b11156127bd5760405162461bcd60e51b815260040161099d90614eae565b505b600754600160a01b900460ff16156127ff5760125481546127e19084906145ac565b11156127ff5760405162461bcd60e51b815260040161099d906153d7565b612807613dba565b805415612913576000805b6017548110156129105761284683600201600060178481548110610f5f57634e487b7160e01b600052603260045260246000fd5b915081156128fe576017818154811061286f57634e487b7160e01b600052603260045260246000fd5b60009182526020909120015460405163a9059cbb60e01b81526001600160a01b039091169063a9059cbb906128aa9033908690600401614bc2565b602060405180830381600087803b1580156128c457600080fd5b505af11580156128d8573d6000803e3d6000fd5b505050506040513d601f19601f820116820180604052508101906128fc91906148ea565b505b80612908816159e5565b915050612812565b50505b81156129b857805461292590836145ac565b81556018546040516323b872dd60e01b81526001600160a01b03909116906323b872dd9061295b90339030908790600401614b9e565b602060405180830381600087803b15801561297557600080fd5b505af1158015612989573d6000803e3d6000fd5b505050506040513d601f19601f820116820180604052508101906129ad91906148ea565b506129b833836145b8565b60005b601754811015612ac957612a6b60166000601784815481106129ed57634e487b7160e01b600052603260045260246000fd5b60009182526020808320909101546001600160a01b0316835282019290925260400181205460178054919261102e926008929087908110612a3e57634e487b7160e01b600052603260045260246000fd5b60009182526020808320909101546001600160a01b03168352820192909252604001902054855490613f8f565b82600201600060178481548110612a9257634e487b7160e01b600052603260045260246000fd5b60009182526020808320909101546001600160a01b0316835282019290925260400190205580612ac1816159e5565b9150506129bb565b506000601d54118015612adf5750601d54815410155b8015612afa5750601f5443600f54612af7919061597c565b10155b8015612b0857506003810154155b15612b8357436004820155601b54601c541015612b405760016003820155601c8054906000612b36836159e5565b9190505550612b83565b601e80546001810182556000919091527f50bb669a95c7b50b7e8a6f09454034b2b14cf2b85c730dca9a539ca82cb6e3500180546001600160a01b031916331790555b43600182015560405133907fe1fffcc4923d04b559f4d29a8bfc6cda04eb5b0d3c460751c2402c5c5cc9109c90612bbb90859061576e565b60405180910390a2505060018055565b60135481565b600c5490565b600e546001600160a01b031681565b6018546001600160a01b031681565b612bfd613b4b565b6001600160a01b0316612c0e611e0e565b6001600160a01b031614612c345760405162461bcd60e51b815260040161099d90615305565b600e546001600160a01b0382811691161415612c625760405162461bcd60e51b815260040161099d9061535f565b600e80546001600160a01b0319166001600160a01b0392909216919091179055565b60026001541415612ca75760405162461bcd60e51b815260040161099d90615606565b600260019081553360009081526019602052604081208054918155600381015490921415612cf357601c8054906000612cdf83615993565b909155505060006003830181905560048301555b60005b601754811015612d6057600083600201600060178481548110612d2957634e487b7160e01b600052603260045260246000fd5b60009182526020808320909101546001600160a01b0316835282019290925260400190205580612d58816159e5565b915050612cf6565b508015612d7e57601854612d7e906001600160a01b03163383613fa7565b815460405133917f5fafa99d0643513820be26656b45130b01e1c03062e1266bf36f88cbd3bd969591612bbb919061576e565b612db9613b4b565b6001600160a01b0316612dca611e0e565b6001600160a01b031614612df05760405162461bcd60e51b815260040161099d90615305565b601054821115612e125760405162461bcd60e51b815260040161099d90614d03565b600b54821115612e345760405162461bcd60e51b815260040161099d906155c1565b814310612e535760405162461bcd60e51b815260040161099d9061518e565b808210612e725760405162461bcd60e51b815260040161099d90615147565b600f54811115612e945760405162461bcd60e51b815260040161099d90614daf565b6009829055600a8190556040517f8828b38a61bb0956be8f1bce300a8bebc12342263b6603b8d3aee677b815a34890610e01908490849061578e565b6001600160a01b03918216600090815260036020908152604080832093909416825291909152205490565b600754600160b01b900460ff1615612f255760405162461bcd60e51b815260040161099d9061552e565b6007546001600160a01b03163314612f4f5760405162461bcd60e51b815260040161099d90615674565b89518b5114612f705760405162461bcd60e51b815260040161099d90615745565b6001600160a01b038c16612f965760405162461bcd60e51b815260040161099d90614d44565b6001600160a01b038516612fbc5760405162461bcd60e51b815260040161099d90614d44565b6001600160a01b038116612fe25760405162461bcd60e51b815260040161099d90614d44565b6007805460ff60b01b1916600160b01b179055601880546001600160a01b038e166001600160a01b03199091161790558a516130259060179060208e0190614680565b508860008151811061304757634e487b7160e01b600052603260045260246000fd5b60200260200101516010819055508860018151811061307657634e487b7160e01b600052603260045260246000fd5b6020026020010151600f81905550876001815181106130a557634e487b7160e01b600052603260045260246000fd5b6020026020010151886000815181106130ce57634e487b7160e01b600052603260045260246000fd5b6020026020010151106130f35760405162461bcd60e51b815260040161099d90615147565b8760008151811061311457634e487b7160e01b600052603260045260246000fd5b60200260200101516009819055508760018151811061314357634e487b7160e01b600052603260045260246000fd5b6020026020010151600a8190555086600b819055508560008151811061317957634e487b7160e01b600052603260045260246000fd5b6020026020010151600c81905550856001815181106131a857634e487b7160e01b600052603260045260246000fd5b6020908102919091010151600d55600e80546001600160a01b0319166001600160a01b0387161790556014805460ff191683151517905583156131fe576007805460ff60a01b1916600160a01b17905560128490555b821561321d576007805460ff60a81b1916600160a81b17905560138390555b6000805b8c518110156133d8578c818151811061324a57634e487b7160e01b600052603260045260246000fd5b60200260200101516001600160a01b031663313ce5676040518163ffffffff1660e01b815260040160206040518083038186803b15801561328a57600080fd5b505afa15801561329e573d6000803e3d6000fd5b505050506040513d601f19601f820116820180604052508101906132c29190614af7565b60ff169150601e82106132e75760405162461bcd60e51b815260040161099d90615715565b6132f2601e83613c84565b6132fd90600a61588f565b601660008f848151811061332157634e487b7160e01b600052603260045260246000fd5b60200260200101516001600160a01b03166001600160a01b03168152602001908152602001600020819055508b818151811061336d57634e487b7160e01b600052603260045260246000fd5b6020026020010151601560008f848151811061339957634e487b7160e01b600052603260045260246000fd5b60200260200101516001600160a01b03166001600160a01b031681526020019081526020016000208190555080806133d0906159e5565b915050613221565b506010546011556000601c556133ed826135ae565b50505050505050505050505050565b60608060006017805490506001600160401b0381111561342c57634e487b7160e01b600052604160045260246000fd5b604051908082528060200260200182016040528015613455578160200160208202803683370190505b506001600160a01b03851660009081526019602052604081209192505b60175481101561350757816002016000601783815481106134a357634e487b7160e01b600052603260045260246000fd5b60009182526020808320909101546001600160a01b0316835282019290925260400190205483518490839081106134ea57634e487b7160e01b600052603260045260246000fd5b6020908102919091010152806134ff816159e5565b915050613472565b506017828180548060200260200160405190810160405280929190818152602001828054801561356057602002820191906000526020600020905b81546001600160a01b03168152600190910190602001808311613542575b505050505091509350935050505b915091565b600d5490565b600c5481565b6001600160a01b0391821660009081526019602090815260408083209390941682526002909201909152205490565b6135b6613b4b565b6001600160a01b03166135c7611e0e565b6001600160a01b0316146135ed5760405162461bcd60e51b815260040161099d90615305565b6001600160a01b0381166136135760405162461bcd60e51b815260040161099d90614df8565b6121d281614522565b6001600160a01b0380821660009081526019602052604080822060185491516370a0823160e01b81526060948594929316906370a0823190613662903090600401614b8a565b60206040518083038186803b15801561367a57600080fd5b505afa15801561368e573d6000803e3d6000fd5b505050506040513d601f19601f820116820180604052508101906136b29190614a9a565b6017549091506000906001600160401b038111156136e057634e487b7160e01b600052604160045260246000fd5b604051908082528060200260200182016040528015613709578160200160208202803683370190505b5090506011544311801561371c57508115155b1561399c57600061372f60115443614572565b905060008060005b60175481101561392d57613795601560006017848154811061376957634e487b7160e01b600052603260045260246000fd5b60009182526020808320909101546001600160a01b031683528201929092526040019020548590613f8f565b92506138426137f28761102e60166000601787815481106137c657634e487b7160e01b600052603260045260246000fd5b60009182526020808320909101546001600160a01b031683528201929092526040019020548790613f8f565b600860006017858154811061381757634e487b7160e01b600052603260045260246000fd5b60009182526020808320909101546001600160a01b03168352820192909252604001902054906145ac565b91506138f08760020160006017848154811061386e57634e487b7160e01b600052603260045260246000fd5b60009182526020808320909101546001600160a01b031683528201929092526040018120546017805491926110349260169290879081106138bf57634e487b7160e01b600052603260045260246000fd5b60009182526020808320909101546001600160a01b031683528201929092526040019020548a5461102e9087613f8f565b85828151811061391057634e487b7160e01b600052603260045260246000fd5b602090810291909101015280613925816159e5565b915050613737565b508360178080548060200260200160405190810160405280929190818152602001828054801561398657602002820191906000526020600020905b81546001600160a01b03168152600190910190602001808311613968575b505050505090509750975050505050505061356e565b60005b601754811015613adf57613aa2846002016000601784815481106139d357634e487b7160e01b600052603260045260246000fd5b60009182526020808320909101546001600160a01b03168352820192909252604001812054601780549192611034926016929087908110613a2457634e487b7160e01b600052603260045260246000fd5b60009182526020808320909101546001600160a01b0316835282019290925260400181205460178054919261102e926008929089908110613a7557634e487b7160e01b600052603260045260246000fd5b60009182526020808320909101546001600160a01b03168352820192909252604001902054895490613f8f565b828281518110613ac257634e487b7160e01b600052603260045260246000fd5b602090810291909101015280613ad7816159e5565b91505061399f565b5080601780805480602002602001604051908101604052809291908181526020018280548015613b3857602002820191906000526020600020905b81546001600160a01b03168152600190910190602001808311613b1a575b505050505090509450945050505061356e565b3390565b6001600160a01b038316613b755760405162461bcd60e51b815260040161099d906154ba565b6001600160a01b038216613b9b5760405162461bcd60e51b815260040161099d90614e3e565b6001600160a01b0380841660008181526003602090815260408083209487168084529490915290819020849055517f8c5be1e5ebec7d5bd14f71427d1e84f3dd0314c0f7b2291e5b200ac8c7c3b92590613bf690859061576e565b60405180910390a3505050565b60008060005b8354811015613c7457846001600160a01b0316848281548110613c3c57634e487b7160e01b600052603260045260246000fd5b6000918252602090912001546001600160a01b03161415613c6257600192509050613c7d565b80613c6c816159e5565b915050613c09565b50600080915091505b9250929050565b6000610e98828461597c565b6001600160a01b038316613cb65760405162461bcd60e51b815260040161099d9061540e565b6001600160a01b038216613cdc5760405162461bcd60e51b815260040161099d90614cc0565b613ce783838361422a565b6001600160a01b03831660009081526002602052604090205481811015613d205760405162461bcd60e51b815260040161099d90614fb3565b6001600160a01b03808516600090815260026020526040808220858503905591851681529081208054849290613d57908490615811565b92505081905550826001600160a01b0316846001600160a01b03167fddf252ad1be2c89b69c2b068fc378daa952ba7f163c4a11628f55a4df523b3ef84604051613da1919061576e565b60405180910390a3613db484848461422a565b50505050565b6011544311613dc857611d9d565b6018546040516370a0823160e01b81526000916001600160a01b0316906370a0823190613df9903090600401614b8a565b60206040518083038186803b158015613e1157600080fd5b505afa158015613e25573d6000803e3d6000fd5b505050506040513d601f19601f82011682018060405250810190613e499190614a9a565b905080613e5a575043601155611d9d565b6000613e6860115443614572565b90506000805b601754811015613f8557613ecc6015600060178481548110613ea057634e487b7160e01b600052603260045260246000fd5b60009182526020808320909101546001600160a01b031683528201929092526040019020548490613f8f565b9150613f296137f28561102e6016600060178781548110613efd57634e487b7160e01b600052603260045260246000fd5b60009182526020808320909101546001600160a01b031683528201929092526040019020548690613f8f565b6008600060178481548110613f4e57634e487b7160e01b600052603260045260246000fd5b60009182526020808320909101546001600160a01b0316835282019290925260400190205580613f7d816159e5565b915050613e6e565b5050436011555050565b6000610e98828461595d565b6000610e988284615829565b6040516370a0823160e01b81526000906001600160a01b038516906370a0823190613fd6903090600401614b8a565b60206040518083038186803b158015613fee57600080fd5b505afa158015614002573d6000803e3d6000fd5b505050506040513d601f19601f820116820180604052508101906140269190614a9a565b9050808211156140b65760405163a9059cbb60e01b81526001600160a01b0385169063a9059cbb9061405e9086908590600401614bc2565b602060405180830381600087803b15801561407857600080fd5b505af115801561408c573d6000803e3d6000fd5b505050506040513d601f19601f820116820180604052508101906140b091906148ea565b50613db4565b60405163a9059cbb60e01b81526001600160a01b0385169063a9059cbb906140e49086908690600401614bc2565b602060405180830381600087803b1580156140fe57600080fd5b505af1158015614112573d6000803e3d6000fd5b505050506040513d601f19601f8201168201806040525081019061413691906148ea565b5050505050565b6001600160a01b0382166141635760405162461bcd60e51b815260040161099d90615396565b61416f8260008361422a565b6001600160a01b038216600090815260026020526040902054818110156141a85760405162461bcd60e51b815260040161099d90614d6d565b6001600160a01b03831660009081526002602052604081208383039055600480548492906141d790849061597c565b90915550506040516000906001600160a01b038516907fddf252ad1be2c89b69c2b068fc378daa952ba7f163c4a11628f55a4df523b3ef9061421a90869061576e565b60405180910390a361422a836000845b505050565b600080614249836001015443613c8490919063ffffffff16565b9050600f5443111580156142765750600d54158061427657506000600d54118015614276575080600d5410155b1561433657600061429861271061102e600c5488613f8f90919063ffffffff16565b601854600e5460405163a9059cbb60e01b81529293506001600160a01b039182169263a9059cbb926142d09216908590600401614bc2565b602060405180830381600087803b1580156142ea57600080fd5b505af11580156142fe573d6000803e3d6000fd5b505050506040513d601f19601f8201168201806040525081019061432291906148ea565b5061432d8582613c84565b92505050610958565b509192915050565b805460009060609084106143b457600083808054806020026020016040519081016040528092919081815260200182805480156143a457602002820191906000526020600020905b81546001600160a01b03168152600190910190602001808311614386575b5050505050905091509150613c7d565b835b83546143c49060019061597c565b81101561446e57836143d7826001615811565b815481106143f557634e487b7160e01b600052603260045260246000fd5b9060005260206000200160009054906101000a90046001600160a01b031684828154811061443357634e487b7160e01b600052603260045260246000fd5b600091825260209091200180546001600160a01b0319166001600160a01b039290921691909117905580614466816159e5565b9150506143b6565b508280548061448d57634e487b7160e01b600052603160045260246000fd5b6001900381819060005260206000200160006101000a8154906001600160a01b03021916905590556001838080548060200260200160405190810160405280929190818152602001828054801561450d57602002820191906000526020600020905b81546001600160a01b031681526001909101906020018083116144ef575b50505050509050915091509250929050565b90565b600080546001600160a01b038381166001600160a01b0319831681178455604051919092169283917f8be0079c531659141344cd1fd0a4f28419497f9722a3daafe3b4186f6b6457e09190a35050565b6000600f54821161458e576145878284613c84565b9050610958565b600f54831061459f57506000610958565b600f546145879084613c84565b6000610e988284615811565b6001600160a01b0382166145de5760405162461bcd60e51b815260040161099d906156de565b6145ea6000838361422a565b80600460008282546145fc9190615811565b90915550506001600160a01b03821660009081526002602052604081208054839290614629908490615811565b90915550506040516001600160a01b038316906000907fddf252ad1be2c89b69c2b068fc378daa952ba7f163c4a11628f55a4df523b3ef9061466c90859061576e565b60405180910390a361153b6000838361422a565b8280548282559060005260206000209081019282156146d5579160200282015b828111156146d557825182546001600160a01b0319166001600160a01b039091161782556020909201916001909101906146a0565b506146e19291506146e5565b5090565b5b808211156146e157600081556001016146e6565b80356108a981615a2c565b600082601f830112614715578081fd5b8135602061472a614725836157ee565b6157c5565b8281528181019085830183850287018401881015614746578586fd5b855b8581101561476d57813561475b81615a2c565b84529284019290840190600101614748565b5090979650505050505050565b600082601f83011261478a578081fd5b8135602061479a614725836157ee565b82815281810190858301838502870184018810156147b6578586fd5b855b8581101561476d578135845292840192908401906001016147b8565b80356108a981615a41565b6000602082840312156147f0578081fd5b8135610e9881615a2c565b6000806040838503121561480d578081fd5b823561481881615a2c565b9150602083013561482881615a2c565b809150509250929050565b600080600060608486031215614847578081fd5b833561485281615a2c565b9250602084013561486281615a2c565b929592945050506040919091013590565b6000806040838503121561480d578182fd5b60008060408385031215614897578182fd5b82356148a281615a2c565b946020939093013593505050565b6000602082840312156148c1578081fd5b81356001600160401b038111156148d6578182fd5b6148e284828501614705565b949350505050565b6000602082840312156148fb578081fd5b8151610e9881615a41565b60008060408385031215614918578182fd5b82356148a281615a41565b6000806000806000806000806000806000806101808d8f031215614945578788fd5b61494e8d6146fa565b9b506001600160401b0360208e01351115614967578788fd5b6149778e60208f01358f01614705565b9a506001600160401b0360408e01351115614990578788fd5b6149a08e60408f01358f0161477a565b99506001600160401b0360608e013511156149b9578788fd5b6149c98e60608f01358f0161477a565b98506001600160401b0360808e013511156149e2578788fd5b6149f28e60808f01358f0161477a565b975060a08d013596506001600160401b0360c08e01351115614a12578586fd5b614a228e60c08f01358f0161477a565b9550614a3060e08e016146fa565b94506101008d013593506101208d01359250614a4f6101408e016147d4565b9150614a5e6101608e016146fa565b90509295989b509295989b509295989b565b60008060408385031215614897578081fd5b600060208284031215614a93578081fd5b5035919050565b600060208284031215614aab578081fd5b5051919050565b60008060408385031215614ac4578182fd5b82359150602083013561482881615a2c565b60008060408385031215614ae8578182fd5b50508035926020909101359150565b600060208284031215614b08578081fd5b815160ff81168114610e98578182fd5b6000815180845260208085019450808401835b83811015614b505781516001600160a01b031687529582019590820190600101614b2b565b509495945050505050565b6000815180845260208085019450808401835b83811015614b5057815187529582019590820190600101614b6e565b6001600160a01b0391909116815260200190565b6001600160a01b039384168152919092166020820152604081019190915260600190565b6001600160a01b03929092168252602082015260400190565b600060408252614bee6040830185614b18565b8281036020840152614c008185614b5b565b95945050505050565b600060208252610e986020830184614b5b565b600060408252614c2f6040830185614b5b565b8281036020840152614c008185614b18565b901515815260200190565b6001600160a01b039390931683526020830191909152604082015260600190565b6000602080835283518082850152825b81811015614c9957858101830151858201604001528201614c7d565b81811115614caa5783604083870101525b50601f01601f1916929092016040019392505050565b60208082526023908201527f45524332303a207472616e7366657220746f20746865207a65726f206164647260408201526265737360e81b606082015260800190565b60208082526021908201527f5374616b696e6720626c6f636b206578636565647320737461727420626c6f636040820152606b60f81b606082015260800190565b6020808252600f908201526e496e76616c6964206164647265737360881b604082015260600190565b60208082526022908201527f45524332303a206275726e20616d6f756e7420657863656564732062616c616e604082015261636560f01b606082015260800190565b60208082526029908201527f456e64207374616b696e6720626c6f636b206578636565647320626f6e757320604082015268656e6420626c6f636b60b81b606082015260800190565b60208082526026908201527f4f776e61626c653a206e6577206f776e657220697320746865207a65726f206160408201526564647265737360d01b606082015260800190565b60208082526022908201527f45524332303a20617070726f766520746f20746865207a65726f206164647265604082015261737360f01b606082015260800190565b60208082526014908201527326bab9ba1031329030903932b0b6103a37b5b2b760611b604082015260600190565b60208082526010908201526f141bdbdb0818d85c081c995858da195960821b604082015260600190565b60208082526010908201526f141bdbdb081a185cc81cdd185c9d195960821b604082015260600190565b60208082526034908201527f4e657720556e5374616b696e67426c6f636b206d75737420626520686967686560408201527372207468616e2063757272656e7420626c6f636b60601b606082015260800190565b6020808252600c908201526b546f6b656e2065786973747360a01b604082015260600190565b6020808252601d908201527f4164647265737320646f6e27742068617665204e465420726577617264000000604082015260600190565b60208082526026908201527f45524332303a207472616e7366657220616d6f756e7420657863656564732062604082015265616c616e636560d01b606082015260800190565b6020808252601690820152754c697374206f6620746f6b656e20697320656d70747960501b604082015260600190565b60208082526019908201527f556e7374616b696e6720686173206e6f74207374617274656400000000000000604082015260600190565b60208082526011908201527014dd185ada5b99c81a185cc8195b991959607a1b604082015260600190565b60208082526017908201527f5374616b696e6720686173206e6f742073746172746564000000000000000000604082015260600190565b6020808252602e908201527f4e6577207374617274426c6f636b206d757374206265206c6f7765722074686160408201526d6e206e657720656e64426c6f636b60901b606082015260800190565b6020808252601b908201527f5374616b696e6720686173206e6f7420656e6f7567682074696d650000000000604082015260600190565b60208082526027908201527f5374616b696e6720626c6f636b206578636565647320656e64207374616b696e6040820152666720626c6f636b60c81b606082015260800190565b60208082526032908201527f4e6577207374616b696e67426c6f636b206d75737420626520686967686572206040820152717468616e2063757272656e7420626c6f636b60701b606082015260800190565b602080825260119082015270139bc813919508199bdc881c995dd85c99607a1b604082015260600190565b6020808252601b908201527f52656d6f766520746f6b656e20756e7375636365737366756c6c790000000000604082015260600190565b60208082526011908201527021b0b73737ba103334b732103a37b5b2b760791b604082015260600190565b60208082526030908201527f4e6577207374617274426c6f636b206d7573742062652068696768657220746860408201526f616e2063757272656e7420626c6f636b60801b606082015260800190565b60208082526028908201527f45524332303a207472616e7366657220616d6f756e74206578636565647320616040820152676c6c6f77616e636560c01b606082015260800190565b6020808252818101527f4f776e61626c653a2063616c6c6572206973206e6f7420746865206f776e6572604082015260600190565b6020808252600b908201526a135d5cdd081899481cd95d60aa1b604082015260600190565b60208082526019908201527f416c7265616479207468652066656520636f6c6c6563746f7200000000000000604082015260600190565b60208082526021908201527f45524332303a206275726e2066726f6d20746865207a65726f206164647265736040820152607360f81b606082015260800190565b60208082526017908201527f5573657220616d6f756e742061626f7665206c696d6974000000000000000000604082015260600190565b60208082526025908201527f45524332303a207472616e736665722066726f6d20746865207a65726f206164604082015264647265737360d81b606082015260800190565b60208082526016908201527521b0b73737ba103132903932bbb0b932103a37b5b2b760511b604082015260600190565b6020808252601b908201527f416d6f756e7420746f20776974686472617720746f6f20686967680000000000604082015260600190565b60208082526024908201527f45524332303a20617070726f76652066726f6d20746865207a65726f206164646040820152637265737360e01b606082015260800190565b60208082526016908201527521b0b73737ba1031329039ba30b5b2b2103a37b5b2b760511b604082015260600190565b602080825260139082015272105b1c9958591e481a5b9a5d1a585b1a5e9959606a1b604082015260600190565b6020808252601b908201527f416d6f756e74206578636565647320706f6f6c2062616c616e63650000000000604082015260600190565b602080825260159082015274155b9cdd185ada5b99c81a185cc81cdd185c9d1959605a1b604082015260600190565b60208082526025908201527f5374616b696e6720626c6f636b206578636565647320756e7374616b696e6720604082015264626c6f636b60d81b606082015260800190565b6020808252601f908201527f5265656e7472616e637947756172643a207265656e7472616e742063616c6c00604082015260600190565b60208082526019908201527f54686520706f6f6c206973206e6f742072656d6f7661626c6500000000000000604082015260600190565b6020808252600b908201526a4e6f7420666163746f727960a81b604082015260600190565b60208082526025908201527f45524332303a2064656372656173656420616c6c6f77616e63652062656c6f77604082015264207a65726f60d81b606082015260800190565b6020808252601f908201527f45524332303a206d696e7420746f20746865207a65726f206164647265737300604082015260600190565b60208082526016908201527504d75737420626520696e666572696f7220746f2033360541b604082015260600190565b6020808252600f908201526e09ad2e6dac2e8c6d040d8cadccee8d608b1b604082015260600190565b90815260200190565b9182526001600160a01b0316602082015260400190565b918252602082015260400190565b93845260208401929092526040830152606082015260800190565b60ff91909116815260200190565b6040518181016001600160401b03811182821017156157e6576157e6615a16565b604052919050565b60006001600160401b0382111561580757615807615a16565b5060209081020190565b6000821982111561582457615824615a00565b500190565b60008261584457634e487b7160e01b81526012600452602481fd5b500490565b80825b600180861161585b5750615886565b81870482111561586d5761586d615a00565b8086161561587a57918102915b9490941c93800261584c565b94509492505050565b6000610e9860001984846000826158a857506001610e98565b816158b557506000610e98565b81600181146158cb57600281146158d557615902565b6001915050610e98565b60ff8411156158e6576158e6615a00565b6001841b9150848211156158fc576158fc615a00565b50610e98565b5060208310610133831016604e8410600b8410161715615935575081810a8381111561593057615930615a00565b610e98565b6159428484846001615849565b80860482111561595457615954615a00565b02949350505050565b600081600019048311821515161561597757615977615a00565b500290565b60008282101561598e5761598e615a00565b500390565b6000816159a2576159a2615a00565b506000190190565b6002810460018216806159be57607f821691505b602082108114156159df57634e487b7160e01b600052602260045260246000fd5b50919050565b60006000198214156159f9576159f9615a00565b5060010190565b634e487b7160e01b600052601160045260246000fd5b634e487b7160e01b600052604160045260246000fd5b6001600160a01b03811681146121d257600080fd5b80151581146121d257600080fdfea2646970667358221220ea47273dcf9f572e112f1d428279313a9d03b1f2462c582758dc01ab4d69bfa164736f6c63430008000033",
  "linkReferences": {},
  "deployedLinkReferences": {}
}