{
  "_format": "hh-sol-artifact-1",
  "contractName": "MStationTreasury",
  "sourceName": "contracts/treasury/MStationTreasury.sol",
  "abi": [
    {
      "anonymous": false,
      "inputs": [
        {
          "indexed": false,
          "internalType": "address",
          "name": "sender",
          "type": "address"
        },
        {
          "indexed": false,
          "internalType": "uint256",
          "name": "amount",
          "type": "uint256"
        }
      ],
      "name": "Deposited",
      "type": "event"
    },
    {
      "anonymous": false,
      "inputs": [
        {
          "indexed": true,
          "internalType": "address",
          "name": "previousOwner",
          "type": "address"
        },
        {
          "indexed": true,
          "internalType": "address",
          "name": "newOwner",
          "type": "address"
        }
      ],
      "name": "OwnershipTransferred",
      "type": "event"
    },
    {
      "anonymous": false,
      "inputs": [
        {
          "indexed": false,
          "internalType": "address",
          "name": "sender",
          "type": "address"
        },
        {
          "indexed": false,
          "internalType": "uint256",
          "name": "amount",
          "type": "uint256"
        }
      ],
      "name": "Rescued",
      "type": "event"
    },
    {
      "anonymous": false,
      "inputs": [
        {
          "indexed": false,
          "internalType": "address",
          "name": "token1",
          "type": "address"
        },
        {
          "indexed": false,
          "internalType": "address",
          "name": "token2",
          "type": "address"
        }
      ],
      "name": "SetTokenAddress",
      "type": "event"
    },
    {
      "anonymous": false,
      "inputs": [
        {
          "indexed": false,
          "internalType": "address",
          "name": "receiver",
          "type": "address"
        },
        {
          "indexed": false,
          "internalType": "uint256",
          "name": "amount",
          "type": "uint256"
        }
      ],
      "name": "Swapped",
      "type": "event"
    },
    {
      "inputs": [],
      "name": "bscsTokenAddress",
      "outputs": [
        {
          "internalType": "address",
          "name": "",
          "type": "address"
        }
      ],
      "stateMutability": "view",
      "type": "function"
    },
    {
      "inputs": [],
      "name": "depositMST",
      "outputs": [],
      "stateMutability": "nonpayable",
      "type": "function"
    },
    {
      "inputs": [
        {
          "internalType": "uint256",
          "name": "_amount",
          "type": "uint256"
        },
        {
          "internalType": "address[]",
          "name": "_path",
          "type": "address[]"
        }
      ],
      "name": "estimatePrice",
      "outputs": [
        {
          "internalType": "uint256",
          "name": "amountOut",
          "type": "uint256"
        }
      ],
      "stateMutability": "view",
      "type": "function"
    },
    {
      "inputs": [
        {
          "internalType": "uint256",
          "name": "_amountIn",
          "type": "uint256"
        }
      ],
      "name": "estimateSwap",
      "outputs": [
        {
          "internalType": "uint256",
          "name": "amountOut",
          "type": "uint256"
        }
      ],
      "stateMutability": "view",
      "type": "function"
    },
    {
      "inputs": [
        {
          "internalType": "uint256",
          "name": "_mstMonthlyEmission",
          "type": "uint256"
        },
        {
          "internalType": "address",
          "name": "_router",
          "type": "address"
        },
        {
          "internalType": "address",
          "name": "_mstTokenAddress",
          "type": "address"
        },
        {
          "internalType": "address",
          "name": "_bscsTokenAddress",
          "type": "address"
        },
        {
          "internalType": "address[]",
          "name": "_pathSwap",
          "type": "address[]"
        }
      ],
      "name": "initialize",
      "outputs": [],
      "stateMutability": "nonpayable",
      "type": "function"
    },
    {
      "inputs": [],
      "name": "mstIssued",
      "outputs": [
        {
          "internalType": "uint256",
          "name": "",
          "type": "uint256"
        }
      ],
      "stateMutability": "view",
      "type": "function"
    },
    {
      "inputs": [],
      "name": "mstMonthlyEmission",
      "outputs": [
        {
          "internalType": "uint256",
          "name": "",
          "type": "uint256"
        }
      ],
      "stateMutability": "view",
      "type": "function"
    },
    {
      "inputs": [],
      "name": "mstTokenAddress",
      "outputs": [
        {
          "internalType": "address",
          "name": "",
          "type": "address"
        }
      ],
      "stateMutability": "view",
      "type": "function"
    },
    {
      "inputs": [],
      "name": "owner",
      "outputs": [
        {
          "internalType": "address",
          "name": "",
          "type": "address"
        }
      ],
      "stateMutability": "view",
      "type": "function"
    },
    {
      "inputs": [],
      "name": "pause",
      "outputs": [
        {
          "internalType": "bool",
          "name": "",
          "type": "bool"
        }
      ],
      "stateMutability": "view",
      "type": "function"
    },
    {
      "inputs": [],
      "name": "renounceOwnership",
      "outputs": [],
      "stateMutability": "nonpayable",
      "type": "function"
    },
    {
      "inputs": [
        {
          "internalType": "address",
          "name": "_token",
          "type": "address"
        }
      ],
      "name": "rescueStuckErc20",
      "outputs": [],
      "stateMutability": "nonpayable",
      "type": "function"
    },
    {
      "inputs": [],
      "name": "router",
      "outputs": [
        {
          "internalType": "address",
          "name": "",
          "type": "address"
        }
      ],
      "stateMutability": "view",
      "type": "function"
    },
    {
      "inputs": [
        {
          "internalType": "address[]",
          "name": "_pathSwap",
          "type": "address[]"
        }
      ],
      "name": "setPathAddress",
      "outputs": [],
      "stateMutability": "nonpayable",
      "type": "function"
    },
    {
      "inputs": [
        {
          "internalType": "bool",
          "name": "_pause",
          "type": "bool"
        }
      ],
      "name": "setPause",
      "outputs": [],
      "stateMutability": "nonpayable",
      "type": "function"
    },
    {
      "inputs": [
        {
          "internalType": "address",
          "name": "_router",
          "type": "address"
        }
      ],
      "name": "setRouterAddress",
      "outputs": [],
      "stateMutability": "nonpayable",
      "type": "function"
    },
    {
      "inputs": [
        {
          "internalType": "address",
          "name": "_mstTokenAddress",
          "type": "address"
        },
        {
          "internalType": "address",
          "name": "_bscsTokenAddress",
          "type": "address"
        }
      ],
      "name": "setTokenAddress",
      "outputs": [],
      "stateMutability": "nonpayable",
      "type": "function"
    },
    {
      "inputs": [
        {
          "internalType": "uint256",
          "name": "_amountIn",
          "type": "uint256"
        },
        {
          "internalType": "uint256",
          "name": "_amountOutMin",
          "type": "uint256"
        }
      ],
      "name": "swap",
      "outputs": [
        {
          "internalType": "uint256",
          "name": "amountOut",
          "type": "uint256"
        }
      ],
      "stateMutability": "nonpayable",
      "type": "function"
    },
    {
      "inputs": [
        {
          "internalType": "address",
          "name": "newOwner",
          "type": "address"
        }
      ],
      "name": "transferOwnership",
      "outputs": [],
      "stateMutability": "nonpayable",
      "type": "function"
    }
  ],
  "bytecode": "0x608060405234801561001057600080fd5b506129f7806100206000396000f3fe608060405234801561001057600080fd5b50600436106101515760003560e01c80638456cb59116100cd578063d96073cf11610081578063de1c3ac111610066578063de1c3ac1146102c5578063f2fde38b146102d8578063f887ea40146102eb57600080fd5b8063d96073cf14610292578063dad40d72146102a557600080fd5b80639015b15f116100b25780639015b15f14610264578063bedb86fb1461026c578063c7afe9f21461027f57600080fd5b80638456cb59146102295780638da5cb5b1461024657600080fd5b806341cb87fc11610124578063651e94c911610109578063651e94c914610205578063715018a61461020e57806381ca7eba1461021657600080fd5b806341cb87fc146101ad57806349abb7bf146101c057600080fd5b806308f319f9146101565780630eac16b51461017c57806321b6252f146101855780632dd887b61461019a575b600080fd5b610169610164366004612794565b61030b565b6040519081526020015b60405180910390f35b61016960995481565b610198610193366004612591565b610529565b005b6101696101a83660046126e7565b610624565b6101986101bb366004612545565b610855565b609b546101e09073ffffffffffffffffffffffffffffffffffffffff1681565b60405173ffffffffffffffffffffffffffffffffffffffff9091168152602001610173565b61016960985481565b61019861099a565b610198610224366004612545565b610a27565b6097546102369060ff1681565b6040519015158152602001610173565b60335473ffffffffffffffffffffffffffffffffffffffff166101e0565b610198610c69565b61019861027a3660046126af565b6110bf565b61019861028d36600461255f565b611171565b6101696102a03660046127de565b611378565b609a546101e09073ffffffffffffffffffffffffffffffffffffffff1681565b6101986102d3366004612717565b611a8e565b6101986102e6366004612545565b611c5e565b609c546101e09073ffffffffffffffffffffffffffffffffffffffff1681565b600081610379576040517f08c379a000000000000000000000000000000000000000000000000000000000815260206004820152600c60248201527f494e56414c49445f50415448000000000000000000000000000000000000000060448201526064015b60405180910390fd5b600084116103e3576040517f08c379a000000000000000000000000000000000000000000000000000000000815260206004820152601160248201527f494e56414c49445f414d4f554e545f494e0000000000000000000000000000006044820152606401610370565b609c546040517fd06ca61f00000000000000000000000000000000000000000000000000000000815260009173ffffffffffffffffffffffffffffffffffffffff169063d06ca61f9061043e908890889088906004016127ff565b60006040518083038186803b15801561045657600080fd5b505afa15801561046a573d6000803e3d6000fd5b505050506040513d6000823e601f3d9081017fffffffffffffffffffffffffffffffffffffffffffffffffffffffffffffffe01682016040526104b091908101906125d1565b90506105206103e861051a6103e384600186516104cd919061293e565b81518110610504577f4e487b7100000000000000000000000000000000000000000000000000000000600052603260045260246000fd5b6020026020010151611d8e90919063ffffffff16565b90611d9a565b95945050505050565b60335473ffffffffffffffffffffffffffffffffffffffff1633146105aa576040517f08c379a000000000000000000000000000000000000000000000000000000000815260206004820181905260248201527f4f776e61626c653a2063616c6c6572206973206e6f7420746865206f776e65726044820152606401610370565b609d54610613576040517f08c379a000000000000000000000000000000000000000000000000000000000815260206004820152600d60248201527f494e56414c49445f494e505554000000000000000000000000000000000000006044820152606401610370565b61061f609d8383612435565b505050565b60975460009060ff1615610694576040517f08c379a000000000000000000000000000000000000000000000000000000000815260206004820152600660248201527f50617573656400000000000000000000000000000000000000000000000000006044820152606401610370565b609d546106fd576040517f08c379a000000000000000000000000000000000000000000000000000000000815260206004820152600c60248201527f494e56414c49445f5041544800000000000000000000000000000000000000006044820152606401610370565b60008211610767576040517f08c379a000000000000000000000000000000000000000000000000000000000815260206004820152601160248201527f494e56414c49445f414d4f554e545f494e0000000000000000000000000000006044820152606401610370565b609c546040517fd06ca61f00000000000000000000000000000000000000000000000000000000815260009173ffffffffffffffffffffffffffffffffffffffff169063d06ca61f906107c1908690609d90600401612862565b60006040518083038186803b1580156107d957600080fd5b505afa1580156107ed573d6000803e3d6000fd5b505050506040513d6000823e601f3d9081017fffffffffffffffffffffffffffffffffffffffffffffffffffffffffffffffe016820160405261083391908101906125d1565b905061084e606461051a606384600186516104cd919061293e565b9392505050565b60335473ffffffffffffffffffffffffffffffffffffffff1633146108d6576040517f08c379a000000000000000000000000000000000000000000000000000000000815260206004820181905260248201527f4f776e61626c653a2063616c6c6572206973206e6f7420746865206f776e65726044820152606401610370565b73ffffffffffffffffffffffffffffffffffffffff8116610953576040517f08c379a000000000000000000000000000000000000000000000000000000000815260206004820152600d60248201527f494e56414c49445f494e505554000000000000000000000000000000000000006044820152606401610370565b609c80547fffffffffffffffffffffffff00000000000000000000000000000000000000001673ffffffffffffffffffffffffffffffffffffffff92909216919091179055565b60335473ffffffffffffffffffffffffffffffffffffffff163314610a1b576040517f08c379a000000000000000000000000000000000000000000000000000000000815260206004820181905260248201527f4f776e61626c653a2063616c6c6572206973206e6f7420746865206f776e65726044820152606401610370565b610a256000611da6565b565b60335473ffffffffffffffffffffffffffffffffffffffff163314610aa8576040517f08c379a000000000000000000000000000000000000000000000000000000000815260206004820181905260248201527f4f776e61626c653a2063616c6c6572206973206e6f7420746865206f776e65726044820152606401610370565b6040517f70a0823100000000000000000000000000000000000000000000000000000000815230600482015260009073ffffffffffffffffffffffffffffffffffffffff8316906370a082319060240160206040518083038186803b158015610b1057600080fd5b505afa158015610b24573d6000803e3d6000fd5b505050506040513d601f19601f82011682018060405250810190610b4891906126ff565b90508173ffffffffffffffffffffffffffffffffffffffff1663a9059cbb610b8560335473ffffffffffffffffffffffffffffffffffffffff1690565b6040517fffffffff0000000000000000000000000000000000000000000000000000000060e084901b16815273ffffffffffffffffffffffffffffffffffffffff909116600482015260248101849052604401602060405180830381600087803b158015610bf257600080fd5b505af1158015610c06573d6000803e3d6000fd5b505050506040513d601f19601f82011682018060405250810190610c2a91906126cb565b5060408051338152602081018390527f8aec0ce3dadffacf4b7a963e0fed1ff2e6151b4c95d4a65acafa9d129963040291015b60405180910390a15050565b60026065541415610cd6576040517f08c379a000000000000000000000000000000000000000000000000000000000815260206004820152601f60248201527f5265656e7472616e637947756172643a207265656e7472616e742063616c6c006044820152606401610370565b600260655560975460ff1615610d48576040517f08c379a000000000000000000000000000000000000000000000000000000000815260206004820152600660248201527f50617573656400000000000000000000000000000000000000000000000000006044820152606401610370565b609a546040517f70a0823100000000000000000000000000000000000000000000000000000000815230600482015260009173ffffffffffffffffffffffffffffffffffffffff16906370a082319060240160206040518083038186803b158015610db257600080fd5b505afa158015610dc6573d6000803e3d6000fd5b505050506040513d601f19601f82011682018060405250810190610dea91906126ff565b609a5490915060009073ffffffffffffffffffffffffffffffffffffffff166370a08231336040517fffffffff0000000000000000000000000000000000000000000000000000000060e084901b16815273ffffffffffffffffffffffffffffffffffffffff909116600482015260240160206040518083038186803b158015610e7357600080fd5b505afa158015610e87573d6000803e3d6000fd5b505050506040513d601f19601f82011682018060405250810190610eab91906126ff565b9050600082609954610ebd919061293e565b905080821015610f29576040517f08c379a000000000000000000000000000000000000000000000000000000000815260206004820152600f60248201527f494e56414c49445f42414c414e434500000000000000000000000000000000006044820152606401610370565b609a5460009073ffffffffffffffffffffffffffffffffffffffff166323b872dd336040517fffffffff0000000000000000000000000000000000000000000000000000000060e084901b16815273ffffffffffffffffffffffffffffffffffffffff909116600482015230602482015260448101859052606401602060405180830381600087803b158015610fbe57600080fd5b505af1158015610fd2573d6000803e3d6000fd5b505050506040513d601f19601f82011682018060405250810190610ff691906126cb565b90508061105f576040517f08c379a000000000000000000000000000000000000000000000000000000000815260206004820152600e60248201527f4445504f5349545f4641494c45440000000000000000000000000000000000006044820152606401610370565b60006098557f2da466a7b24304f47e87fa2e1e5a81b9831ce54fec19055ce277ca2f39ba42c4336040805173ffffffffffffffffffffffffffffffffffffffff9092168252602082018590520160405180910390a1505060016065555050565b60335473ffffffffffffffffffffffffffffffffffffffff163314611140576040517f08c379a000000000000000000000000000000000000000000000000000000000815260206004820181905260248201527f4f776e61626c653a2063616c6c6572206973206e6f7420746865206f776e65726044820152606401610370565b609780547fffffffffffffffffffffffffffffffffffffffffffffffffffffffffffffff0016911515919091179055565b60335473ffffffffffffffffffffffffffffffffffffffff1633146111f2576040517f08c379a000000000000000000000000000000000000000000000000000000000815260206004820181905260248201527f4f776e61626c653a2063616c6c6572206973206e6f7420746865206f776e65726044820152606401610370565b73ffffffffffffffffffffffffffffffffffffffff821661126f576040517f08c379a000000000000000000000000000000000000000000000000000000000815260206004820152600d60248201527f494e56414c49445f494e505554000000000000000000000000000000000000006044820152606401610370565b73ffffffffffffffffffffffffffffffffffffffff81166112ec576040517f08c379a000000000000000000000000000000000000000000000000000000000815260206004820152600d60248201527f494e56414c49445f494e505554000000000000000000000000000000000000006044820152606401610370565b609a805473ffffffffffffffffffffffffffffffffffffffff8481167fffffffffffffffffffffffff00000000000000000000000000000000000000009283168117909355609b80549185169190921681179091556040805192835260208301919091527f1afd2fbd87820e90f7fd536cc3da7004a6a6d7f06da7f35b995b505b1ccf6f009101610c5d565b6000600260655414156113e7576040517f08c379a000000000000000000000000000000000000000000000000000000000815260206004820152601f60248201527f5265656e7472616e637947756172643a207265656e7472616e742063616c6c006044820152606401610370565b600260655560975460ff1615611459576040517f08c379a000000000000000000000000000000000000000000000000000000000815260206004820152600660248201527f50617573656400000000000000000000000000000000000000000000000000006044820152606401610370565b609d546114c2576040517f08c379a000000000000000000000000000000000000000000000000000000000815260206004820152600c60248201527f494e56414c49445f5041544800000000000000000000000000000000000000006044820152606401610370565b6000831161152c576040517f08c379a000000000000000000000000000000000000000000000000000000000815260206004820152601160248201527f494e56414c49445f414d4f554e545f494e0000000000000000000000000000006044820152606401610370565b609c546040517fd06ca61f00000000000000000000000000000000000000000000000000000000815260009173ffffffffffffffffffffffffffffffffffffffff169063d06ca61f90611586908790609d90600401612862565b60006040518083038186803b15801561159e57600080fd5b505afa1580156115b2573d6000803e3d6000fd5b505050506040513d6000823e601f3d9081017fffffffffffffffffffffffffffffffffffffffffffffffffffffffffffffffe01682016040526115f891908101906125d1565b90508060018251611609919061293e565b81518110611640577f4e487b7100000000000000000000000000000000000000000000000000000000600052603260045260246000fd5b6020908102919091010151609a546040517f70a0823100000000000000000000000000000000000000000000000000000000815230600482015291935060009173ffffffffffffffffffffffffffffffffffffffff909116906370a082319060240160206040518083038186803b1580156116ba57600080fd5b505afa1580156116ce573d6000803e3d6000fd5b505050506040513d601f19601f820116820180604052508101906116f291906126ff565b90508083111561175e576040517f08c379a000000000000000000000000000000000000000000000000000000000815260206004820152600760248201527f42414c414e4345000000000000000000000000000000000000000000000000006044820152606401610370565b838310156117c8576040517f08c379a000000000000000000000000000000000000000000000000000000000815260206004820152601260248201527f494e56414c49445f414d4f554e545f4f555400000000000000000000000000006044820152606401610370565b609b5460009073ffffffffffffffffffffffffffffffffffffffff166323b872dd336040517fffffffff0000000000000000000000000000000000000000000000000000000060e084901b16815273ffffffffffffffffffffffffffffffffffffffff909116600482015230602482015260448101899052606401602060405180830381600087803b15801561185d57600080fd5b505af1158015611871573d6000803e3d6000fd5b505050506040513d601f19601f8201168201806040525081019061189591906126cb565b9050806118fe576040517f08c379a000000000000000000000000000000000000000000000000000000000815260206004820152600d60248201527f5452414e534645525f42534353000000000000000000000000000000000000006044820152606401610370565b609a5460009073ffffffffffffffffffffffffffffffffffffffff1663a9059cbb336040517fffffffff0000000000000000000000000000000000000000000000000000000060e084901b16815273ffffffffffffffffffffffffffffffffffffffff909116600482015260248101889052604401602060405180830381600087803b15801561198d57600080fd5b505af11580156119a1573d6000803e3d6000fd5b505050506040513d601f19601f820116820180604052508101906119c591906126cb565b905080611a2e576040517f08c379a000000000000000000000000000000000000000000000000000000000815260206004820152600c60248201527f5452414e534645525f4d535400000000000000000000000000000000000000006044820152606401610370565b7fcdee897399ab5e465acb1bd3ed5e32c695f196321764546c59720fa6c9ce4c69336040805173ffffffffffffffffffffffffffffffffffffffff9092168252602082018890520160405180910390a15050600160655550909392505050565b600054610100900460ff1680611aa7575060005460ff16155b611b33576040517f08c379a000000000000000000000000000000000000000000000000000000000815260206004820152602e60248201527f496e697469616c697a61626c653a20636f6e747261637420697320616c72656160448201527f647920696e697469616c697a65640000000000000000000000000000000000006064820152608401610370565b600054610100900460ff16158015611b7257600080547fffffffffffffffffffffffffffffffffffffffffffffffffffffffffffff0000166101011790555b611b7a611e1d565b611b82611f3a565b611b8a61202e565b609780547fffffffffffffffffffffffffffffffffffffffffffffffffffffffffffffff001690556099879055609c805473ffffffffffffffffffffffffffffffffffffffff8089167fffffffffffffffffffffffff000000000000000000000000000000000000000092831617909255609a8054888416908316179055609b805492871692909116919091179055611c25609d8484612435565b508015611c5557600080547fffffffffffffffffffffffffffffffffffffffffffffffffffffffffffff00ff1690555b50505050505050565b60335473ffffffffffffffffffffffffffffffffffffffff163314611cdf576040517f08c379a000000000000000000000000000000000000000000000000000000000815260206004820181905260248201527f4f776e61626c653a2063616c6c6572206973206e6f7420746865206f776e65726044820152606401610370565b73ffffffffffffffffffffffffffffffffffffffff8116611d82576040517f08c379a000000000000000000000000000000000000000000000000000000000815260206004820152602660248201527f4f776e61626c653a206e6577206f776e657220697320746865207a65726f206160448201527f64647265737300000000000000000000000000000000000000000000000000006064820152608401610370565b611d8b81611da6565b50565b600061084e8284612901565b600061084e82846128c8565b6033805473ffffffffffffffffffffffffffffffffffffffff8381167fffffffffffffffffffffffff0000000000000000000000000000000000000000831681179093556040519116919082907f8be0079c531659141344cd1fd0a4f28419497f9722a3daafe3b4186f6b6457e090600090a35050565b600054610100900460ff1680611e36575060005460ff16155b611ec2576040517f08c379a000000000000000000000000000000000000000000000000000000000815260206004820152602e60248201527f496e697469616c697a61626c653a20636f6e747261637420697320616c72656160448201527f647920696e697469616c697a65640000000000000000000000000000000000006064820152608401610370565b600054610100900460ff16158015611f0157600080547fffffffffffffffffffffffffffffffffffffffffffffffffffffffffffff0000166101011790555b611f0961211a565b8015611d8b57600080547fffffffffffffffffffffffffffffffffffffffffffffffffffffffffffff00ff16905550565b600054610100900460ff1680611f53575060005460ff16155b611fdf576040517f08c379a000000000000000000000000000000000000000000000000000000000815260206004820152602e60248201527f496e697469616c697a61626c653a20636f6e747261637420697320616c72656160448201527f647920696e697469616c697a65640000000000000000000000000000000000006064820152608401610370565b600054610100900460ff1615801561201e57600080547fffffffffffffffffffffffffffffffffffffffffffffffffffffffffffff0000166101011790555b61202661211a565b611f0961222e565b600054610100900460ff1680612047575060005460ff16155b6120d3576040517f08c379a000000000000000000000000000000000000000000000000000000000815260206004820152602e60248201527f496e697469616c697a61626c653a20636f6e747261637420697320616c72656160448201527f647920696e697469616c697a65640000000000000000000000000000000000006064820152608401610370565b600054610100900460ff1615801561211257600080547fffffffffffffffffffffffffffffffffffffffffffffffffffffffffffff0000166101011790555b611f0961231b565b600054610100900460ff1680612133575060005460ff16155b6121bf576040517f08c379a000000000000000000000000000000000000000000000000000000000815260206004820152602e60248201527f496e697469616c697a61626c653a20636f6e747261637420697320616c72656160448201527f647920696e697469616c697a65640000000000000000000000000000000000006064820152608401610370565b600054610100900460ff16158015611f0957600080547fffffffffffffffffffffffffffffffffffffffffffffffffffffffffffff0000166101011790558015611d8b57600080547fffffffffffffffffffffffffffffffffffffffffffffffffffffffffffff00ff16905550565b600054610100900460ff1680612247575060005460ff16155b6122d3576040517f08c379a000000000000000000000000000000000000000000000000000000000815260206004820152602e60248201527f496e697469616c697a61626c653a20636f6e747261637420697320616c72656160448201527f647920696e697469616c697a65640000000000000000000000000000000000006064820152608401610370565b600054610100900460ff1615801561231257600080547fffffffffffffffffffffffffffffffffffffffffffffffffffffffffffff0000166101011790555b611f0933611da6565b600054610100900460ff1680612334575060005460ff16155b6123c0576040517f08c379a000000000000000000000000000000000000000000000000000000000815260206004820152602e60248201527f496e697469616c697a61626c653a20636f6e747261637420697320616c72656160448201527f647920696e697469616c697a65640000000000000000000000000000000000006064820152608401610370565b600054610100900460ff161580156123ff57600080547fffffffffffffffffffffffffffffffffffffffffffffffffffffffffffff0000166101011790555b60016065558015611d8b57600080547fffffffffffffffffffffffffffffffffffffffffffffffffffffffffffff00ff16905550565b8280548282559060005260206000209081019282156124ad579160200282015b828111156124ad5781547fffffffffffffffffffffffff00000000000000000000000000000000000000001673ffffffffffffffffffffffffffffffffffffffff843516178255602090920191600190910190612455565b506124b99291506124bd565b5090565b5b808211156124b957600081556001016124be565b803573ffffffffffffffffffffffffffffffffffffffff811681146124f657600080fd5b919050565b60008083601f84011261250c578081fd5b50813567ffffffffffffffff811115612523578182fd5b6020830191508360208260051b850101111561253e57600080fd5b9250929050565b600060208284031215612556578081fd5b61084e826124d2565b60008060408385031215612571578081fd5b61257a836124d2565b9150612588602084016124d2565b90509250929050565b600080602083850312156125a3578182fd5b823567ffffffffffffffff8111156125b9578283fd5b6125c5858286016124fb565b90969095509350505050565b600060208083850312156125e3578182fd5b825167ffffffffffffffff808211156125fa578384fd5b818501915085601f83011261260d578384fd5b81518181111561261f5761261f612984565b8060051b6040517fffffffffffffffffffffffffffffffffffffffffffffffffffffffffffffffe0603f8301168101818110858211171561266257612662612984565b604052828152858101935084860182860187018a1015612680578788fd5b8795505b838610156126a2578051855260019590950194938601938601612684565b5098975050505050505050565b6000602082840312156126c0578081fd5b813561084e816129b3565b6000602082840312156126dc578081fd5b815161084e816129b3565b6000602082840312156126f8578081fd5b5035919050565b600060208284031215612710578081fd5b5051919050565b60008060008060008060a0878903121561272f578182fd5b8635955061273f602088016124d2565b945061274d604088016124d2565b935061275b606088016124d2565b9250608087013567ffffffffffffffff811115612776578283fd5b61278289828a016124fb565b979a9699509497509295939492505050565b6000806000604084860312156127a8578283fd5b83359250602084013567ffffffffffffffff8111156127c5578283fd5b6127d1868287016124fb565b9497909650939450505050565b600080604083850312156127f0578182fd5b50508035926020909101359150565b83815260406020808301829052908201839052600090849060608401835b868110156128565773ffffffffffffffffffffffffffffffffffffffff612843856124d2565b168252928201929082019060010161281d565b50979650505050505050565b60006040820184835260206040818501528185548084526060860191508685528285209350845b818110156128bb57845473ffffffffffffffffffffffffffffffffffffffff1683526001948501949284019201612889565b5090979650505050505050565b6000826128fc577f4e487b710000000000000000000000000000000000000000000000000000000081526012600452602481fd5b500490565b6000817fffffffffffffffffffffffffffffffffffffffffffffffffffffffffffffffff048311821515161561293957612939612955565b500290565b60008282101561295057612950612955565b500390565b7f4e487b7100000000000000000000000000000000000000000000000000000000600052601160045260246000fd5b7f4e487b7100000000000000000000000000000000000000000000000000000000600052604160045260246000fd5b8015158114611d8b57600080fdfea26469706673582212205fa07921130d9571c5cd064b9bfe352202defc35adecbd005558e884851f32ac64736f6c63430008040033",
  "linkReferences": {},
  "deployedLinkReferences": {}
}