{
  "_format": "hh-sol-artifact-1",
  "contractName": "MStationWallet",
  "sourceName": "contracts/treasury/MStationWallet.sol",
  "abi": [
    {
      "anonymous": false,
      "inputs": [
        {
          "indexed": false,
          "internalType": "address",
          "name": "admin",
          "type": "address"
        },
        {
          "indexed": false,
          "internalType": "address",
          "name": "token",
          "type": "address"
        },
        {
          "indexed": false,
          "internalType": "uint256",
          "name": "amount",
          "type": "uint256"
        }
      ],
      "name": "DepositReward",
      "type": "event"
    },
    {
      "anonymous": false,
      "inputs": [
        {
          "indexed": false,
          "internalType": "address",
          "name": "user",
          "type": "address"
        },
        {
          "indexed": false,
          "internalType": "address",
          "name": "token",
          "type": "address"
        },
        {
          "indexed": false,
          "internalType": "uint256",
          "name": "amount",
          "type": "uint256"
        },
        {
          "indexed": false,
          "internalType": "uint256",
          "name": "transId",
          "type": "uint256"
        }
      ],
      "name": "DepositToken",
      "type": "event"
    },
    {
      "anonymous": false,
      "inputs": [
        {
          "indexed": true,
          "internalType": "address",
          "name": "previousOwner",
          "type": "address"
        },
        {
          "indexed": true,
          "internalType": "address",
          "name": "newOwner",
          "type": "address"
        }
      ],
      "name": "OwnershipTransferred",
      "type": "event"
    },
    {
      "anonymous": false,
      "inputs": [
        {
          "indexed": false,
          "internalType": "address",
          "name": "sender",
          "type": "address"
        },
        {
          "indexed": false,
          "internalType": "uint256",
          "name": "amount",
          "type": "uint256"
        }
      ],
      "name": "Rescued",
      "type": "event"
    },
    {
      "anonymous": false,
      "inputs": [
        {
          "indexed": false,
          "internalType": "address",
          "name": "token1",
          "type": "address"
        },
        {
          "indexed": false,
          "internalType": "address",
          "name": "token2",
          "type": "address"
        }
      ],
      "name": "SetTokenAddress",
      "type": "event"
    },
    {
      "anonymous": false,
      "inputs": [
        {
          "indexed": false,
          "internalType": "address",
          "name": "admin",
          "type": "address"
        },
        {
          "indexed": false,
          "internalType": "address",
          "name": "token",
          "type": "address"
        },
        {
          "indexed": false,
          "internalType": "uint256",
          "name": "amount",
          "type": "uint256"
        },
        {
          "indexed": false,
          "internalType": "uint256",
          "name": "requestId",
          "type": "uint256"
        },
        {
          "indexed": false,
          "internalType": "address",
          "name": "signer",
          "type": "address"
        }
      ],
      "name": "Signature",
      "type": "event"
    },
    {
      "anonymous": false,
      "inputs": [
        {
          "indexed": false,
          "internalType": "address",
          "name": "user",
          "type": "address"
        },
        {
          "indexed": false,
          "internalType": "address",
          "name": "token",
          "type": "address"
        },
        {
          "indexed": false,
          "internalType": "uint256",
          "name": "amount",
          "type": "uint256"
        },
        {
          "indexed": false,
          "internalType": "uint256",
          "name": "transId",
          "type": "uint256"
        }
      ],
      "name": "WithdrawToken",
      "type": "event"
    },
    {
      "inputs": [
        {
          "internalType": "uint32",
          "name": "",
          "type": "uint32"
        }
      ],
      "name": "addressConfigs",
      "outputs": [
        {
          "internalType": "address",
          "name": "",
          "type": "address"
        }
      ],
      "stateMutability": "view",
      "type": "function"
    },
    {
      "inputs": [],
      "name": "bscsTokenAddress",
      "outputs": [
        {
          "internalType": "address",
          "name": "",
          "type": "address"
        }
      ],
      "stateMutability": "view",
      "type": "function"
    },
    {
      "inputs": [
        {
          "internalType": "address",
          "name": "_tokenAddress",
          "type": "address"
        },
        {
          "internalType": "uint256",
          "name": "_amountIn",
          "type": "uint256"
        }
      ],
      "name": "depositReward",
      "outputs": [],
      "stateMutability": "nonpayable",
      "type": "function"
    },
    {
      "inputs": [
        {
          "internalType": "address",
          "name": "_tokenAddress",
          "type": "address"
        },
        {
          "internalType": "uint256",
          "name": "_amountIn",
          "type": "uint256"
        }
      ],
      "name": "depositTokenOnchain",
      "outputs": [],
      "stateMutability": "nonpayable",
      "type": "function"
    },
    {
      "inputs": [
        {
          "internalType": "address",
          "name": "_mstTokenAddress",
          "type": "address"
        },
        {
          "internalType": "address",
          "name": "_bscdTokenAddress",
          "type": "address"
        },
        {
          "internalType": "address",
          "name": "_operator",
          "type": "address"
        },
        {
          "internalType": "address",
          "name": "_feeWallet",
          "type": "address"
        }
      ],
      "name": "initialize",
      "outputs": [],
      "stateMutability": "nonpayable",
      "type": "function"
    },
    {
      "inputs": [],
      "name": "mstTokenAddress",
      "outputs": [
        {
          "internalType": "address",
          "name": "",
          "type": "address"
        }
      ],
      "stateMutability": "view",
      "type": "function"
    },
    {
      "inputs": [],
      "name": "owner",
      "outputs": [
        {
          "internalType": "address",
          "name": "",
          "type": "address"
        }
      ],
      "stateMutability": "view",
      "type": "function"
    },
    {
      "inputs": [],
      "name": "pause",
      "outputs": [
        {
          "internalType": "bool",
          "name": "",
          "type": "bool"
        }
      ],
      "stateMutability": "view",
      "type": "function"
    },
    {
      "inputs": [],
      "name": "renounceOwnership",
      "outputs": [],
      "stateMutability": "nonpayable",
      "type": "function"
    },
    {
      "inputs": [
        {
          "internalType": "address",
          "name": "_token",
          "type": "address"
        }
      ],
      "name": "rescueStuckErc20",
      "outputs": [],
      "stateMutability": "nonpayable",
      "type": "function"
    },
    {
      "inputs": [
        {
          "internalType": "address",
          "name": "_feeWallet",
          "type": "address"
        }
      ],
      "name": "setFeeAddress",
      "outputs": [],
      "stateMutability": "nonpayable",
      "type": "function"
    },
    {
      "inputs": [
        {
          "internalType": "bool",
          "name": "_pause",
          "type": "bool"
        }
      ],
      "name": "setPause",
      "outputs": [],
      "stateMutability": "nonpayable",
      "type": "function"
    },
    {
      "inputs": [
        {
          "internalType": "address",
          "name": "_mstTokenAddress",
          "type": "address"
        },
        {
          "internalType": "address",
          "name": "_bscsTokenAddress",
          "type": "address"
        }
      ],
      "name": "setTokenAddress",
      "outputs": [],
      "stateMutability": "nonpayable",
      "type": "function"
    },
    {
      "inputs": [
        {
          "internalType": "address[]",
          "name": "_operator",
          "type": "address[]"
        },
        {
          "internalType": "bool",
          "name": "_whitelist",
          "type": "bool"
        }
      ],
      "name": "setWhitelistOperator",
      "outputs": [],
      "stateMutability": "nonpayable",
      "type": "function"
    },
    {
      "inputs": [
        {
          "internalType": "address",
          "name": "newOwner",
          "type": "address"
        }
      ],
      "name": "transferOwnership",
      "outputs": [],
      "stateMutability": "nonpayable",
      "type": "function"
    },
    {
      "inputs": [
        {
          "internalType": "uint32[]",
          "name": "ids",
          "type": "uint32[]"
        },
        {
          "internalType": "address[]",
          "name": "_address",
          "type": "address[]"
        }
      ],
      "name": "updateAddressConfigs",
      "outputs": [],
      "stateMutability": "nonpayable",
      "type": "function"
    },
    {
      "inputs": [
        {
          "internalType": "address",
          "name": "_user",
          "type": "address"
        },
        {
          "internalType": "address",
          "name": "_tokenAddress",
          "type": "address"
        },
        {
          "internalType": "uint256",
          "name": "_amountIn",
          "type": "uint256"
        },
        {
          "internalType": "uint256",
          "name": "_requestId",
          "type": "uint256"
        },
        {
          "internalType": "uint256",
          "name": "_createTime",
          "type": "uint256"
        },
        {
          "internalType": "bytes",
          "name": "_signature",
          "type": "bytes"
        }
      ],
      "name": "validateSignature",
      "outputs": [],
      "stateMutability": "nonpayable",
      "type": "function"
    },
    {
      "inputs": [
        {
          "internalType": "address",
          "name": "",
          "type": "address"
        }
      ],
      "name": "whitelistOperator",
      "outputs": [
        {
          "internalType": "bool",
          "name": "",
          "type": "bool"
        }
      ],
      "stateMutability": "view",
      "type": "function"
    },
    {
      "inputs": [
        {
          "internalType": "address",
          "name": "_tokenAddress",
          "type": "address"
        },
        {
          "internalType": "uint256",
          "name": "_amountIn",
          "type": "uint256"
        },
        {
          "internalType": "uint256",
          "name": "_requestId",
          "type": "uint256"
        },
        {
          "internalType": "uint256",
          "name": "_createTime",
          "type": "uint256"
        },
        {
          "internalType": "bytes",
          "name": "_signature",
          "type": "bytes"
        }
      ],
      "name": "withdrawTokenOffchain",
      "outputs": [],
      "stateMutability": "nonpayable",
      "type": "function"
    },
    {
      "inputs": [
        {
          "internalType": "uint256",
          "name": "",
          "type": "uint256"
        }
      ],
      "name": "withdrawTransactions",
      "outputs": [
        {
          "internalType": "bool",
          "name": "isDeposit",
          "type": "bool"
        },
        {
          "internalType": "uint256",
          "name": "tId",
          "type": "uint256"
        },
        {
          "internalType": "uint256",
          "name": "amount",
          "type": "uint256"
        },
        {
          "internalType": "address",
          "name": "owner",
          "type": "address"
        }
      ],
      "stateMutability": "view",
      "type": "function"
    }
  ],
  "bytecode": "0x608060405234801561001057600080fd5b506130b6806100206000396000f3fe608060405234801561001057600080fd5b506004361061016c5760003560e01c8063886928d5116100cd578063d8f6116111610081578063f2fde38b11610066578063f2fde38b146103ab578063f4ece571146103be578063f8c8765e146103d157600080fd5b8063d8f6116114610378578063dad40d721461038b57600080fd5b8063a9a87166116100b2578063a9a87166146102cb578063bedb86fb14610352578063c7afe9f21461036557600080fd5b8063886928d51461029a5780638da5cb5b146102ad57600080fd5b80637db4e28f11610124578063828d299411610109578063828d2994146102445780638456cb591461027a5780638705fcd41461028757600080fd5b80637db4e28f1461021e57806381ca7eba1461023157600080fd5b806349abb7bf1161015557806349abb7bf146101be5780634c7a663714610203578063715018a61461021657600080fd5b80630cf7b0d6146101715780632a2b0bcd14610186575b600080fd5b61018461017f366004612c67565b6103e4565b005b6101a9610194366004612b41565b60986020526000908152604090205460ff1681565b60405190151581526020015b60405180910390f35b609b546101de9073ffffffffffffffffffffffffffffffffffffffff1681565b60405173ffffffffffffffffffffffffffffffffffffffff90911681526020016101b5565b610184610211366004612d80565b610789565b61018461090c565b61018461022c366004612c67565b610999565b61018461023f366004612b41565b610d20565b6101de610252366004612ea9565b60996020526000908152604090205473ffffffffffffffffffffffffffffffffffffffff1681565b6097546101a99060ff1681565b610184610295366004612b41565b610f62565b6101846102a8366004612cff565b61102a565b60335473ffffffffffffffffffffffffffffffffffffffff166101de565b61031a6102d9366004612e79565b609f60205260009081526040902080546001820154600283015460039093015460ff90921692909173ffffffffffffffffffffffffffffffffffffffff1684565b60408051941515855260208501939093529183015273ffffffffffffffffffffffffffffffffffffffff1660608201526080016101b5565b610184610360366004612e41565b6111db565b610184610373366004612b62565b61128d565b610184610386366004612be7565b611494565b609a546101de9073ffffffffffffffffffffffffffffffffffffffff1681565b6101846103b9366004612b41565b61169c565b6101846103cc366004612c90565b6117cc565b6101846103df366004612b94565b6120bf565b60026065541415610456576040517f08c379a000000000000000000000000000000000000000000000000000000000815260206004820152601f60248201527f5265656e7472616e637947756172643a207265656e7472616e742063616c6c0060448201526064015b60405180910390fd5b6002606555609a5473ffffffffffffffffffffffffffffffffffffffff8381169116148061049e5750609b5473ffffffffffffffffffffffffffffffffffffffff8381169116145b610504576040517f08c379a000000000000000000000000000000000000000000000000000000000815260206004820152600960248201527f554e535550504f52540000000000000000000000000000000000000000000000604482015260640161044d565b336000908152609c602052604090205461051f906001612f36565b336000818152609c602052604081209290925573ffffffffffffffffffffffffffffffffffffffff8416906323b872dd906040517fffffffff0000000000000000000000000000000000000000000000000000000060e084901b16815273ffffffffffffffffffffffffffffffffffffffff909116600482015230602482015260448101859052606401602060405180830381600087803b1580156105c357600080fd5b505af11580156105d7573d6000803e3d6000fd5b505050506040513d601f19601f820116820180604052508101906105fb9190612e5d565b905080610664576040517f08c379a000000000000000000000000000000000000000000000000000000000815260206004820152600e60248201527f4445504f5349545f4641494c4544000000000000000000000000000000000000604482015260640161044d565b6001609d60008282546106779190612f36565b909155505060408051608080820183526001808352609d805460208086018281528688018a8152336060808a018281526000968752609e8652958b902099518a547fffffffffffffffffffffffffffffffffffffffffffffffffffffffffffffff0016901515178a559251968901969096555160028801559151600390960180547fffffffffffffffffffffffff00000000000000000000000000000000000000001673ffffffffffffffffffffffffffffffffffffffff9788161790559154865193845294891691830191909152938101869052928301919091527fbb01c612a93e37305a5f1f7b8ed63ea61211be444f722915b9dc827c0bdbffcc91015b60405180910390a15050600160655550565b60335473ffffffffffffffffffffffffffffffffffffffff16331461080a576040517f08c379a000000000000000000000000000000000000000000000000000000000815260206004820181905260248201527f4f776e61626c653a2063616c6c6572206973206e6f7420746865206f776e6572604482015260640161044d565b60005b82518110156109075781818151811061084f577f4e487b7100000000000000000000000000000000000000000000000000000000600052603260045260246000fd5b602002602001015160996000858481518110610894577f4e487b7100000000000000000000000000000000000000000000000000000000600052603260045260246000fd5b602002602001015163ffffffff1663ffffffff16815260200190815260200160002060006101000a81548173ffffffffffffffffffffffffffffffffffffffff021916908373ffffffffffffffffffffffffffffffffffffffff16021790555080806108ff90612fdb565b91505061080d565b505050565b60335473ffffffffffffffffffffffffffffffffffffffff16331461098d576040517f08c379a000000000000000000000000000000000000000000000000000000000815260206004820181905260248201527f4f776e61626c653a2063616c6c6572206973206e6f7420746865206f776e6572604482015260640161044d565b610997600061228d565b565b60026065541415610a06576040517f08c379a000000000000000000000000000000000000000000000000000000000815260206004820152601f60248201527f5265656e7472616e637947756172643a207265656e7472616e742063616c6c00604482015260640161044d565b6002606555609a5473ffffffffffffffffffffffffffffffffffffffff83811691161480610a4e5750609b5473ffffffffffffffffffffffffffffffffffffffff8381169116145b610ab4576040517f08c379a000000000000000000000000000000000000000000000000000000000815260206004820152600960248201527f554e535550504f52540000000000000000000000000000000000000000000000604482015260640161044d565b336000908152609c6020526040902054610acf906001612f36565b336000818152609c602052604081209290925573ffffffffffffffffffffffffffffffffffffffff8416906323b872dd906040517fffffffff0000000000000000000000000000000000000000000000000000000060e084901b16815273ffffffffffffffffffffffffffffffffffffffff909116600482015230602482015260448101859052606401602060405180830381600087803b158015610b7357600080fd5b505af1158015610b87573d6000803e3d6000fd5b505050506040513d601f19601f82011682018060405250810190610bab9190612e5d565b905080610c14576040517f08c379a000000000000000000000000000000000000000000000000000000000815260206004820152600e60248201527f4445504f5349545f4641494c4544000000000000000000000000000000000000604482015260640161044d565b6001609d6000828254610c279190612f36565b9091555050604080516080810182526001808252609d5460208084018281528486018881523360608088018281526000968752609e865295899020975188547fffffffffffffffffffffffffffffffffffffffffffffffffffffffffffffff00169015151788559251958701959095555160028601559151600390940180547fffffffffffffffffffffffff00000000000000000000000000000000000000001673ffffffffffffffffffffffffffffffffffffffff9586161790558451928352928716928201929092529182018490527f8e901d37d67a4fd6bd5706c1db249f37f0b97a2d2f4f52ac74aec76380a75d8a9101610777565b60335473ffffffffffffffffffffffffffffffffffffffff163314610da1576040517f08c379a000000000000000000000000000000000000000000000000000000000815260206004820181905260248201527f4f776e61626c653a2063616c6c6572206973206e6f7420746865206f776e6572604482015260640161044d565b6040517f70a0823100000000000000000000000000000000000000000000000000000000815230600482015260009073ffffffffffffffffffffffffffffffffffffffff8316906370a082319060240160206040518083038186803b158015610e0957600080fd5b505afa158015610e1d573d6000803e3d6000fd5b505050506040513d601f19601f82011682018060405250810190610e419190612e91565b90508173ffffffffffffffffffffffffffffffffffffffff1663a9059cbb610e7e60335473ffffffffffffffffffffffffffffffffffffffff1690565b6040517fffffffff0000000000000000000000000000000000000000000000000000000060e084901b16815273ffffffffffffffffffffffffffffffffffffffff909116600482015260248101849052604401602060405180830381600087803b158015610eeb57600080fd5b505af1158015610eff573d6000803e3d6000fd5b505050506040513d601f19601f82011682018060405250810190610f239190612e5d565b5060408051338152602081018390527f8aec0ce3dadffacf4b7a963e0fed1ff2e6151b4c95d4a65acafa9d129963040291015b60405180910390a15050565b60335473ffffffffffffffffffffffffffffffffffffffff163314610fe3576040517f08c379a000000000000000000000000000000000000000000000000000000000815260206004820181905260248201527f4f776e61626c653a2063616c6c6572206973206e6f7420746865206f776e6572604482015260640161044d565b60a380547fffffffffffffffffffffffff00000000000000000000000000000000000000001673ffffffffffffffffffffffffffffffffffffffff92909216919091179055565b60335473ffffffffffffffffffffffffffffffffffffffff1633146110ab576040517f08c379a000000000000000000000000000000000000000000000000000000000815260206004820181905260248201527f4f776e61626c653a2063616c6c6572206973206e6f7420746865206f776e6572604482015260640161044d565b81611112576040517f08c379a000000000000000000000000000000000000000000000000000000000815260206004820152600d60248201527f546f74616c20696e76616c696400000000000000000000000000000000000000604482015260640161044d565b60005b828110156111d557816098600086868581811061115b577f4e487b7100000000000000000000000000000000000000000000000000000000600052603260045260246000fd5b90506020020160208101906111709190612b41565b73ffffffffffffffffffffffffffffffffffffffff168152602081019190915260400160002080547fffffffffffffffffffffffffffffffffffffffffffffffffffffffffffffff0016911515919091179055806111cd81612fdb565b915050611115565b50505050565b60335473ffffffffffffffffffffffffffffffffffffffff16331461125c576040517f08c379a000000000000000000000000000000000000000000000000000000000815260206004820181905260248201527f4f776e61626c653a2063616c6c6572206973206e6f7420746865206f776e6572604482015260640161044d565b609780547fffffffffffffffffffffffffffffffffffffffffffffffffffffffffffffff0016911515919091179055565b60335473ffffffffffffffffffffffffffffffffffffffff16331461130e576040517f08c379a000000000000000000000000000000000000000000000000000000000815260206004820181905260248201527f4f776e61626c653a2063616c6c6572206973206e6f7420746865206f776e6572604482015260640161044d565b73ffffffffffffffffffffffffffffffffffffffff821661138b576040517f08c379a000000000000000000000000000000000000000000000000000000000815260206004820152600d60248201527f494e56414c49445f494e50555400000000000000000000000000000000000000604482015260640161044d565b73ffffffffffffffffffffffffffffffffffffffff8116611408576040517f08c379a000000000000000000000000000000000000000000000000000000000815260206004820152600d60248201527f494e56414c49445f494e50555400000000000000000000000000000000000000604482015260640161044d565b609a805473ffffffffffffffffffffffffffffffffffffffff8481167fffffffffffffffffffffffff00000000000000000000000000000000000000009283168117909355609b80549185169190921681179091556040805192835260208301919091527f1afd2fbd87820e90f7fd536cc3da7004a6a6d7f06da7f35b995b505b1ccf6f009101610f56565b60026065541415611501576040517f08c379a000000000000000000000000000000000000000000000000000000000815260206004820152601f60248201527f5265656e7472616e637947756172643a207265656e7472616e742063616c6c00604482015260640161044d565b60026065556040517fffffffffffffffffffffffffffffffffffffffff000000000000000000000000606089811b8216602084015288901b1660348201526048810186905260688101859052608881018490526000906115dd9060a8015b604080517fffffffffffffffffffffffffffffffffffffffffffffffffffffffffffffffe081840301815282825280516020918201207f19457468657265756d205369676e6564204d6573736167653a0a33320000000084830152603c8085019190915282518085039091018152605c909301909152815191012090565b905060006116218285858080601f01602080910402602001604051908101604052809392919081815260200183838082843760009201919091525061230492505050565b6040805173ffffffffffffffffffffffffffffffffffffffff808d168252808c1660208301529181018a90526060810189905290821660808201529091507f156f2ef4b3003e7f77697af4803c1214f1cd33363718bd7dbe58ac9b80a5fedb9060a00160405180910390a15050600160655550505050505050565b60335473ffffffffffffffffffffffffffffffffffffffff16331461171d576040517f08c379a000000000000000000000000000000000000000000000000000000000815260206004820181905260248201527f4f776e61626c653a2063616c6c6572206973206e6f7420746865206f776e6572604482015260640161044d565b73ffffffffffffffffffffffffffffffffffffffff81166117c0576040517f08c379a000000000000000000000000000000000000000000000000000000000815260206004820152602660248201527f4f776e61626c653a206e6577206f776e657220697320746865207a65726f206160448201527f6464726573730000000000000000000000000000000000000000000000000000606482015260840161044d565b6117c98161228d565b50565b60026065541415611839576040517f08c379a000000000000000000000000000000000000000000000000000000000815260206004820152601f60248201527f5265656e7472616e637947756172643a207265656e7472616e742063616c6c00604482015260640161044d565b60026065556118498360b4612f36565b4211156118b2576040517f08c379a000000000000000000000000000000000000000000000000000000000815260206004820152600760248201527f4558504952454400000000000000000000000000000000000000000000000000604482015260640161044d565b609a5473ffffffffffffffffffffffffffffffffffffffff878116911614806118f55750609b5473ffffffffffffffffffffffffffffffffffffffff8781169116145b61195b576040517f08c379a000000000000000000000000000000000000000000000000000000000815260206004820152600960248201527f554e535550504f52540000000000000000000000000000000000000000000000604482015260640161044d565b600160005260996020527fbb86fbc034f4e382929974bcd8419ed626b0ea647f962d89ba2fb6bd28785ab95473ffffffffffffffffffffffffffffffffffffffff1663e75658fb336040517fffffffff0000000000000000000000000000000000000000000000000000000060e084901b16815273ffffffffffffffffffffffffffffffffffffffff9091166004820152602401602060405180830381600087803b158015611a0957600080fd5b505af1158015611a1d573d6000803e3d6000fd5b505050506040513d601f19601f82011682018060405250810190611a419190612e5d565b15611aa8576040517f08c379a000000000000000000000000000000000000000000000000000000000815260206004820152600960248201527f426c61636b6c6973740000000000000000000000000000000000000000000000604482015260640161044d565b6000848152609f602052604090206002015415611b21576040517f08c379a000000000000000000000000000000000000000000000000000000000815260206004820152600f60248201527f494e56414c49445f524551554553540000000000000000000000000000000000604482015260640161044d565b609a5473ffffffffffffffffffffffffffffffffffffffff87811691161415611bbc576802b5e3af16b1880000851015611bb7576040517f08c379a000000000000000000000000000000000000000000000000000000000815260206004820152600360248201527f4d494e0000000000000000000000000000000000000000000000000000000000604482015260640161044d565b611c52565b609b5473ffffffffffffffffffffffffffffffffffffffff87811691161415611c5257686c6b935b8bbd400000851015611c52576040517f08c379a000000000000000000000000000000000000000000000000000000000815260206004820152600360248201527f4d494e0000000000000000000000000000000000000000000000000000000000604482015260640161044d565b6000611cb1336040517fffffffffffffffffffffffffffffffffffffffff000000000000000000000000606092831b81166020830152918a901b909116603482015260488101889052606881018790526088810186905260a80161155f565b90506000611cf58285858080601f01602080910402602001604051908101604052809392919081815260200183838082843760009201919091525061230492505050565b73ffffffffffffffffffffffffffffffffffffffff811660009081526098602052604090205490915060ff16611d87576040517f08c379a000000000000000000000000000000000000000000000000000000000815260206004820152600e60248201527f494e56414c49445f5349474e4552000000000000000000000000000000000000604482015260640161044d565b60006064611d96896002612f87565b611da09190612f4e565b9050600073ffffffffffffffffffffffffffffffffffffffff8a1663a9059cbb33611dcb858d612fc4565b6040517fffffffff0000000000000000000000000000000000000000000000000000000060e085901b16815273ffffffffffffffffffffffffffffffffffffffff90921660048301526024820152604401602060405180830381600087803b158015611e3657600080fd5b505af1158015611e4a573d6000803e3d6000fd5b505050506040513d601f19601f82011682018060405250810190611e6e9190612e5d565b905080611ed7576040517f08c379a000000000000000000000000000000000000000000000000000000000815260206004820152600f60248201527f57495448445241575f4641494c45440000000000000000000000000000000000604482015260640161044d565b60a3546040517fa9059cbb00000000000000000000000000000000000000000000000000000000815273ffffffffffffffffffffffffffffffffffffffff918216600482015260248101849052908b169063a9059cbb90604401602060405180830381600087803b158015611f4b57600080fd5b505af1158015611f5f573d6000803e3d6000fd5b505050506040513d601f19601f82011682018060405250810190611f839190612e5d565b5060405180608001604052806000151581526020018981526020018a8152602001611fab3390565b73ffffffffffffffffffffffffffffffffffffffff90811690915260008a8152609f6020908152604091829020845181547fffffffffffffffffffffffffffffffffffffffffffffffffffffffffffffff0016901515178155908401516001820155908301516002820155606090920151600390920180547fffffffffffffffffffffffff000000000000000000000000000000000000000016929091169190911790557fa69fc39b702a6e8195370ae2252cc11b4445837cc4abe15ac39123f2f2d8770d336040805173ffffffffffffffffffffffffffffffffffffffff9283168152918d16602083015281018b9052606081018a905260800160405180910390a1505060016065555050505050505050565b600054610100900460ff16806120d8575060005460ff16155b612164576040517f08c379a000000000000000000000000000000000000000000000000000000000815260206004820152602e60248201527f496e697469616c697a61626c653a20636f6e747261637420697320616c72656160448201527f647920696e697469616c697a6564000000000000000000000000000000000000606482015260840161044d565b600054610100900460ff161580156121a357600080547fffffffffffffffffffffffffffffffffffffffffffffffffffffffffffff0000166101011790555b6121ab6123a1565b6121b36124be565b6121bb6125b2565b609a805473ffffffffffffffffffffffffffffffffffffffff8088167fffffffffffffffffffffffff000000000000000000000000000000000000000092831617909255609b8054878416908316179055848216600090815260986020526040902080547fffffffffffffffffffffffffffffffffffffffffffffffffffffffffffffff0016600117905560a3805492851692909116919091179055801561228657600080547fffffffffffffffffffffffffffffffffffffffffffffffffffffffffffff00ff1690555b5050505050565b6033805473ffffffffffffffffffffffffffffffffffffffff8381167fffffffffffffffffffffffff0000000000000000000000000000000000000000831681179093556040519116919082907f8be0079c531659141344cd1fd0a4f28419497f9722a3daafe3b4186f6b6457e090600090a35050565b6000806000806123138561269e565b6040805160008152602081018083528b905260ff8316918101919091526060810184905260808101839052929550909350915060019060a0016020604051602081039080840390855afa15801561236e573d6000803e3d6000fd5b50506040517fffffffffffffffffffffffffffffffffffffffffffffffffffffffffffffffe00151979650505050505050565b600054610100900460ff16806123ba575060005460ff16155b612446576040517f08c379a000000000000000000000000000000000000000000000000000000000815260206004820152602e60248201527f496e697469616c697a61626c653a20636f6e747261637420697320616c72656160448201527f647920696e697469616c697a6564000000000000000000000000000000000000606482015260840161044d565b600054610100900460ff1615801561248557600080547fffffffffffffffffffffffffffffffffffffffffffffffffffffffffffff0000166101011790555b61248d61272c565b80156117c957600080547fffffffffffffffffffffffffffffffffffffffffffffffffffffffffffff00ff16905550565b600054610100900460ff16806124d7575060005460ff16155b612563576040517f08c379a000000000000000000000000000000000000000000000000000000000815260206004820152602e60248201527f496e697469616c697a61626c653a20636f6e747261637420697320616c72656160448201527f647920696e697469616c697a6564000000000000000000000000000000000000606482015260840161044d565b600054610100900460ff161580156125a257600080547fffffffffffffffffffffffffffffffffffffffffffffffffffffffffffff0000166101011790555b6125aa61272c565b61248d612840565b600054610100900460ff16806125cb575060005460ff16155b612657576040517f08c379a000000000000000000000000000000000000000000000000000000000815260206004820152602e60248201527f496e697469616c697a61626c653a20636f6e747261637420697320616c72656160448201527f647920696e697469616c697a6564000000000000000000000000000000000000606482015260840161044d565b600054610100900460ff1615801561269657600080547fffffffffffffffffffffffffffffffffffffffffffffffffffffffffffff0000166101011790555b61248d61292d565b6000806000835160411461270e576040517f08c379a000000000000000000000000000000000000000000000000000000000815260206004820152601860248201527f696e76616c6964207369676e6174757265206c656e6774680000000000000000604482015260640161044d565b50505060208101516040820151606090920151909260009190911a90565b600054610100900460ff1680612745575060005460ff16155b6127d1576040517f08c379a000000000000000000000000000000000000000000000000000000000815260206004820152602e60248201527f496e697469616c697a61626c653a20636f6e747261637420697320616c72656160448201527f647920696e697469616c697a6564000000000000000000000000000000000000606482015260840161044d565b600054610100900460ff1615801561248d57600080547fffffffffffffffffffffffffffffffffffffffffffffffffffffffffffff00001661010117905580156117c957600080547fffffffffffffffffffffffffffffffffffffffffffffffffffffffffffff00ff16905550565b600054610100900460ff1680612859575060005460ff16155b6128e5576040517f08c379a000000000000000000000000000000000000000000000000000000000815260206004820152602e60248201527f496e697469616c697a61626c653a20636f6e747261637420697320616c72656160448201527f647920696e697469616c697a6564000000000000000000000000000000000000606482015260840161044d565b600054610100900460ff1615801561292457600080547fffffffffffffffffffffffffffffffffffffffffffffffffffffffffffff0000166101011790555b61248d3361228d565b600054610100900460ff1680612946575060005460ff16155b6129d2576040517f08c379a000000000000000000000000000000000000000000000000000000000815260206004820152602e60248201527f496e697469616c697a61626c653a20636f6e747261637420697320616c72656160448201527f647920696e697469616c697a6564000000000000000000000000000000000000606482015260840161044d565b600054610100900460ff16158015612a1157600080547fffffffffffffffffffffffffffffffffffffffffffffffffffffffffffff0000166101011790555b600160655580156117c957600080547fffffffffffffffffffffffffffffffffffffffffffffffffffffffffffff00ff16905550565b803573ffffffffffffffffffffffffffffffffffffffff81168114612a6b57600080fd5b919050565b600082601f830112612a80578081fd5b81356020612a95612a9083612f12565b612ec3565b80838252828201915082860187848660051b8901011115612ab4578586fd5b855b85811015612ad957612ac782612a47565b84529284019290840190600101612ab6565b5090979650505050505050565b60008083601f840112612af7578182fd5b50813567ffffffffffffffff811115612b0e578182fd5b602083019150836020828501011115612b2657600080fd5b9250929050565b803563ffffffff81168114612a6b57600080fd5b600060208284031215612b52578081fd5b612b5b82612a47565b9392505050565b60008060408385031215612b74578081fd5b612b7d83612a47565b9150612b8b60208401612a47565b90509250929050565b60008060008060808587031215612ba9578182fd5b612bb285612a47565b9350612bc060208601612a47565b9250612bce60408601612a47565b9150612bdc60608601612a47565b905092959194509250565b600080600080600080600060c0888a031215612c01578283fd5b612c0a88612a47565b9650612c1860208901612a47565b955060408801359450606088013593506080880135925060a088013567ffffffffffffffff811115612c48578283fd5b612c548a828b01612ae6565b989b979a50959850939692959293505050565b60008060408385031215612c79578182fd5b612c8283612a47565b946020939093013593505050565b60008060008060008060a08789031215612ca8578182fd5b612cb187612a47565b9550602087013594506040870135935060608701359250608087013567ffffffffffffffff811115612ce1578283fd5b612ced89828a01612ae6565b979a9699509497509295939492505050565b600080600060408486031215612d13578283fd5b833567ffffffffffffffff80821115612d2a578485fd5b818601915086601f830112612d3d578485fd5b813581811115612d4b578586fd5b8760208260051b8501011115612d5f578586fd5b60209283019550935050840135612d7581613072565b809150509250925092565b60008060408385031215612d92578182fd5b823567ffffffffffffffff80821115612da9578384fd5b818501915085601f830112612dbc578384fd5b81356020612dcc612a9083612f12565b8083825282820191508286018a848660051b8901011115612deb578889fd5b8896505b84871015612e1457612e0081612b2d565b835260019690960195918301918301612def565b5096505086013592505080821115612e2a578283fd5b50612e3785828601612a70565b9150509250929050565b600060208284031215612e52578081fd5b8135612b5b81613072565b600060208284031215612e6e578081fd5b8151612b5b81613072565b600060208284031215612e8a578081fd5b5035919050565b600060208284031215612ea2578081fd5b5051919050565b600060208284031215612eba578081fd5b612b5b82612b2d565b604051601f82017fffffffffffffffffffffffffffffffffffffffffffffffffffffffffffffffe016810167ffffffffffffffff81118282101715612f0a57612f0a613043565b604052919050565b600067ffffffffffffffff821115612f2c57612f2c613043565b5060051b60200190565b60008219821115612f4957612f49613014565b500190565b600082612f82577f4e487b710000000000000000000000000000000000000000000000000000000081526012600452602481fd5b500490565b6000817fffffffffffffffffffffffffffffffffffffffffffffffffffffffffffffffff0483118215151615612fbf57612fbf613014565b500290565b600082821015612fd657612fd6613014565b500390565b60007fffffffffffffffffffffffffffffffffffffffffffffffffffffffffffffffff82141561300d5761300d613014565b5060010190565b7f4e487b7100000000000000000000000000000000000000000000000000000000600052601160045260246000fd5b7f4e487b7100000000000000000000000000000000000000000000000000000000600052604160045260246000fd5b80151581146117c957600080fdfea2646970667358221220c1accb80d57f19ce7440864578c52f8e8e767db950100adcb000f8839d3d349364736f6c63430008040033",
  "linkReferences": {},
  "deployedLinkReferences": {}
}