{
  "_format": "hh-sol-artifact-1",
  "contractName": "MstationNFT",
  "sourceName": "contracts/mstationNFT/MstationNFT.sol",
  "abi": [
    {
      "anonymous": false,
      "inputs": [
        {
          "indexed": false,
          "internalType": "uint256",
          "name": "_amount",
          "type": "uint256"
        }
      ],
      "name": "DepositToWallet",
      "type": "event"
    },
    {
      "anonymous": false,
      "inputs": [
        {
          "indexed": false,
          "internalType": "address",
          "name": "_nftAddress",
          "type": "address"
        },
        {
          "indexed": false,
          "internalType": "address",
          "name": "_user",
          "type": "address"
        },
        {
          "indexed": false,
          "internalType": "uint256",
          "name": "_tokenId",
          "type": "uint256"
        },
        {
          "indexed": false,
          "internalType": "uint256",
          "name": "_mintFeeBSCS",
          "type": "uint256"
        },
        {
          "indexed": false,
          "internalType": "uint256",
          "name": "_mintFeeBUSD",
          "type": "uint256"
        },
        {
          "indexed": false,
          "internalType": "uint16[]",
          "name": "_attributes",
          "type": "uint16[]"
        }
      ],
      "name": "NewBreed",
      "type": "event"
    },
    {
      "anonymous": false,
      "inputs": [
        {
          "indexed": true,
          "internalType": "address",
          "name": "previousOwner",
          "type": "address"
        },
        {
          "indexed": true,
          "internalType": "address",
          "name": "newOwner",
          "type": "address"
        }
      ],
      "name": "OwnershipTransferred",
      "type": "event"
    },
    {
      "inputs": [
        {
          "internalType": "uint16",
          "name": "_quantity",
          "type": "uint16"
        }
      ],
      "name": "BreedPack",
      "outputs": [],
      "stateMutability": "payable",
      "type": "function"
    },
    {
      "inputs": [
        {
          "internalType": "uint256",
          "name": "_randomId",
          "type": "uint256"
        }
      ],
      "name": "Claim",
      "outputs": [],
      "stateMutability": "payable",
      "type": "function"
    },
    {
      "inputs": [
        {
          "internalType": "uint256",
          "name": "",
          "type": "uint256"
        }
      ],
      "name": "blackList",
      "outputs": [
        {
          "internalType": "bool",
          "name": "",
          "type": "bool"
        }
      ],
      "stateMutability": "view",
      "type": "function"
    },
    {
      "inputs": [],
      "name": "bscdAddress",
      "outputs": [
        {
          "internalType": "contract ERC20Upgradeable",
          "name": "",
          "type": "address"
        }
      ],
      "stateMutability": "view",
      "type": "function"
    },
    {
      "inputs": [],
      "name": "bscsAddress",
      "outputs": [
        {
          "internalType": "contract ERC20Upgradeable",
          "name": "",
          "type": "address"
        }
      ],
      "stateMutability": "view",
      "type": "function"
    },
    {
      "inputs": [],
      "name": "burnWallet",
      "outputs": [
        {
          "internalType": "address",
          "name": "",
          "type": "address"
        }
      ],
      "stateMutability": "view",
      "type": "function"
    },
    {
      "inputs": [],
      "name": "busdAddress",
      "outputs": [
        {
          "internalType": "contract ERC20Upgradeable",
          "name": "",
          "type": "address"
        }
      ],
      "stateMutability": "view",
      "type": "function"
    },
    {
      "inputs": [
        {
          "internalType": "uint256",
          "name": "",
          "type": "uint256"
        }
      ],
      "name": "characterContracts",
      "outputs": [
        {
          "internalType": "uint256",
          "name": "id",
          "type": "uint256"
        },
        {
          "internalType": "uint256",
          "name": "rarity",
          "type": "uint256"
        },
        {
          "internalType": "address",
          "name": "contractAddress",
          "type": "address"
        }
      ],
      "stateMutability": "view",
      "type": "function"
    },
    {
      "inputs": [],
      "name": "claimMintFee",
      "outputs": [],
      "stateMutability": "nonpayable",
      "type": "function"
    },
    {
      "inputs": [
        {
          "internalType": "address",
          "name": "_nftAddress",
          "type": "address"
        },
        {
          "internalType": "address",
          "name": "_user",
          "type": "address"
        },
        {
          "internalType": "uint256",
          "name": "_tokenId",
          "type": "uint256"
        }
      ],
      "name": "dead",
      "outputs": [],
      "stateMutability": "nonpayable",
      "type": "function"
    },
    {
      "inputs": [],
      "name": "getBreedSlot",
      "outputs": [
        {
          "internalType": "uint256",
          "name": "",
          "type": "uint256"
        }
      ],
      "stateMutability": "view",
      "type": "function"
    },
    {
      "inputs": [
        {
          "internalType": "uint256",
          "name": "_totalMetaverse",
          "type": "uint256"
        }
      ],
      "name": "growUp",
      "outputs": [],
      "stateMutability": "nonpayable",
      "type": "function"
    },
    {
      "inputs": [
        {
          "internalType": "address",
          "name": "_treausy",
          "type": "address"
        },
        {
          "internalType": "address",
          "name": "_burnWallet",
          "type": "address"
        },
        {
          "internalType": "address",
          "name": "_BSCSAddress",
          "type": "address"
        },
        {
          "internalType": "address",
          "name": "_BSCDAddress",
          "type": "address"
        },
        {
          "internalType": "uint256",
          "name": "_initalSupply",
          "type": "uint256"
        },
        {
          "internalType": "uint256",
          "name": "_baseMintFee",
          "type": "uint256"
        },
        {
          "internalType": "uint256",
          "name": "_baseMintLimitedFee",
          "type": "uint256"
        },
        {
          "internalType": "uint256",
          "name": "_tokenMintLimitedFee",
          "type": "uint256"
        }
      ],
      "name": "initData",
      "outputs": [],
      "stateMutability": "nonpayable",
      "type": "function"
    },
    {
      "inputs": [],
      "name": "initialize",
      "outputs": [],
      "stateMutability": "nonpayable",
      "type": "function"
    },
    {
      "inputs": [],
      "name": "owner",
      "outputs": [
        {
          "internalType": "address",
          "name": "",
          "type": "address"
        }
      ],
      "stateMutability": "view",
      "type": "function"
    },
    {
      "inputs": [
        {
          "internalType": "uint256",
          "name": "",
          "type": "uint256"
        }
      ],
      "name": "priorityList",
      "outputs": [
        {
          "internalType": "bool",
          "name": "",
          "type": "bool"
        }
      ],
      "stateMutability": "view",
      "type": "function"
    },
    {
      "inputs": [],
      "name": "renounceOwnership",
      "outputs": [],
      "stateMutability": "nonpayable",
      "type": "function"
    },
    {
      "inputs": [],
      "name": "serviceFee",
      "outputs": [
        {
          "internalType": "uint16",
          "name": "",
          "type": "uint16"
        }
      ],
      "stateMutability": "view",
      "type": "function"
    },
    {
      "inputs": [],
      "name": "tokenId",
      "outputs": [
        {
          "internalType": "uint256",
          "name": "",
          "type": "uint256"
        }
      ],
      "stateMutability": "view",
      "type": "function"
    },
    {
      "inputs": [
        {
          "internalType": "address",
          "name": "newOwner",
          "type": "address"
        }
      ],
      "name": "transferOwnership",
      "outputs": [],
      "stateMutability": "nonpayable",
      "type": "function"
    },
    {
      "inputs": [],
      "name": "treasury",
      "outputs": [
        {
          "internalType": "address",
          "name": "",
          "type": "address"
        }
      ],
      "stateMutability": "view",
      "type": "function"
    },
    {
      "inputs": [
        {
          "internalType": "uint256",
          "name": "_bnbMintFee",
          "type": "uint256"
        }
      ],
      "name": "updateBNBFee",
      "outputs": [],
      "stateMutability": "nonpayable",
      "type": "function"
    },
    {
      "inputs": [
        {
          "internalType": "address[]",
          "name": "characterAddress",
          "type": "address[]"
        },
        {
          "internalType": "uint256[]",
          "name": "rarities",
          "type": "uint256[]"
        }
      ],
      "name": "updateRarity",
      "outputs": [],
      "stateMutability": "nonpayable",
      "type": "function"
    },
    {
      "inputs": [
        {
          "internalType": "uint16",
          "name": "_serviceFee",
          "type": "uint16"
        }
      ],
      "name": "updateServiceFee",
      "outputs": [],
      "stateMutability": "nonpayable",
      "type": "function"
    },
    {
      "inputs": [
        {
          "internalType": "uint256",
          "name": "_totalSupplied",
          "type": "uint256"
        }
      ],
      "name": "updatetotalSupplied",
      "outputs": [],
      "stateMutability": "nonpayable",
      "type": "function"
    },
    {
      "inputs": [
        {
          "internalType": "address",
          "name": "",
          "type": "address"
        }
      ],
      "name": "userClaimCounter",
      "outputs": [
        {
          "internalType": "uint256",
          "name": "",
          "type": "uint256"
        }
      ],
      "stateMutability": "view",
      "type": "function"
    },
    {
      "inputs": [
        {
          "internalType": "address",
          "name": "",
          "type": "address"
        }
      ],
      "name": "userMintBlock",
      "outputs": [
        {
          "internalType": "uint256",
          "name": "",
          "type": "uint256"
        }
      ],
      "stateMutability": "view",
      "type": "function"
    },
    {
      "stateMutability": "payable",
      "type": "receive"
    }
  ],
  "bytecode": "0x608060405234801561001057600080fd5b50612ad8806100206000396000f3fe6080604052600436106101b05760003560e01c8063715018a6116100ec5780638abdf5aa1161008a578063a50a8ade11610064578063a50a8ade1461051d578063b1acc0c61461053d578063f2fde38b1461056a578063fd09efd91461058a57600080fd5b80638abdf5aa146104975780638da5cb5b146104c5578063903aeead146104f057600080fd5b80637bb2b3c1116100c65780637bb2b3c11461043a5780638129fc1c1461044d57806384686c641461046257806388f046ad1461048257600080fd5b8063715018a6146103d857806376a90231146103ed57806378d5ffab1461041a57600080fd5b806339f501f0116101595780636017ecd9116101335780636017ecd91461032857806361d027b3146103685780636a08928c14610395578063709ec8b4146103a857600080fd5b806339f501f0146102bb5780635041c531146102db5780635e468b01146102fb57600080fd5b806322ef81c91161018a57806322ef81c9146102595780632e9b08191461027957806330be8c85146102a657600080fd5b806306228749146101bc57806307f2e7ee1461021357806317d70f7c1461023557600080fd5b366101b757005b600080fd5b3480156101c857600080fd5b506068546101e99073ffffffffffffffffffffffffffffffffffffffff1681565b60405173ffffffffffffffffffffffffffffffffffffffff90911681526020015b60405180910390f35b34801561021f57600080fd5b5061023361022e3660046125f1565b6105db565b005b34801561024157600080fd5b5061024b60745481565b60405190815260200161020a565b34801561026557600080fd5b50610233610274366004612668565b505050565b34801561028557600080fd5b50606a546101e99073ffffffffffffffffffffffffffffffffffffffff1681565b3480156102b257600080fd5b50606e5461024b565b3480156102c757600080fd5b506102336102d63660046126a3565b61074b565b3480156102e757600080fd5b506102336102f636600461283c565b6109bc565b34801561030757600080fd5b5061024b6103163660046125d7565b607e6020526000908152604090205481565b34801561033457600080fd5b5061035861034336600461283c565b60766020526000908152604090205460ff1681565b604051901515815260200161020a565b34801561037457600080fd5b506067546101e99073ffffffffffffffffffffffffffffffffffffffff1681565b6102336103a3366004612820565b610a42565b3480156103b457600080fd5b506103586103c336600461283c565b60756020526000908152604090205460ff1681565b3480156103e457600080fd5b50610233610f9d565b3480156103f957600080fd5b50606b546101e99073ffffffffffffffffffffffffffffffffffffffff1681565b34801561042657600080fd5b50610233610435366004612820565b61102a565b61023361044836600461283c565b6110e0565b34801561045957600080fd5b5061023361149f565b34801561046e57600080fd5b5061023361047d36600461283c565b61160c565b34801561048e57600080fd5b5061023361171c565b3480156104a357600080fd5b506072546104b29061ffff1681565b60405161ffff909116815260200161020a565b3480156104d157600080fd5b5060335473ffffffffffffffffffffffffffffffffffffffff166101e9565b3480156104fc57600080fd5b5061024b61050b3660046125d7565b607d6020526000908152604090205481565b34801561052957600080fd5b5061023361053836600461283c565b61185a565b34801561054957600080fd5b506069546101e99073ffffffffffffffffffffffffffffffffffffffff1681565b34801561057657600080fd5b506102336105853660046125d7565b6118e0565b34801561059657600080fd5b506105aa6105a536600461283c565b611a0d565b60408051938452602084019290925273ffffffffffffffffffffffffffffffffffffffff169082015260600161020a565b60335473ffffffffffffffffffffffffffffffffffffffff163314610661576040517f08c379a000000000000000000000000000000000000000000000000000000000815260206004820181905260248201527f4f776e61626c653a2063616c6c6572206973206e6f7420746865206f776e657260448201526064015b60405180910390fd5b73ffffffffffffffffffffffffffffffffffffffff881661068157600080fd5b6000841161068e57600080fd5b6000831161069b57600080fd5b6067805473ffffffffffffffffffffffffffffffffffffffff808b167fffffffffffffffffffffffff000000000000000000000000000000000000000092831617909255606880548a8416908316179055606f8590556070849055607183905560698054898416908316179055606a805492881692821692909217909155606b805490911673e9e7cea3dedca5984780bafc599bd69add087d5617905561074184611a56565b5050505050505050565b60335473ffffffffffffffffffffffffffffffffffffffff1633146107cc576040517f08c379a000000000000000000000000000000000000000000000000000000000815260206004820181905260248201527f4f776e61626c653a2063616c6c6572206973206e6f7420746865206f776e65726044820152606401610658565b80518251146107da57600080fd5b6107e6607360006123f6565b60005b82518161ffff16101561027457600060405180606001604052808361ffff168152602001848461ffff168151811061084a577f4e487b7100000000000000000000000000000000000000000000000000000000600052603260045260246000fd5b60200260200101518152602001858461ffff1681518110610894577f4e487b7100000000000000000000000000000000000000000000000000000000600052603260045260246000fd5b60209081029190910181015173ffffffffffffffffffffffffffffffffffffffff90811690925261ffff85166000908152607a825260408082208551815592850180516001808601919091559186018051600290950180549587167fffffffffffffffffffffffff0000000000000000000000000000000000000000968716179055607380549384018155909352945160039091027ff79bde9ddd17963ebce6f7d021d60de7c2bd0db944d23c900c0c0e775f53005281019190915593517ff79bde9ddd17963ebce6f7d021d60de7c2bd0db944d23c900c0c0e775f530053850155517ff79bde9ddd17963ebce6f7d021d60de7c2bd0db944d23c900c0c0e775f530054909301805493909216921691909117905550806109b4816129cf565b9150506107e9565b60335473ffffffffffffffffffffffffffffffffffffffff163314610a3d576040517f08c379a000000000000000000000000000000000000000000000000000000000815260206004820181905260248201527f4f776e61626c653a2063616c6c6572206973206e6f7420746865206f776e65726044820152606401610658565b607755565b6002607b541415610aaf576040517f08c379a000000000000000000000000000000000000000000000000000000000815260206004820152601f60248201527f5265656e7472616e637947756172643a207265656e7472616e742063616c6c006044820152606401610658565b6002607b55600f61ffff82161115610b23576040517f08c379a000000000000000000000000000000000000000000000000000000000815260206004820152600860248201527f5155414e544954590000000000000000000000000000000000000000000000006044820152606401610658565b607754610b349061ffff8316611b5a565b341015610b9d576040517f08c379a000000000000000000000000000000000000000000000000000000000815260206004820152600360248201527f46454500000000000000000000000000000000000000000000000000000000006044820152606401610658565b333b15610c06576040517f08c379a000000000000000000000000000000000000000000000000000000000815260206004820152600660248201527f53454e44455200000000000000000000000000000000000000000000000000006044820152606401610658565b607254606f54600091610c3b91620186a091610c359161ffff91821691610c2f91908816611b5a565b90611b5a565b90611b6d565b90506000610c5d600a610c358561ffff16606f54611b5a90919063ffffffff16565b60695490915073ffffffffffffffffffffffffffffffffffffffff166323b872dd3360685460405160e084901b7fffffffff0000000000000000000000000000000000000000000000000000000016815273ffffffffffffffffffffffffffffffffffffffff92831660048201529116602482015260448101859052606401602060405180830381600087803b158015610cf657600080fd5b505af1158015610d0a573d6000803e3d6000fd5b505050506040513d601f19601f82011682018060405250810190610d2e9190612800565b5060695473ffffffffffffffffffffffffffffffffffffffff166323b872dd33607f5460405160e084901b7fffffffff0000000000000000000000000000000000000000000000000000000016815273ffffffffffffffffffffffffffffffffffffffff92831660048201529116602482015260448101849052606401602060405180830381600087803b158015610dc557600080fd5b505af1158015610dd9573d6000803e3d6000fd5b505050506040513d601f19601f82011682018060405250810190610dfd9190612800565b5060695473ffffffffffffffffffffffffffffffffffffffff166323b872dd3360675473ffffffffffffffffffffffffffffffffffffffff16610e5a610e43868861294f565b606f54610e549061ffff8b16611b5a565b90611b79565b6040517fffffffff0000000000000000000000000000000000000000000000000000000060e086901b16815273ffffffffffffffffffffffffffffffffffffffff93841660048201529290911660248301526044820152606401602060405180830381600087803b158015610ece57600080fd5b505af1158015610ee2573d6000803e3d6000fd5b505050506040513d601f19601f82011682018060405250810190610f069190612800565b50336000908152607e602052604081204390555b8361ffff168161ffff161015610f5f57607454610f38906001611b85565b6074819055606f54610f4d9190600033611b91565b80610f57816129cf565b915050610f1a565b506040518181527fb8f6f76d863e26e7d175affcf5fc4b758c32e465f44adc5fd43b1ea408e2f9ba9060200160405180910390a150506001607b5550565b60335473ffffffffffffffffffffffffffffffffffffffff16331461101e576040517f08c379a000000000000000000000000000000000000000000000000000000000815260206004820181905260248201527f4f776e61626c653a2063616c6c6572206973206e6f7420746865206f776e65726044820152606401610658565b6110286000611ded565b565b60335473ffffffffffffffffffffffffffffffffffffffff1633146110ab576040517f08c379a000000000000000000000000000000000000000000000000000000000815260206004820181905260248201527f4f776e61626c653a2063616c6c6572206973206e6f7420746865206f776e65726044820152606401610658565b607280547fffffffffffffffffffffffffffffffffffffffffffffffffffffffffffff00001661ffff92909216919091179055565b6002607b54141561114d576040517f08c379a000000000000000000000000000000000000000000000000000000000815260206004820152601f60248201527f5265656e7472616e637947756172643a207265656e7472616e742063616c6c006044820152606401610658565b6002607b55336000908152607d6020526040902054806111c9576040517f08c379a000000000000000000000000000000000000000000000000000000000815260206004820152600d60248201527f494e56414c49445f434c41494d000000000000000000000000000000000000006044820152606401610658565b336000908152607e60205260409020544311611241576040517f08c379a000000000000000000000000000000000000000000000000000000000815260206004820152600d60248201527f494e56414c49445f424c4f434b000000000000000000000000000000000000006044820152606401610658565b60005b818161ffff16101561148557336000908152607c6020908152604080832061ffff851684528252808320815160a081018352815473ffffffffffffffffffffffffffffffffffffffff1681526001820154818501526002820154818401526003820154606082015260048201805484518187028101870190955280855291949293608086019390929083018282801561132457602002820191906000526020600020906000905b82829054906101000a900461ffff1661ffff16815260200190600201906020826001010492830192600103820291508084116112eb5790505b505050919092525050815160208301516040517fc2ca0ac5000000000000000000000000000000000000000000000000000000008152600481019190915292935073ffffffffffffffffffffffffffffffffffffffff169163c2ca0ac59150602401600060405180830381600087803b1580156113a057600080fd5b505af11580156113b4573d6000803e3d6000fd5b5050825160208401516040808601516060870151608088015192517f5174132ee50ec2a574f4380a7f42fcc1014ab5cf2ef1541f13fdee56a4a452aa9750611400965033949390612854565b60405180910390a1336000908152607c6020908152604080832061ffff86168452909152812080547fffffffffffffffffffffffff00000000000000000000000000000000000000001681556001810182905560028101829055600381018290559061146f6004830182612417565b505050808061147d906129cf565b915050611244565b5050336000908152607d6020526040812055506001607b55565b600054610100900460ff16806114b8575060005460ff16155b611544576040517f08c379a000000000000000000000000000000000000000000000000000000000815260206004820152602e60248201527f496e697469616c697a61626c653a20636f6e747261637420697320616c72656160448201527f647920696e697469616c697a65640000000000000000000000000000000000006064820152608401610658565b600054610100900460ff1615801561158357600080547fffffffffffffffffffffffffffffffffffffffffffffffffffffffffffff0000166101011790555b61158b611e64565b6013606681905560785560c76079556000606d819055607280547fffffffffffffffffffffffffffffffffffffffffffffffffffffffffffff00001661271017905560745565b5e620f48000607755801561160957600080547fffffffffffffffffffffffffffffffffffffffffffffffffffffffffffff00ff1690555b50565b60335473ffffffffffffffffffffffffffffffffffffffff16331461168d576040517f08c379a000000000000000000000000000000000000000000000000000000000815260206004820181905260248201527f4f776e61626c653a2063616c6c6572206973206e6f7420746865206f776e65726044820152606401610658565b6073546116f6576040517f08c379a000000000000000000000000000000000000000000000000000000000815260206004820152601960248201527f436861726163746572206e6f7420696e697469616c697a6564000000000000006044820152606401610658565b8061171357611609606c546103e861170e919061294f565b611a56565b61160981611a56565b60335473ffffffffffffffffffffffffffffffffffffffff16331461179d576040517f08c379a000000000000000000000000000000000000000000000000000000000815260206004820181905260248201527f4f776e61626c653a2063616c6c6572206973206e6f7420746865206f776e65726044820152606401610658565b6040514790600090339061753090849084818181858888f193505050503d80600081146117e6576040519150601f19603f3d011682016040523d82523d6000602084013e6117eb565b606091505b5050905080611856576040517f08c379a000000000000000000000000000000000000000000000000000000000815260206004820152601860248201527f4661696c656420746f207472616e7366657220457468657200000000000000006044820152606401610658565b5050565b60335473ffffffffffffffffffffffffffffffffffffffff1633146118db576040517f08c379a000000000000000000000000000000000000000000000000000000000815260206004820181905260248201527f4f776e61626c653a2063616c6c6572206973206e6f7420746865206f776e65726044820152606401610658565b606d55565b60335473ffffffffffffffffffffffffffffffffffffffff163314611961576040517f08c379a000000000000000000000000000000000000000000000000000000000815260206004820181905260248201527f4f776e61626c653a2063616c6c6572206973206e6f7420746865206f776e65726044820152606401610658565b73ffffffffffffffffffffffffffffffffffffffff8116611a04576040517f08c379a000000000000000000000000000000000000000000000000000000000815260206004820152602660248201527f4f776e61626c653a206e6577206f776e657220697320746865207a65726f206160448201527f64647265737300000000000000000000000000000000000000000000000000006064820152608401610658565b61160981611ded565b60738181548110611a1d57600080fd5b600091825260209091206003909102018054600182015460029092015490925073ffffffffffffffffffffffffffffffffffffffff1683565b6073541561160957606c81905560005b60735461ffff821610156118565760738161ffff1681548110611ab2577f4e487b7100000000000000000000000000000000000000000000000000000000600052603260045260246000fd5b60009182526020909120600390910201600201546040517ff103b4330000000000000000000000000000000000000000000000000000000081526004810184905273ffffffffffffffffffffffffffffffffffffffff9091169063f103b43390602401600060405180830381600087803b158015611b2f57600080fd5b505af1158015611b43573d6000803e3d6000fd5b505050508080611b52906129cf565b915050611a66565b6000611b66828461297b565b9392505050565b6000611b668284612967565b6000611b6682846129b8565b6000611b66828461294f565b6000611b9b611f89565b905073ffffffffffffffffffffffffffffffffffffffff8116611c1a576040517f08c379a000000000000000000000000000000000000000000000000000000000815260206004820152601360248201527f494e56414c49445f4e46545f41444452455353000000000000000000000000006044820152606401610658565b6040517fd015a94000000000000000000000000000000000000000000000000000000000815273ffffffffffffffffffffffffffffffffffffffff8381166004830152602482018790526060919083169063d015a94090604401600060405180830381600087803b158015611c8e57600080fd5b505af1158015611ca2573d6000803e3d6000fd5b505050506040513d6000823e601f3d9081017fffffffffffffffffffffffffffffffffffffffffffffffffffffffffffffffe0168201604052611ce89190810190612764565b6040805160a08101825273ffffffffffffffffffffffffffffffffffffffff858116825260208083018b81528385018b8152606085018b8152608086018881528b86166000908152607c8652888120607d8752898220548252865297909720865181547fffffffffffffffffffffffff00000000000000000000000000000000000000001696169590951785559151600185015551600284015551600383015592518051949550919384939192611da692600485019291019061243c565b50505073ffffffffffffffffffffffffffffffffffffffff84166000908152607d60205260408120805460019290611ddf90849061294f565b909155505050505050505050565b6033805473ffffffffffffffffffffffffffffffffffffffff8381167fffffffffffffffffffffffff0000000000000000000000000000000000000000831681179093556040519116919082907f8be0079c531659141344cd1fd0a4f28419497f9722a3daafe3b4186f6b6457e090600090a35050565b600054610100900460ff1680611e7d575060005460ff16155b611f09576040517f08c379a000000000000000000000000000000000000000000000000000000000815260206004820152602e60248201527f496e697469616c697a61626c653a20636f6e747261637420697320616c72656160448201527f647920696e697469616c697a65640000000000000000000000000000000000006064820152608401610658565b600054610100900460ff16158015611f4857600080547fffffffffffffffffffffffffffffffffffffffffffffffffffffffffffff0000166101011790555b611f506120f7565b611f5861220b565b801561160957600080547fffffffffffffffffffffffffffffffffffffffffffffffffffffffffffff00ff16905550565b607354600090600b10611ff8576040517f08c379a000000000000000000000000000000000000000000000000000000000815260206004820152601960248201527f436861726163746572206e6f7420696e697469616c697a6564000000000000006044820152606401610658565b6000612007600061270c6122f8565b905060005b60735461ffff821610156120f25760738161ffff1681548110612058577f4e487b7100000000000000000000000000000000000000000000000000000000600052603260045260246000fd5b9060005260206000209060030201600101548210156120e05760738161ffff16815481106120af577f4e487b7100000000000000000000000000000000000000000000000000000000600052603260045260246000fd5b600091825260209091206002600390920201015473ffffffffffffffffffffffffffffffffffffffff169392505050565b806120ea816129cf565b91505061200c565b505090565b600054610100900460ff1680612110575060005460ff16155b61219c576040517f08c379a000000000000000000000000000000000000000000000000000000000815260206004820152602e60248201527f496e697469616c697a61626c653a20636f6e747261637420697320616c72656160448201527f647920696e697469616c697a65640000000000000000000000000000000000006064820152608401610658565b600054610100900460ff16158015611f5857600080547fffffffffffffffffffffffffffffffffffffffffffffffffffffffffffff000016610101179055801561160957600080547fffffffffffffffffffffffffffffffffffffffffffffffffffffffffffff00ff16905550565b600054610100900460ff1680612224575060005460ff16155b6122b0576040517f08c379a000000000000000000000000000000000000000000000000000000000815260206004820152602e60248201527f496e697469616c697a61626c653a20636f6e747261637420697320616c72656160448201527f647920696e697469616c697a65640000000000000000000000000000000000006064820152608401610658565b600054610100900460ff161580156122ef57600080547fffffffffffffffffffffffffffffffffffffffffffffffffffffffffffff0000166101011790555b611f5833611ded565b60006123a561230784846129b8565b60745460795460785460665460408051602081019590955284019290925242606080850191909152608084019190915233901b7fffffffffffffffffffffffffffffffffffffffff0000000000000000000000001660a083015260b482015260d401604080517fffffffffffffffffffffffffffffffffffffffffffffffffffffffffffffffe08184030181529190528051602090910120906123ea565b90506123b1838261294f565b6066549091506123c290600b611b85565b6066556123d0816002611b5a565b6078556079546123e190604d611b85565b60795592915050565b6000611b6682846129f1565b508054600082556003029060005260206000209081019061160991906124e5565b50805460008255600f016010900490600052602060002090810190611609919061252a565b82805482825590600052602060002090600f016010900481019282156124d55791602002820160005b838211156124a557835183826101000a81548161ffff021916908361ffff1602179055509260200192600201602081600101049283019260010302612465565b80156124d35782816101000a81549061ffff02191690556002016020816001010492830192600103026124a5565b505b506124e192915061252a565b5090565b5b808211156124e157600080825560018201556002810180547fffffffffffffffffffffffff00000000000000000000000000000000000000001690556003016124e6565b5b808211156124e1576000815560010161252b565b803573ffffffffffffffffffffffffffffffffffffffff8116811461256357600080fd5b919050565b600082601f830112612578578081fd5b8135602061258d6125888361292b565b6128dc565b80838252828201915082860187848660051b89010111156125ac578586fd5b855b858110156125ca578135845292840192908401906001016125ae565b5090979650505050505050565b6000602082840312156125e8578081fd5b611b668261253f565b600080600080600080600080610100898b03121561260d578384fd5b6126168961253f565b975061262460208a0161253f565b965061263260408a0161253f565b955061264060608a0161253f565b979a969950949760808101359660a0820135965060c0820135955060e0909101359350915050565b60008060006060848603121561267c578283fd5b6126858461253f565b92506126936020850161253f565b9150604084013590509250925092565b600080604083850312156126b5578182fd5b823567ffffffffffffffff808211156126cc578384fd5b818501915085601f8301126126df578384fd5b813560206126ef6125888361292b565b8083825282820191508286018a848660051b890101111561270e578889fd5b8896505b84871015612737576127238161253f565b835260019690960195918301918301612712565b509650508601359250508082111561274d578283fd5b5061275a85828601612568565b9150509250929050565b60006020808385031215612776578182fd5b825167ffffffffffffffff81111561278c578283fd5b8301601f8101851361279c578283fd5b80516127aa6125888261292b565b80828252848201915084840188868560051b87010111156127c9578687fd5b8694505b838510156127f45780516127e081612a92565b8352600194909401939185019185016127cd565b50979650505050505050565b600060208284031215612811578081fd5b81518015158114611b66578182fd5b600060208284031215612831578081fd5b8135611b6681612a92565b60006020828403121561284d578081fd5b5035919050565b600060c0820173ffffffffffffffffffffffffffffffffffffffff808a1684526020818a168186015288604086015287606086015286608086015260c060a0860152829150855180845260e0860192508187019350845b818110156128cb57845161ffff16845293820193928201926001016128ab565b50919b9a5050505050505050505050565b604051601f82017fffffffffffffffffffffffffffffffffffffffffffffffffffffffffffffffe016810167ffffffffffffffff8111828210171561292357612923612a63565b604052919050565b600067ffffffffffffffff82111561294557612945612a63565b5060051b60200190565b6000821982111561296257612962612a05565b500190565b60008261297657612976612a34565b500490565b6000817fffffffffffffffffffffffffffffffffffffffffffffffffffffffffffffffff04831182151516156129b3576129b3612a05565b500290565b6000828210156129ca576129ca612a05565b500390565b600061ffff808316818114156129e7576129e7612a05565b6001019392505050565b600082612a0057612a00612a34565b500690565b7f4e487b7100000000000000000000000000000000000000000000000000000000600052601160045260246000fd5b7f4e487b7100000000000000000000000000000000000000000000000000000000600052601260045260246000fd5b7f4e487b7100000000000000000000000000000000000000000000000000000000600052604160045260246000fd5b61ffff8116811461160957600080fdfea2646970667358221220aec6ed39b17e32233498b327aa75bd338265a2bdf2f55d550c918e3b27ec15e864736f6c63430008040033",
  "linkReferences": {},
  "deployedLinkReferences": {}
}