{
  "_format": "hh-sol-artifact-1",
  "contractName": "ReferralBonus",
  "sourceName": "contracts/referral/ReferralBonus.sol",
  "abi": [
    {
      "anonymous": false,
      "inputs": [
        {
          "indexed": true,
          "internalType": "address",
          "name": "owner",
          "type": "address"
        },
        {
          "indexed": false,
          "internalType": "uint256",
          "name": "amount",
          "type": "uint256"
        },
        {
          "indexed": false,
          "internalType": "uint256",
          "name": "claimId",
          "type": "uint256"
        }
      ],
      "name": "ClaimBonusRewardSuccess",
      "type": "event"
    },
    {
      "anonymous": false,
      "inputs": [
        {
          "indexed": true,
          "internalType": "address",
          "name": "owner",
          "type": "address"
        },
        {
          "indexed": false,
          "internalType": "uint256",
          "name": "amount",
          "type": "uint256"
        }
      ],
      "name": "NewReferral",
      "type": "event"
    },
    {
      "anonymous": false,
      "inputs": [
        {
          "indexed": true,
          "internalType": "address",
          "name": "previousOwner",
          "type": "address"
        },
        {
          "indexed": true,
          "internalType": "address",
          "name": "newOwner",
          "type": "address"
        }
      ],
      "name": "OwnershipTransferred",
      "type": "event"
    },
    {
      "inputs": [
        {
          "internalType": "uint256",
          "name": "_amount",
          "type": "uint256"
        },
        {
          "internalType": "uint256",
          "name": "_claimId",
          "type": "uint256"
        },
        {
          "internalType": "bytes",
          "name": "_signature",
          "type": "bytes"
        }
      ],
      "name": "claimBonusReward",
      "outputs": [],
      "stateMutability": "nonpayable",
      "type": "function"
    },
    {
      "inputs": [
        {
          "internalType": "uint256",
          "name": "_rewardPerInvitation",
          "type": "uint256"
        },
        {
          "internalType": "address",
          "name": "_rewardTokenAddress",
          "type": "address"
        },
        {
          "internalType": "address",
          "name": "_rewardWallet",
          "type": "address"
        }
      ],
      "name": "initialize",
      "outputs": [],
      "stateMutability": "nonpayable",
      "type": "function"
    },
    {
      "inputs": [],
      "name": "owner",
      "outputs": [
        {
          "internalType": "address",
          "name": "",
          "type": "address"
        }
      ],
      "stateMutability": "view",
      "type": "function"
    },
    {
      "inputs": [],
      "name": "pause",
      "outputs": [
        {
          "internalType": "bool",
          "name": "",
          "type": "bool"
        }
      ],
      "stateMutability": "view",
      "type": "function"
    },
    {
      "inputs": [],
      "name": "renounceOwnership",
      "outputs": [],
      "stateMutability": "nonpayable",
      "type": "function"
    },
    {
      "inputs": [],
      "name": "rewardPerInvitation",
      "outputs": [
        {
          "internalType": "uint256",
          "name": "",
          "type": "uint256"
        }
      ],
      "stateMutability": "view",
      "type": "function"
    },
    {
      "inputs": [],
      "name": "rewardTokenAddress",
      "outputs": [
        {
          "internalType": "contract IERC20",
          "name": "",
          "type": "address"
        }
      ],
      "stateMutability": "view",
      "type": "function"
    },
    {
      "inputs": [],
      "name": "rewardWallet",
      "outputs": [
        {
          "internalType": "address",
          "name": "",
          "type": "address"
        }
      ],
      "stateMutability": "view",
      "type": "function"
    },
    {
      "inputs": [
        {
          "internalType": "bool",
          "name": "_pause",
          "type": "bool"
        }
      ],
      "name": "setPause",
      "outputs": [],
      "stateMutability": "nonpayable",
      "type": "function"
    },
    {
      "inputs": [
        {
          "internalType": "address",
          "name": "_rewardTokenAddress",
          "type": "address"
        }
      ],
      "name": "setRewardTokenAddress",
      "outputs": [],
      "stateMutability": "nonpayable",
      "type": "function"
    },
    {
      "inputs": [
        {
          "internalType": "address",
          "name": "_rewardWallet",
          "type": "address"
        }
      ],
      "name": "setRewardTokenWalletAddress",
      "outputs": [],
      "stateMutability": "nonpayable",
      "type": "function"
    },
    {
      "inputs": [
        {
          "internalType": "address[]",
          "name": "_operator",
          "type": "address[]"
        },
        {
          "internalType": "bool",
          "name": "_whitelist",
          "type": "bool"
        }
      ],
      "name": "setWhitelistOperator",
      "outputs": [],
      "stateMutability": "nonpayable",
      "type": "function"
    },
    {
      "inputs": [
        {
          "internalType": "address",
          "name": "newOwner",
          "type": "address"
        }
      ],
      "name": "transferOwnership",
      "outputs": [],
      "stateMutability": "nonpayable",
      "type": "function"
    },
    {
      "inputs": [
        {
          "internalType": "uint256",
          "name": "_rewardPerInvitation",
          "type": "uint256"
        }
      ],
      "name": "updateRewardPerInvitation",
      "outputs": [],
      "stateMutability": "nonpayable",
      "type": "function"
    },
    {
      "inputs": [
        {
          "internalType": "address",
          "name": "",
          "type": "address"
        },
        {
          "internalType": "uint256",
          "name": "",
          "type": "uint256"
        }
      ],
      "name": "userRewarded",
      "outputs": [
        {
          "internalType": "bool",
          "name": "",
          "type": "bool"
        }
      ],
      "stateMutability": "view",
      "type": "function"
    },
    {
      "inputs": [
        {
          "internalType": "address",
          "name": "",
          "type": "address"
        }
      ],
      "name": "userRewards",
      "outputs": [
        {
          "internalType": "uint256",
          "name": "rewardAmount",
          "type": "uint256"
        },
        {
          "internalType": "uint256",
          "name": "deptAmount",
          "type": "uint256"
        }
      ],
      "stateMutability": "view",
      "type": "function"
    },
    {
      "inputs": [
        {
          "internalType": "address",
          "name": "",
          "type": "address"
        }
      ],
      "name": "whitelistOperator",
      "outputs": [
        {
          "internalType": "bool",
          "name": "",
          "type": "bool"
        }
      ],
      "stateMutability": "view",
      "type": "function"
    }
  ],
  "bytecode": "0x608060405234801561001057600080fd5b50611b74806100206000396000f3fe608060405234801561001057600080fd5b506004361061011b5760003560e01c8063886928d5116100b2578063b4988fd011610081578063f2fde38b11610066578063f2fde38b146102c5578063fb75b2c7146102d8578063ff69ec72146102f857600080fd5b8063b4988fd01461029f578063bedb86fb146102b257600080fd5b8063886928d5146102445780638da5cb5b146102575780639a6acf2014610275578063a7aec9eb1461028857600080fd5b806361aaaacf116100ee57806361aaaacf146101ee578063715018a61461020157806381081730146102095780638456cb591461023757600080fd5b80630660f1e814610120578063125f9e33146101615780632a2b0bcd146101a65780632bda684c146101d9575b600080fd5b61014761012e3660046118df565b609b602052600090815260409020805460019091015482565b604080519283526020830191909152015b60405180910390f35b6099546101819073ffffffffffffffffffffffffffffffffffffffff1681565b60405173ffffffffffffffffffffffffffffffffffffffff9091168152602001610158565b6101c96101b43660046118df565b609d6020526000908152604090205460ff1681565b6040519015158152602001610158565b6101ec6101e73660046118df565b61030b565b005b6101ec6101fc3660046119e2565b6103f8565b6101ec6104e8565b6101c9610217366004611900565b609c60209081526000928352604080842090915290825290205460ff1681565b6097546101c99060ff1681565b6101ec610252366004611929565b610575565b60335473ffffffffffffffffffffffffffffffffffffffff16610181565b6101ec6102833660046118df565b610726565b61029160985481565b604051908152602001610158565b6101ec6102ad3660046119fa565b61080e565b6101ec6102c03660046119aa565b610a2a565b6101ec6102d33660046118df565b610adc565b609a546101819073ffffffffffffffffffffffffffffffffffffffff1681565b6101ec610306366004611a35565b610c0c565b60335473ffffffffffffffffffffffffffffffffffffffff163314610391576040517f08c379a000000000000000000000000000000000000000000000000000000000815260206004820181905260248201527f4f776e61626c653a2063616c6c6572206973206e6f7420746865206f776e657260448201526064015b60405180910390fd5b73ffffffffffffffffffffffffffffffffffffffff81166103b157600080fd5b609a80547fffffffffffffffffffffffff00000000000000000000000000000000000000001673ffffffffffffffffffffffffffffffffffffffff92909216919091179055565b60335473ffffffffffffffffffffffffffffffffffffffff163314610479576040517f08c379a000000000000000000000000000000000000000000000000000000000815260206004820181905260248201527f4f776e61626c653a2063616c6c6572206973206e6f7420746865206f776e65726044820152606401610388565b600081116104e3576040517f08c379a000000000000000000000000000000000000000000000000000000000815260206004820152601b60248201527f726577617264506572496e7669746174696f6e206973207a65726f00000000006044820152606401610388565b609855565b60335473ffffffffffffffffffffffffffffffffffffffff163314610569576040517f08c379a000000000000000000000000000000000000000000000000000000000815260206004820181905260248201527f4f776e61626c653a2063616c6c6572206973206e6f7420746865206f776e65726044820152606401610388565b61057360006110fc565b565b60335473ffffffffffffffffffffffffffffffffffffffff1633146105f6576040517f08c379a000000000000000000000000000000000000000000000000000000000815260206004820181905260248201527f4f776e61626c653a2063616c6c6572206973206e6f7420746865206f776e65726044820152606401610388565b8161065d576040517f08c379a000000000000000000000000000000000000000000000000000000000815260206004820152600d60248201527f546f74616c20696e76616c6964000000000000000000000000000000000000006044820152606401610388565b60005b828110156107205781609d60008686858181106106a6577f4e487b7100000000000000000000000000000000000000000000000000000000600052603260045260246000fd5b90506020020160208101906106bb91906118df565b73ffffffffffffffffffffffffffffffffffffffff168152602081019190915260400160002080547fffffffffffffffffffffffffffffffffffffffffffffffffffffffffffffff00169115159190911790558061071881611ac8565b915050610660565b50505050565b60335473ffffffffffffffffffffffffffffffffffffffff1633146107a7576040517f08c379a000000000000000000000000000000000000000000000000000000000815260206004820181905260248201527f4f776e61626c653a2063616c6c6572206973206e6f7420746865206f776e65726044820152606401610388565b73ffffffffffffffffffffffffffffffffffffffff81166107c757600080fd5b609980547fffffffffffffffffffffffff00000000000000000000000000000000000000001673ffffffffffffffffffffffffffffffffffffffff92909216919091179055565b600054610100900460ff1680610827575060005460ff16155b6108b3576040517f08c379a000000000000000000000000000000000000000000000000000000000815260206004820152602e60248201527f496e697469616c697a61626c653a20636f6e747261637420697320616c72656160448201527f647920696e697469616c697a65640000000000000000000000000000000000006064820152608401610388565b600054610100900460ff161580156108f257600080547fffffffffffffffffffffffffffffffffffffffffffffffffffffffffffff0000166101011790555b6000841161095c576040517f08c379a000000000000000000000000000000000000000000000000000000000815260206004820152601b60248201527f726577617264506572496e7669746174696f6e206973207a65726f00000000006044820152606401610388565b610964611173565b61096c611290565b610974611384565b609780547fffffffffffffffffffffffffffffffffffffffffffffffffffffffffffffff0016905560988490556099805473ffffffffffffffffffffffffffffffffffffffff8086167fffffffffffffffffffffffff000000000000000000000000000000000000000092831617909255609a805492851692909116919091179055801561072057600080547fffffffffffffffffffffffffffffffffffffffffffffffffffffffffffff00ff16905550505050565b60335473ffffffffffffffffffffffffffffffffffffffff163314610aab576040517f08c379a000000000000000000000000000000000000000000000000000000000815260206004820181905260248201527f4f776e61626c653a2063616c6c6572206973206e6f7420746865206f776e65726044820152606401610388565b609780547fffffffffffffffffffffffffffffffffffffffffffffffffffffffffffffff0016911515919091179055565b60335473ffffffffffffffffffffffffffffffffffffffff163314610b5d576040517f08c379a000000000000000000000000000000000000000000000000000000000815260206004820181905260248201527f4f776e61626c653a2063616c6c6572206973206e6f7420746865206f776e65726044820152606401610388565b73ffffffffffffffffffffffffffffffffffffffff8116610c00576040517f08c379a000000000000000000000000000000000000000000000000000000000815260206004820152602660248201527f4f776e61626c653a206e6577206f776e657220697320746865207a65726f206160448201527f64647265737300000000000000000000000000000000000000000000000000006064820152608401610388565b610c09816110fc565b50565b60026065541415610c79576040517f08c379a000000000000000000000000000000000000000000000000000000000815260206004820152601f60248201527f5265656e7472616e637947756172643a207265656e7472616e742063616c6c006044820152606401610388565b60026065553315801590610c8d5750333014155b610c9657600080fd5b60975460ff1615610d03576040517f08c379a000000000000000000000000000000000000000000000000000000000815260206004820152601560248201527f526566657272616c426f6e75733a2050617573656400000000000000000000006044820152606401610388565b336000908152609c6020908152604080832086845290915290205460ff1615610d88576040517f08c379a000000000000000000000000000000000000000000000000000000000815260206004820152600760248201527f434c41494d4544000000000000000000000000000000000000000000000000006044820152606401610388565b604080517fffffffffffffffffffffffffffffffffffffffff0000000000000000000000003360601b16602080830191909152603482018790526054808301879052835180840390910181526074830184528051908201207f19457468657265756d205369676e6564204d6573736167653a0a333200000000609484015260b08084018290528451808503909101815260d090930190935281519101206000610e678286868080601f01602080910402602001604051908101604052809392919081815260200183838082843760009201919091525061147092505050565b73ffffffffffffffffffffffffffffffffffffffff81166000908152609d602052604090205490915060ff16610ef9576040517f08c379a000000000000000000000000000000000000000000000000000000000815260206004820152600e60248201527f494e56414c49445f5349474e45520000000000000000000000000000000000006044820152606401610388565b336000908152609b6020526040902060010154610f17908890611ab0565b336000818152609b60209081526040808320600190810195909555609c82528083208b8452825280832080547fffffffffffffffffffffffffffffffffffffffffffffffffffffffffffffff0016909517909455609954609a5485517f23b872dd00000000000000000000000000000000000000000000000000000000815273ffffffffffffffffffffffffffffffffffffffff91821660048201526024810195909552604485018d905294519416936323b872dd93606480820194918390030190829087803b158015610fea57600080fd5b505af1158015610ffe573d6000803e3d6000fd5b505050506040513d601f19601f8201168201806040525081019061102291906119c6565b15156001146110b3576040517f08c379a000000000000000000000000000000000000000000000000000000000815260206004820152602560248201527f526566657272616c426f6e75733a205472616e7366657220726577617264206660448201527f61696c65640000000000000000000000000000000000000000000000000000006064820152608401610388565b604080518881526020810188905233917fe14d1e50960f932f46e620964b5b471cbb40b29b424aeb024d824331e4061510910160405180910390a2505060016065555050505050565b6033805473ffffffffffffffffffffffffffffffffffffffff8381167fffffffffffffffffffffffff0000000000000000000000000000000000000000831681179093556040519116919082907f8be0079c531659141344cd1fd0a4f28419497f9722a3daafe3b4186f6b6457e090600090a35050565b600054610100900460ff168061118c575060005460ff16155b611218576040517f08c379a000000000000000000000000000000000000000000000000000000000815260206004820152602e60248201527f496e697469616c697a61626c653a20636f6e747261637420697320616c72656160448201527f647920696e697469616c697a65640000000000000000000000000000000000006064820152608401610388565b600054610100900460ff1615801561125757600080547fffffffffffffffffffffffffffffffffffffffffffffffffffffffffffff0000166101011790555b61125f61150d565b8015610c0957600080547fffffffffffffffffffffffffffffffffffffffffffffffffffffffffffff00ff16905550565b600054610100900460ff16806112a9575060005460ff16155b611335576040517f08c379a000000000000000000000000000000000000000000000000000000000815260206004820152602e60248201527f496e697469616c697a61626c653a20636f6e747261637420697320616c72656160448201527f647920696e697469616c697a65640000000000000000000000000000000000006064820152608401610388565b600054610100900460ff1615801561137457600080547fffffffffffffffffffffffffffffffffffffffffffffffffffffffffffff0000166101011790555b61137c61150d565b61125f611621565b600054610100900460ff168061139d575060005460ff16155b611429576040517f08c379a000000000000000000000000000000000000000000000000000000000815260206004820152602e60248201527f496e697469616c697a61626c653a20636f6e747261637420697320616c72656160448201527f647920696e697469616c697a65640000000000000000000000000000000000006064820152608401610388565b600054610100900460ff1615801561146857600080547fffffffffffffffffffffffffffffffffffffffffffffffffffffffffffff0000166101011790555b61125f61170e565b60008060008061147f85611828565b6040805160008152602081018083528b905260ff8316918101919091526060810184905260808101839052929550909350915060019060a0016020604051602081039080840390855afa1580156114da573d6000803e3d6000fd5b50506040517fffffffffffffffffffffffffffffffffffffffffffffffffffffffffffffffe00151979650505050505050565b600054610100900460ff1680611526575060005460ff16155b6115b2576040517f08c379a000000000000000000000000000000000000000000000000000000000815260206004820152602e60248201527f496e697469616c697a61626c653a20636f6e747261637420697320616c72656160448201527f647920696e697469616c697a65640000000000000000000000000000000000006064820152608401610388565b600054610100900460ff1615801561125f57600080547fffffffffffffffffffffffffffffffffffffffffffffffffffffffffffff0000166101011790558015610c0957600080547fffffffffffffffffffffffffffffffffffffffffffffffffffffffffffff00ff16905550565b600054610100900460ff168061163a575060005460ff16155b6116c6576040517f08c379a000000000000000000000000000000000000000000000000000000000815260206004820152602e60248201527f496e697469616c697a61626c653a20636f6e747261637420697320616c72656160448201527f647920696e697469616c697a65640000000000000000000000000000000000006064820152608401610388565b600054610100900460ff1615801561170557600080547fffffffffffffffffffffffffffffffffffffffffffffffffffffffffffff0000166101011790555b61125f336110fc565b600054610100900460ff1680611727575060005460ff16155b6117b3576040517f08c379a000000000000000000000000000000000000000000000000000000000815260206004820152602e60248201527f496e697469616c697a61626c653a20636f6e747261637420697320616c72656160448201527f647920696e697469616c697a65640000000000000000000000000000000000006064820152608401610388565b600054610100900460ff161580156117f257600080547fffffffffffffffffffffffffffffffffffffffffffffffffffffffffffff0000166101011790555b60016065558015610c0957600080547fffffffffffffffffffffffffffffffffffffffffffffffffffffffffffff00ff16905550565b60008060008351604114611898576040517f08c379a000000000000000000000000000000000000000000000000000000000815260206004820152601860248201527f696e76616c6964207369676e6174757265206c656e67746800000000000000006044820152606401610388565b50505060208101516040820151606090920151909260009190911a90565b803573ffffffffffffffffffffffffffffffffffffffff811681146118da57600080fd5b919050565b6000602082840312156118f0578081fd5b6118f9826118b6565b9392505050565b60008060408385031215611912578081fd5b61191b836118b6565b946020939093013593505050565b60008060006040848603121561193d578081fd5b833567ffffffffffffffff80821115611954578283fd5b818601915086601f830112611967578283fd5b813581811115611975578384fd5b8760208260051b8501011115611989578384fd5b6020928301955093505084013561199f81611b30565b809150509250925092565b6000602082840312156119bb578081fd5b81356118f981611b30565b6000602082840312156119d7578081fd5b81516118f981611b30565b6000602082840312156119f3578081fd5b5035919050565b600080600060608486031215611a0e578283fd5b83359250611a1e602085016118b6565b9150611a2c604085016118b6565b90509250925092565b60008060008060608587031215611a4a578081fd5b8435935060208501359250604085013567ffffffffffffffff80821115611a6f578283fd5b818701915087601f830112611a82578283fd5b813581811115611a90578384fd5b886020828501011115611aa1578384fd5b95989497505060200194505050565b60008219821115611ac357611ac3611b01565b500190565b60007fffffffffffffffffffffffffffffffffffffffffffffffffffffffffffffffff821415611afa57611afa611b01565b5060010190565b7f4e487b7100000000000000000000000000000000000000000000000000000000600052601160045260246000fd5b8015158114610c0957600080fdfea264697066735822122094d321e7483e9cb05c09fef8a33a62abec0457ad7fc1ee562756b5c1e3e9a15664736f6c63430008040033",
  "linkReferences": {},
  "deployedLinkReferences": {}
}