{
  "_format": "hh-sol-artifact-1",
  "contractName": "Stonemason",
  "sourceName": "contracts/mstationNFT/Stonemason.sol",
  "abi": [
    {
      "anonymous": false,
      "inputs": [
        {
          "indexed": true,
          "internalType": "address",
          "name": "owner",
          "type": "address"
        },
        {
          "indexed": true,
          "internalType": "address",
          "name": "approved",
          "type": "address"
        },
        {
          "indexed": true,
          "internalType": "uint256",
          "name": "tokenId",
          "type": "uint256"
        }
      ],
      "name": "Approval",
      "type": "event"
    },
    {
      "anonymous": false,
      "inputs": [
        {
          "indexed": true,
          "internalType": "address",
          "name": "owner",
          "type": "address"
        },
        {
          "indexed": true,
          "internalType": "address",
          "name": "operator",
          "type": "address"
        },
        {
          "indexed": false,
          "internalType": "bool",
          "name": "approved",
          "type": "bool"
        }
      ],
      "name": "ApprovalForAll",
      "type": "event"
    },
    {
      "anonymous": false,
      "inputs": [
        {
          "indexed": false,
          "internalType": "address",
          "name": "_from",
          "type": "address"
        },
        {
          "indexed": false,
          "internalType": "uint256",
          "name": "_tokenId",
          "type": "uint256"
        }
      ],
      "name": "NewBreed",
      "type": "event"
    },
    {
      "anonymous": false,
      "inputs": [
        {
          "indexed": true,
          "internalType": "address",
          "name": "previousOwner",
          "type": "address"
        },
        {
          "indexed": true,
          "internalType": "address",
          "name": "newOwner",
          "type": "address"
        }
      ],
      "name": "OwnershipTransferred",
      "type": "event"
    },
    {
      "anonymous": false,
      "inputs": [
        {
          "indexed": true,
          "internalType": "address",
          "name": "from",
          "type": "address"
        },
        {
          "indexed": true,
          "internalType": "address",
          "name": "to",
          "type": "address"
        },
        {
          "indexed": true,
          "internalType": "uint256",
          "name": "tokenId",
          "type": "uint256"
        }
      ],
      "name": "Transfer",
      "type": "event"
    },
    {
      "anonymous": false,
      "inputs": [
        {
          "indexed": false,
          "internalType": "address",
          "name": "_minter",
          "type": "address"
        },
        {
          "indexed": false,
          "internalType": "uint256",
          "name": "_tokenId",
          "type": "uint256"
        }
      ],
      "name": "WhitelistMinter",
      "type": "event"
    },
    {
      "inputs": [
        {
          "internalType": "address",
          "name": "_sender",
          "type": "address"
        },
        {
          "internalType": "uint256",
          "name": "_tokenId",
          "type": "uint256"
        },
        {
          "internalType": "uint16",
          "name": "_strength",
          "type": "uint16"
        },
        {
          "internalType": "uint16",
          "name": "_stamina",
          "type": "uint16"
        },
        {
          "internalType": "uint16",
          "name": "_vitality",
          "type": "uint16"
        },
        {
          "internalType": "uint16",
          "name": "_courage",
          "type": "uint16"
        },
        {
          "internalType": "uint16",
          "name": "_dexterity",
          "type": "uint16"
        },
        {
          "internalType": "uint16",
          "name": "_intelligence",
          "type": "uint16"
        }
      ],
      "name": "Breed",
      "outputs": [],
      "stateMutability": "nonpayable",
      "type": "function"
    },
    {
      "inputs": [
        {
          "internalType": "address",
          "name": "to",
          "type": "address"
        },
        {
          "internalType": "uint256",
          "name": "tokenId",
          "type": "uint256"
        }
      ],
      "name": "approve",
      "outputs": [],
      "stateMutability": "nonpayable",
      "type": "function"
    },
    {
      "inputs": [
        {
          "internalType": "uint256",
          "name": "_tokenId",
          "type": "uint256"
        }
      ],
      "name": "attributes",
      "outputs": [
        {
          "internalType": "uint16",
          "name": "",
          "type": "uint16"
        },
        {
          "internalType": "uint16",
          "name": "",
          "type": "uint16"
        },
        {
          "internalType": "uint16",
          "name": "",
          "type": "uint16"
        },
        {
          "internalType": "uint16",
          "name": "",
          "type": "uint16"
        },
        {
          "internalType": "uint16",
          "name": "",
          "type": "uint16"
        },
        {
          "internalType": "uint16",
          "name": "",
          "type": "uint16"
        }
      ],
      "stateMutability": "view",
      "type": "function"
    },
    {
      "inputs": [
        {
          "internalType": "address",
          "name": "owner",
          "type": "address"
        }
      ],
      "name": "balanceOf",
      "outputs": [
        {
          "internalType": "uint256",
          "name": "",
          "type": "uint256"
        }
      ],
      "stateMutability": "view",
      "type": "function"
    },
    {
      "inputs": [],
      "name": "baseUri",
      "outputs": [
        {
          "internalType": "string",
          "name": "",
          "type": "string"
        }
      ],
      "stateMutability": "view",
      "type": "function"
    },
    {
      "inputs": [
        {
          "internalType": "string",
          "name": "name",
          "type": "string"
        },
        {
          "internalType": "string",
          "name": "symbol",
          "type": "string"
        }
      ],
      "name": "base_initialize",
      "outputs": [],
      "stateMutability": "nonpayable",
      "type": "function"
    },
    {
      "inputs": [
        {
          "internalType": "address",
          "name": "_sender",
          "type": "address"
        }
      ],
      "name": "breed",
      "outputs": [
        {
          "internalType": "uint256",
          "name": "tokenId",
          "type": "uint256"
        },
        {
          "internalType": "uint16[]",
          "name": "attribute",
          "type": "uint16[]"
        }
      ],
      "stateMutability": "nonpayable",
      "type": "function"
    },
    {
      "inputs": [
        {
          "internalType": "uint256",
          "name": "_tokenId",
          "type": "uint256"
        }
      ],
      "name": "combatInfo",
      "outputs": [
        {
          "internalType": "uint256",
          "name": "",
          "type": "uint256"
        },
        {
          "internalType": "uint256",
          "name": "",
          "type": "uint256"
        },
        {
          "internalType": "uint256",
          "name": "",
          "type": "uint256"
        },
        {
          "internalType": "uint256",
          "name": "",
          "type": "uint256"
        },
        {
          "internalType": "uint256",
          "name": "",
          "type": "uint256"
        },
        {
          "internalType": "uint256",
          "name": "",
          "type": "uint256"
        },
        {
          "internalType": "uint256",
          "name": "",
          "type": "uint256"
        }
      ],
      "stateMutability": "view",
      "type": "function"
    },
    {
      "inputs": [
        {
          "internalType": "uint256",
          "name": "",
          "type": "uint256"
        },
        {
          "internalType": "uint256",
          "name": "",
          "type": "uint256"
        }
      ],
      "name": "dropList",
      "outputs": [
        {
          "internalType": "uint256",
          "name": "",
          "type": "uint256"
        }
      ],
      "stateMutability": "view",
      "type": "function"
    },
    {
      "inputs": [],
      "name": "dropPrice",
      "outputs": [
        {
          "internalType": "uint256",
          "name": "",
          "type": "uint256"
        }
      ],
      "stateMutability": "view",
      "type": "function"
    },
    {
      "inputs": [
        {
          "internalType": "uint256",
          "name": "tokenId",
          "type": "uint256"
        }
      ],
      "name": "getApproved",
      "outputs": [
        {
          "internalType": "address",
          "name": "",
          "type": "address"
        }
      ],
      "stateMutability": "view",
      "type": "function"
    },
    {
      "inputs": [
        {
          "internalType": "uint256",
          "name": "",
          "type": "uint256"
        }
      ],
      "name": "heroAttributes",
      "outputs": [
        {
          "internalType": "uint16",
          "name": "strength",
          "type": "uint16"
        },
        {
          "internalType": "uint16",
          "name": "stamina",
          "type": "uint16"
        },
        {
          "internalType": "uint16",
          "name": "vitality",
          "type": "uint16"
        },
        {
          "internalType": "uint16",
          "name": "courage",
          "type": "uint16"
        },
        {
          "internalType": "uint16",
          "name": "dexterity",
          "type": "uint16"
        },
        {
          "internalType": "uint16",
          "name": "intelligence",
          "type": "uint16"
        },
        {
          "internalType": "uint16",
          "name": "breed",
          "type": "uint16"
        },
        {
          "internalType": "uint16",
          "name": "level",
          "type": "uint16"
        },
        {
          "internalType": "uint16",
          "name": "rarity",
          "type": "uint16"
        },
        {
          "internalType": "uint16",
          "name": "teamId",
          "type": "uint16"
        },
        {
          "internalType": "uint16",
          "name": "talent",
          "type": "uint16"
        },
        {
          "internalType": "uint16",
          "name": "skill",
          "type": "uint16"
        },
        {
          "internalType": "uint16",
          "name": "combat",
          "type": "uint16"
        }
      ],
      "stateMutability": "view",
      "type": "function"
    },
    {
      "inputs": [
        {
          "internalType": "uint256",
          "name": "",
          "type": "uint256"
        }
      ],
      "name": "heroCombats",
      "outputs": [
        {
          "internalType": "uint256",
          "name": "lastCombatBlock",
          "type": "uint256"
        },
        {
          "internalType": "uint256",
          "name": "health",
          "type": "uint256"
        },
        {
          "internalType": "uint256",
          "name": "physicalAttack",
          "type": "uint256"
        },
        {
          "internalType": "uint256",
          "name": "magicalAttack",
          "type": "uint256"
        },
        {
          "internalType": "uint256",
          "name": "defense",
          "type": "uint256"
        },
        {
          "internalType": "uint256",
          "name": "magicResistance",
          "type": "uint256"
        },
        {
          "internalType": "uint256",
          "name": "accuracy",
          "type": "uint256"
        }
      ],
      "stateMutability": "view",
      "type": "function"
    },
    {
      "inputs": [
        {
          "internalType": "address",
          "name": "_factory",
          "type": "address"
        },
        {
          "internalType": "string",
          "name": "_name",
          "type": "string"
        },
        {
          "internalType": "uint256",
          "name": "_rarity",
          "type": "uint256"
        },
        {
          "internalType": "uint256[]",
          "name": "_minValues",
          "type": "uint256[]"
        },
        {
          "internalType": "uint256[]",
          "name": "_maxValues",
          "type": "uint256[]"
        }
      ],
      "name": "initialize",
      "outputs": [],
      "stateMutability": "nonpayable",
      "type": "function"
    },
    {
      "inputs": [
        {
          "internalType": "address",
          "name": "owner",
          "type": "address"
        },
        {
          "internalType": "address",
          "name": "operator",
          "type": "address"
        }
      ],
      "name": "isApprovedForAll",
      "outputs": [
        {
          "internalType": "bool",
          "name": "",
          "type": "bool"
        }
      ],
      "stateMutability": "view",
      "type": "function"
    },
    {
      "inputs": [],
      "name": "maxSupply",
      "outputs": [
        {
          "internalType": "uint256",
          "name": "",
          "type": "uint256"
        }
      ],
      "stateMutability": "view",
      "type": "function"
    },
    {
      "inputs": [
        {
          "internalType": "address",
          "name": "_user",
          "type": "address"
        },
        {
          "internalType": "uint256",
          "name": "_tokenId",
          "type": "uint256"
        }
      ],
      "name": "mintBox",
      "outputs": [],
      "stateMutability": "nonpayable",
      "type": "function"
    },
    {
      "inputs": [],
      "name": "mintStart",
      "outputs": [
        {
          "internalType": "bool",
          "name": "",
          "type": "bool"
        }
      ],
      "stateMutability": "view",
      "type": "function"
    },
    {
      "inputs": [],
      "name": "name",
      "outputs": [
        {
          "internalType": "string",
          "name": "",
          "type": "string"
        }
      ],
      "stateMutability": "view",
      "type": "function"
    },
    {
      "inputs": [],
      "name": "owner",
      "outputs": [
        {
          "internalType": "address",
          "name": "",
          "type": "address"
        }
      ],
      "stateMutability": "view",
      "type": "function"
    },
    {
      "inputs": [
        {
          "internalType": "uint256",
          "name": "tokenId",
          "type": "uint256"
        }
      ],
      "name": "ownerOf",
      "outputs": [
        {
          "internalType": "address",
          "name": "",
          "type": "address"
        }
      ],
      "stateMutability": "view",
      "type": "function"
    },
    {
      "inputs": [],
      "name": "rarity",
      "outputs": [
        {
          "internalType": "uint256",
          "name": "",
          "type": "uint256"
        }
      ],
      "stateMutability": "view",
      "type": "function"
    },
    {
      "inputs": [],
      "name": "renounceOwnership",
      "outputs": [],
      "stateMutability": "nonpayable",
      "type": "function"
    },
    {
      "inputs": [
        {
          "internalType": "address",
          "name": "_minter",
          "type": "address"
        }
      ],
      "name": "revokeWhitelistBoxMinter",
      "outputs": [],
      "stateMutability": "nonpayable",
      "type": "function"
    },
    {
      "inputs": [
        {
          "internalType": "address",
          "name": "from",
          "type": "address"
        },
        {
          "internalType": "address",
          "name": "to",
          "type": "address"
        },
        {
          "internalType": "uint256",
          "name": "tokenId",
          "type": "uint256"
        }
      ],
      "name": "safeTransferFrom",
      "outputs": [],
      "stateMutability": "nonpayable",
      "type": "function"
    },
    {
      "inputs": [
        {
          "internalType": "address",
          "name": "from",
          "type": "address"
        },
        {
          "internalType": "address",
          "name": "to",
          "type": "address"
        },
        {
          "internalType": "uint256",
          "name": "tokenId",
          "type": "uint256"
        },
        {
          "internalType": "bytes",
          "name": "_data",
          "type": "bytes"
        }
      ],
      "name": "safeTransferFrom",
      "outputs": [],
      "stateMutability": "nonpayable",
      "type": "function"
    },
    {
      "inputs": [
        {
          "internalType": "address",
          "name": "operator",
          "type": "address"
        },
        {
          "internalType": "bool",
          "name": "approved",
          "type": "bool"
        }
      ],
      "name": "setApprovalForAll",
      "outputs": [],
      "stateMutability": "nonpayable",
      "type": "function"
    },
    {
      "inputs": [
        {
          "internalType": "string",
          "name": "uri",
          "type": "string"
        }
      ],
      "name": "setBaseURI",
      "outputs": [],
      "stateMutability": "nonpayable",
      "type": "function"
    },
    {
      "inputs": [
        {
          "internalType": "uint256",
          "name": "session",
          "type": "uint256"
        },
        {
          "internalType": "uint256",
          "name": "index",
          "type": "uint256"
        },
        {
          "internalType": "uint256",
          "name": "length",
          "type": "uint256"
        }
      ],
      "name": "setDropList",
      "outputs": [],
      "stateMutability": "nonpayable",
      "type": "function"
    },
    {
      "inputs": [
        {
          "internalType": "uint256",
          "name": "price",
          "type": "uint256"
        }
      ],
      "name": "setDropPrice",
      "outputs": [],
      "stateMutability": "nonpayable",
      "type": "function"
    },
    {
      "inputs": [
        {
          "internalType": "address",
          "name": "_minter",
          "type": "address"
        },
        {
          "internalType": "uint256",
          "name": "_total",
          "type": "uint256"
        },
        {
          "internalType": "uint256",
          "name": "_startBlock",
          "type": "uint256"
        },
        {
          "internalType": "uint256",
          "name": "_enbBlock",
          "type": "uint256"
        }
      ],
      "name": "setWhitelistBoxMinter",
      "outputs": [],
      "stateMutability": "nonpayable",
      "type": "function"
    },
    {
      "inputs": [
        {
          "internalType": "bytes4",
          "name": "interfaceId",
          "type": "bytes4"
        }
      ],
      "name": "supportsInterface",
      "outputs": [
        {
          "internalType": "bool",
          "name": "",
          "type": "bool"
        }
      ],
      "stateMutability": "view",
      "type": "function"
    },
    {
      "inputs": [],
      "name": "symbol",
      "outputs": [
        {
          "internalType": "string",
          "name": "",
          "type": "string"
        }
      ],
      "stateMutability": "view",
      "type": "function"
    },
    {
      "inputs": [
        {
          "internalType": "uint256",
          "name": "index",
          "type": "uint256"
        }
      ],
      "name": "tokenByIndex",
      "outputs": [
        {
          "internalType": "uint256",
          "name": "",
          "type": "uint256"
        }
      ],
      "stateMutability": "view",
      "type": "function"
    },
    {
      "inputs": [
        {
          "internalType": "address",
          "name": "owner",
          "type": "address"
        },
        {
          "internalType": "uint256",
          "name": "index",
          "type": "uint256"
        }
      ],
      "name": "tokenOfOwnerByIndex",
      "outputs": [
        {
          "internalType": "uint256",
          "name": "",
          "type": "uint256"
        }
      ],
      "stateMutability": "view",
      "type": "function"
    },
    {
      "inputs": [
        {
          "internalType": "uint256",
          "name": "tokenId",
          "type": "uint256"
        }
      ],
      "name": "tokenURI",
      "outputs": [
        {
          "internalType": "string",
          "name": "",
          "type": "string"
        }
      ],
      "stateMutability": "view",
      "type": "function"
    },
    {
      "inputs": [],
      "name": "toogleMint",
      "outputs": [],
      "stateMutability": "nonpayable",
      "type": "function"
    },
    {
      "inputs": [],
      "name": "totalSupply",
      "outputs": [
        {
          "internalType": "uint256",
          "name": "",
          "type": "uint256"
        }
      ],
      "stateMutability": "view",
      "type": "function"
    },
    {
      "inputs": [
        {
          "internalType": "address",
          "name": "from",
          "type": "address"
        },
        {
          "internalType": "address",
          "name": "to",
          "type": "address"
        },
        {
          "internalType": "uint256",
          "name": "tokenId",
          "type": "uint256"
        }
      ],
      "name": "transferFrom",
      "outputs": [],
      "stateMutability": "nonpayable",
      "type": "function"
    },
    {
      "inputs": [
        {
          "internalType": "address",
          "name": "newOwner",
          "type": "address"
        }
      ],
      "name": "transferOwnership",
      "outputs": [],
      "stateMutability": "nonpayable",
      "type": "function"
    },
    {
      "inputs": [
        {
          "internalType": "address",
          "name": "_factory",
          "type": "address"
        }
      ],
      "name": "updateFactory",
      "outputs": [],
      "stateMutability": "nonpayable",
      "type": "function"
    },
    {
      "inputs": [
        {
          "internalType": "uint256",
          "name": "totalMetaverse",
          "type": "uint256"
        }
      ],
      "name": "updateMaxSupply",
      "outputs": [],
      "stateMutability": "nonpayable",
      "type": "function"
    },
    {
      "inputs": [
        {
          "internalType": "uint256",
          "name": "_tokenId",
          "type": "uint256"
        },
        {
          "internalType": "uint256",
          "name": "_newLevel",
          "type": "uint256"
        }
      ],
      "name": "upgradeLevel",
      "outputs": [],
      "stateMutability": "nonpayable",
      "type": "function"
    },
    {
      "inputs": [
        {
          "internalType": "address",
          "name": "_minter",
          "type": "address"
        },
        {
          "internalType": "uint256",
          "name": "tokenId",
          "type": "uint256"
        }
      ],
      "name": "whitelist",
      "outputs": [],
      "stateMutability": "nonpayable",
      "type": "function"
    },
    {
      "inputs": [
        {
          "internalType": "uint256",
          "name": "",
          "type": "uint256"
        }
      ],
      "name": "whitelisted",
      "outputs": [
        {
          "internalType": "address",
          "name": "",
          "type": "address"
        }
      ],
      "stateMutability": "view",
      "type": "function"
    }
  ],
  "bytecode": "0x608060405234801561001057600080fd5b5061573f80620000216000396000f3fe608060405234801561001057600080fd5b50600436106102ff5760003560e01c80638da5cb5b1161019c578063c87b56dd116100ee578063f103b43311610097578063fb5d7f1011610071578063fb5d7f10146108b5578063fef21f0f146108c8578063ff5aac3a146108d257600080fd5b8063f103b43314610887578063f2fde38b1461089a578063fa3996a1146108ad57600080fd5b8063d9f165dc116100c8578063d9f165dc14610821578063e70761ef14610834578063e985e9c51461083e57600080fd5b8063c87b56dd146107b4578063d05dcc6a146107c7578063d5abeb011461081757600080fd5b80639abc832011610150578063b761354e1161012a578063b761354e1461077b578063b88d4fde1461078e578063c5aa43f1146107a157600080fd5b80639abc83201461074d5780639b7c638c14610755578063a22cb4651461076857600080fd5b80639240cc47116101815780639240cc471461071f57806395d89b411461073257806398fc55d81461073a57600080fd5b80638da5cb5b146106b5578063916a3061146106d357600080fd5b806342842e0e116102555780636a7c5e8a11610209578063715018a6116101e3578063715018a61461050c57806373fdaa931461051457806387f6057f1461052757600080fd5b80636a7c5e8a146104d35780636b88fd86146104e657806370a08231146104f957600080fd5b806355f804b31161023a57806355f804b31461048c57806359285d411461049f5780636352211e146104c057600080fd5b806342842e0e146104665780634f6ccce71461047957600080fd5b806318160ddd116102b7578063255e468511610291578063255e46851461040e5780632f745c591461041c5780633d4efe091461042f57600080fd5b806318160ddd146103a15780631c1f7427146103b357806323b872dd146103fb57600080fd5b806306fdde03116102e857806306fdde0314610341578063081812fc14610356578063095ea7b31461038e57600080fd5b80630175cdbe1461030457806301ffc9a714610319575b600080fd5b6103176103123660046150e1565b6108e5565b005b61032c610327366004615281565b610b10565b60405190151581526020015b60405180910390f35b610349610b21565b6040516103389190615480565b61036961036436600461535a565b610bb3565b60405173ffffffffffffffffffffffffffffffffffffffff9091168152602001610338565b61031761039c366004615191565b610c8d565b60cb545b604051908152602001610338565b6103c66103c136600461535a565b610e1a565b604080519788526020880196909652948601939093526060850191909152608084015260a083015260c082015260e001610338565b610317610409366004614ff3565b610f31565b61012d5461032c9060ff1681565b6103a561042a366004615191565b610fd2565b61036961043d36600461535a565b61012f6020526000908152604090205473ffffffffffffffffffffffffffffffffffffffff1681565b610317610474366004614ff3565b6110a1565b6103a561048736600461535a565b6110bc565b61031761049a3660046152b9565b6111a1565b6104b26104ad366004614fa7565b61122f565b604051610338929190615493565b6103696104ce36600461535a565b61174d565b6103176104e1366004615249565b6117ff565b6103176104f4366004615393565b61196e565b6103a5610507366004614fa7565b611a41565b610317611b0f565b6103176105223660046152f9565b611b9c565b61063e61053536600461535a565b6101306020526000908152604090205461ffff808216916201000081048216916401000000008204811691660100000000000081048216916801000000000000000082048116916a010000000000000000000081048216916c0100000000000000000000000082048116916e010000000000000000000000000000810482169170010000000000000000000000000000000082048116917201000000000000000000000000000000000000810482169174010000000000000000000000000000000000000000820481169176010000000000000000000000000000000000000000000081048216917801000000000000000000000000000000000000000000000000909104168d565b6040805161ffff9e8f1681529c8e1660208e01529a8d169a8c019a909a52978b1660608b0152958a1660808a015293891660a089015291881660c0880152871660e087015286166101008601528516610120850152841661014084015283166101608301529091166101808201526101a001610338565b60fb5473ffffffffffffffffffffffffffffffffffffffff16610369565b6103c66106e136600461535a565b610131602052600090815260409020805460018201546002830154600384015460048501546005860154600690960154949593949293919290919087565b61031761072d366004614fa7565b611cff565b610349611dbc565b610317610748366004615191565b611dcb565b610349611f67565b61031761076336600461535a565b611ff6565b6103176107763660046150a7565b61207d565b6103176107893660046151ba565b61208c565b61031761079c36600461502e565b612461565b6103176107af366004615372565b612503565b6103496107c236600461535a565b612771565b6107da6107d536600461535a565b61277c565b6040805161ffff978816815295871660208701529386169385019390935290841660608401528316608083015290911660a082015260c001610338565b6103a56101395481565b61031761082f366004614fa7565b612981565b6103a56101335481565b61032c61084c366004614fc1565b73ffffffffffffffffffffffffffffffffffffffff9182166000908152606a6020908152604080832093909416825291909152205460ff1690565b61031761089536600461535a565b612a6f565b6103176108a8366004614fa7565b612b9a565b610317612cca565b6103176108c3366004615191565b612d7e565b6103a561013a5481565b6103a56108e0366004615372565b612faa565b600054610100900460ff16806108fe575060005460ff16155b61098f576040517f08c379a000000000000000000000000000000000000000000000000000000000815260206004820152602e60248201527f496e697469616c697a61626c653a20636f6e747261637420697320616c72656160448201527f647920696e697469616c697a656400000000000000000000000000000000000060648201526084015b60405180910390fd5b600054610100900460ff161580156109ce57600080547fffffffffffffffffffffffffffffffffffffffffffffffffffffffffffff0000166101011790555b6109d6612fdc565b610a4b6040518060400160405280600881526020017f4d53544154494f4e00000000000000000000000000000000000000000000000081525089898080601f016020809104026020016040519081016040528093929190818152602001838380828437600092019190915250611b9c92505050565b61012d80547fffffffffffffffffffffff0000000000000000000000000000000000000000ff1661010073ffffffffffffffffffffffffffffffffffffffff8c1602179055600061013e55610ab0670de0b6b3a7640000678ac7230489e80000613101565b61013d5561013a869055610ac761013b8686614cca565b50610ad561013c8484614cca565b508015610b0557600080547fffffffffffffffffffffffffffffffffffffffffffffffffffffffffffff00ff1690555b505050505050505050565b6000610b1b826131f3565b92915050565b606060658054610b30906155ad565b80601f0160208091040260200160405190810160405280929190818152602001828054610b5c906155ad565b8015610ba95780601f10610b7e57610100808354040283529160200191610ba9565b820191906000526020600020905b815481529060010190602001808311610b8c57829003601f168201915b5050505050905090565b60008181526067602052604081205473ffffffffffffffffffffffffffffffffffffffff16610c64576040517f08c379a000000000000000000000000000000000000000000000000000000000815260206004820152602c60248201527f4552433732313a20617070726f76656420717565727920666f72206e6f6e657860448201527f697374656e7420746f6b656e00000000000000000000000000000000000000006064820152608401610986565b5060009081526069602052604090205473ffffffffffffffffffffffffffffffffffffffff1690565b6000610c988261174d565b90508073ffffffffffffffffffffffffffffffffffffffff168373ffffffffffffffffffffffffffffffffffffffff161415610d56576040517f08c379a000000000000000000000000000000000000000000000000000000000815260206004820152602160248201527f4552433732313a20617070726f76616c20746f2063757272656e74206f776e6560448201527f72000000000000000000000000000000000000000000000000000000000000006064820152608401610986565b3373ffffffffffffffffffffffffffffffffffffffff82161480610d7f5750610d7f813361084c565b610e0b576040517f08c379a000000000000000000000000000000000000000000000000000000000815260206004820152603860248201527f4552433732313a20617070726f76652063616c6c6572206973206e6f74206f7760448201527f6e6572206e6f7220617070726f76656420666f7220616c6c00000000000000006064820152608401610986565b610e158383613249565b505050565b6000806000806000806000610e538860009081526067602052604090205473ffffffffffffffffffffffffffffffffffffffff16151590565b610eb9576040517f08c379a000000000000000000000000000000000000000000000000000000000815260206004820152601160248201527f546f6b656e206e6f7420657869737465640000000000000000000000000000006044820152606401610986565b505050600094855250506101316020908152604093849020845160e081018652815480825260018301549382018490526002830154968201879052600383015460608301819052600484015460808401819052600585015460a0850181905260069095015460c0909401849052919894979650945092565b610f3b33826132e9565b610fc7576040517f08c379a000000000000000000000000000000000000000000000000000000000815260206004820152603160248201527f4552433732313a207472616e736665722063616c6c6572206973206e6f74206f60448201527f776e6572206e6f7220617070726f7665640000000000000000000000000000006064820152608401610986565b610e15838383613459565b6000610fdd83611a41565b821061106b576040517f08c379a000000000000000000000000000000000000000000000000000000000815260206004820152602b60248201527f455243373231456e756d657261626c653a206f776e657220696e646578206f7560448201527f74206f6620626f756e64730000000000000000000000000000000000000000006064820152608401610986565b5073ffffffffffffffffffffffffffffffffffffffff91909116600090815260c960209081526040808320938352929052205490565b610e1583838360405180602001604052806000815250612461565b60006110c760cb5490565b8210611155576040517f08c379a000000000000000000000000000000000000000000000000000000000815260206004820152602c60248201527f455243373231456e756d657261626c653a20676c6f62616c20696e646578206f60448201527f7574206f6620626f756e647300000000000000000000000000000000000000006064820152608401610986565b60cb828154811061118f577f4e487b7100000000000000000000000000000000000000000000000000000000600052603260045260246000fd5b90600052602060002001549050919050565b60fb5473ffffffffffffffffffffffffffffffffffffffff163314611222576040517f08c379a000000000000000000000000000000000000000000000000000000000815260206004820181905260248201527f4f776e61626c653a2063616c6c6572206973206e6f7420746865206f776e65726044820152606401610986565b610e156101328383614d15565b600060606101395461124060cb5490565b106112a7576040517f08c379a000000000000000000000000000000000000000000000000000000000815260206004820152600a60248201527f4d617820737570706c79000000000000000000000000000000000000000000006044820152606401610986565b60006112b560006002613101565b60408051600680825260e082019092529192506020820160c0803683370190505091506112e06136cb565b8260008151811061131a577f4e487b7100000000000000000000000000000000000000000000000000000000600052603260045260246000fd5b602002602001019061ffff16908161ffff1681525050611338613764565b82600181518110611372577f4e487b7100000000000000000000000000000000000000000000000000000000600052603260045260246000fd5b602002602001019061ffff16908161ffff16815250506113906137ed565b826002815181106113ca577f4e487b7100000000000000000000000000000000000000000000000000000000600052603260045260246000fd5b602002602001019061ffff16908161ffff16815250506113e8613876565b82600381518110611422577f4e487b7100000000000000000000000000000000000000000000000000000000600052603260045260246000fd5b602002602001019061ffff16908161ffff16815250506114406138ff565b8260048151811061147a577f4e487b7100000000000000000000000000000000000000000000000000000000600052603260045260246000fd5b602002602001019061ffff16908161ffff1681525050611498613988565b826005815181106114d2577f4e487b7100000000000000000000000000000000000000000000000000000000600052603260045260246000fd5b61ffff9283166020918202929092010152811661159e5761154d6064611547605f8560008151811061152d577f4e487b7100000000000000000000000000000000000000000000000000000000600052603260045260246000fd5b602002602001015161ffff16613a1190919063ffffffff16565b90613a24565b82600081518110611587577f4e487b7100000000000000000000000000000000000000000000000000000000600052603260045260246000fd5b602002602001019061ffff16908161ffff16815250505b60cb5461013d546115af9190615501565b92506117478484846000815181106115f0577f4e487b7100000000000000000000000000000000000000000000000000000000600052603260045260246000fd5b602002602001015185600181518110611632577f4e487b7100000000000000000000000000000000000000000000000000000000600052603260045260246000fd5b602002602001015186600281518110611674577f4e487b7100000000000000000000000000000000000000000000000000000000600052603260045260246000fd5b6020026020010151876003815181106116b6577f4e487b7100000000000000000000000000000000000000000000000000000000600052603260045260246000fd5b6020026020010151886004815181106116f8577f4e487b7100000000000000000000000000000000000000000000000000000000600052603260045260246000fd5b60200260200101518960058151811061173a577f4e487b7100000000000000000000000000000000000000000000000000000000600052603260045260246000fd5b602002602001015161208c565b50915091565b60008181526067602052604081205473ffffffffffffffffffffffffffffffffffffffff1680610b1b576040517f08c379a000000000000000000000000000000000000000000000000000000000815260206004820152602960248201527f4552433732313a206f776e657220717565727920666f72206e6f6e657869737460448201527f656e7420746f6b656e00000000000000000000000000000000000000000000006064820152608401610986565b60fb5473ffffffffffffffffffffffffffffffffffffffff163314611880576040517f08c379a000000000000000000000000000000000000000000000000000000000815260206004820181905260248201527f4f776e61626c653a2063616c6c6572206973206e6f7420746865206f776e65726044820152606401610986565b73ffffffffffffffffffffffffffffffffffffffff8416600090815261013860205260409020541561190e576040517f08c379a000000000000000000000000000000000000000000000000000000000815260206004820152601a60248201527f4d696e74657220616c72656164792077686974656c69737465640000000000006044820152606401610986565b60408051608081018252938452602080850193845284820192835260006060860181815273ffffffffffffffffffffffffffffffffffffffff90971681526101389091522092518355905160018301555160028201559051600390910155565b60fb5473ffffffffffffffffffffffffffffffffffffffff1633146119ef576040517f08c379a000000000000000000000000000000000000000000000000000000000815260206004820181905260248201527f4f776e61626c653a2063616c6c6572206973206e6f7420746865206f776e65726044820152606401610986565b60005b81811015611a3b57600084815261013460205260409020611a138285615501565b8154600181018355600092835260209092209091015580611a3381615601565b9150506119f2565b50505050565b600073ffffffffffffffffffffffffffffffffffffffff8216611ae6576040517f08c379a000000000000000000000000000000000000000000000000000000000815260206004820152602a60248201527f4552433732313a2062616c616e636520717565727920666f7220746865207a6560448201527f726f2061646472657373000000000000000000000000000000000000000000006064820152608401610986565b5073ffffffffffffffffffffffffffffffffffffffff1660009081526068602052604090205490565b60fb5473ffffffffffffffffffffffffffffffffffffffff163314611b90576040517f08c379a000000000000000000000000000000000000000000000000000000000815260206004820181905260248201527f4f776e61626c653a2063616c6c6572206973206e6f7420746865206f776e65726044820152606401610986565b611b9a6000613a30565b565b600054610100900460ff1680611bb5575060005460ff16155b611c41576040517f08c379a000000000000000000000000000000000000000000000000000000000815260206004820152602e60248201527f496e697469616c697a61626c653a20636f6e747261637420697320616c72656160448201527f647920696e697469616c697a65640000000000000000000000000000000000006064820152608401610986565b600054610100900460ff16158015611c8057600080547fffffffffffffffffffffffffffffffffffffffffffffffffffffffffffff0000166101011790555b611c88612fdc565b611c90613aa7565b611c9a8383613bbb565b60006101355561012d80547fffffffffffffffffffffffffffffffffffffffffffffffffffffffffffffff001660011790558015610e1557600080547fffffffffffffffffffffffffffffffffffffffffffffffffffffffffffff00ff169055505050565b60fb5473ffffffffffffffffffffffffffffffffffffffff163314611d80576040517f08c379a000000000000000000000000000000000000000000000000000000000815260206004820181905260248201527f4f776e61626c653a2063616c6c6572206973206e6f7420746865206f776e65726044820152606401610986565b73ffffffffffffffffffffffffffffffffffffffff16600090815261013860205260408120818155600181018290556002810182905560030155565b606060668054610b30906155ad565b60fb5473ffffffffffffffffffffffffffffffffffffffff163314611e4c576040517f08c379a000000000000000000000000000000000000000000000000000000000815260206004820181905260248201527f4f776e61626c653a2063616c6c6572206973206e6f7420746865206f776e65726044820152606401610986565b600081815261012f602052604090205473ffffffffffffffffffffffffffffffffffffffff1615611ed9576040517f08c379a000000000000000000000000000000000000000000000000000000000815260206004820152601b60248201527f746f6b656e496420616c72656164792077686974656c697374656400000000006044820152606401610986565b600081815261012f602090815260409182902080547fffffffffffffffffffffffff00000000000000000000000000000000000000001673ffffffffffffffffffffffffffffffffffffffff861690811790915582519081529081018390527f51f0683bbb60579f84c3e31ec5679836c2b3c3702efbfedd6f02bdca309b3b97910160405180910390a15050565b6101328054611f75906155ad565b80601f0160208091040260200160405190810160405280929190818152602001828054611fa1906155ad565b8015611fee5780601f10611fc357610100808354040283529160200191611fee565b820191906000526020600020905b815481529060010190602001808311611fd157829003601f168201915b505050505081565b60fb5473ffffffffffffffffffffffffffffffffffffffff163314612077576040517f08c379a000000000000000000000000000000000000000000000000000000000815260206004820181905260248201527f4f776e61626c653a2063616c6c6572206973206e6f7420746865206f776e65726044820152606401610986565b61013355565b612088338383613cfa565b5050565b61012d5460ff1615156001146120fe576040517f08c379a000000000000000000000000000000000000000000000000000000000815260206004820152600860248201527f64697361626c65640000000000000000000000000000000000000000000000006044820152606401610986565b60016000828486886121108b8d6154e4565b61211a91906154e4565b61212491906154e4565b61212e91906154e4565b61213891906154e4565b61ffff16905061019081106121505760059150612181565b61017281106121625760049150612181565b61014081106121745760039150612181565b60fa811061218157600291505b6000604051806101a001604052808a61ffff1681526020018961ffff1681526020018861ffff1681526020018761ffff1681526020018661ffff1681526020018561ffff168152602001600061ffff168152602001600161ffff1681526020018461ffff168152602001600061ffff168152602001600061ffff168152602001600061ffff168152602001600061ffff1681525090508061013060008c815260200190815260200160002060008201518160000160006101000a81548161ffff021916908361ffff16021790555060208201518160000160026101000a81548161ffff021916908361ffff16021790555060408201518160000160046101000a81548161ffff021916908361ffff16021790555060608201518160000160066101000a81548161ffff021916908361ffff16021790555060808201518160000160086101000a81548161ffff021916908361ffff16021790555060a082015181600001600a6101000a81548161ffff021916908361ffff16021790555060c082015181600001600c6101000a81548161ffff021916908361ffff16021790555060e082015181600001600e6101000a81548161ffff021916908361ffff1602179055506101008201518160000160106101000a81548161ffff021916908361ffff1602179055506101208201518160000160126101000a81548161ffff021916908361ffff1602179055506101408201518160000160146101000a81548161ffff021916908361ffff1602179055506101608201518160000160166101000a81548161ffff021916908361ffff1602179055506101808201518160000160186101000a81548161ffff021916908361ffff1602179055509050506124058b8b613e28565b6040805173ffffffffffffffffffffffffffffffffffffffff8d168152602081018c90527faac0709f425dd9060cb43d414de08f45049801628a2b29147e2f664e26a58d0f910160405180910390a15050505050505050505050565b61246b33836132e9565b6124f7576040517f08c379a000000000000000000000000000000000000000000000000000000000815260206004820152603160248201527f4552433732313a207472616e736665722063616c6c6572206973206e6f74206f60448201527f776e6572206e6f7220617070726f7665640000000000000000000000000000006064820152608401610986565b611a3b84848484613e42565b61012e5473ffffffffffffffffffffffffffffffffffffffff163373ffffffffffffffffffffffffffffffffffffffff161461259b576040517f08c379a000000000000000000000000000000000000000000000000000000000815260206004820152600e60248201527f494e56414c49445f5343484f4f4c0000000000000000000000000000000000006044820152606401610986565b6125ea6125c360016125bd600a61154760026125b78886613ee5565b90613a11565b90613ef1565b600084815261013060205260409020546125b790640100000000900461ffff166005613a11565b60008381526101316020526040902060019081019190915561263d9061261e906125bd600a61154760026125b78886613ee5565b600084815261013060205260409020546125b79061ffff166005613a11565b6101316000848152602001908152602001600020600201819055506126ab61267e60016125bd600a61154760026125b7600189613ee590919063ffffffff16565b600084815261013060205260409020546125b7906a0100000000000000000000900461ffff166005613a11565b600083815261013160205260409020600301556127036126da60016125bd600a61154760026125b78886613ee5565b600084815261013060205260409020546125b7906601000000000000900461ffff166005613a11565b6000838152610131602052604090206004015561275761273260016125bd600a61154760026125b78886613ee5565b600084815261013060205260409020546125b79062010000900461ffff166005613a11565b600092835261013160205260409092206005019190915550565b6060610b1b82613efd565b6000806000806000806127b38760009081526067602052604090205473ffffffffffffffffffffffffffffffffffffffff16151590565b612819576040517f08c379a000000000000000000000000000000000000000000000000000000000815260206004820152601160248201527f546f6b656e206e6f7420657869737465640000000000000000000000000000006044820152606401610986565b50505060009384525050610130602090815260409283902083516101a081018552905461ffff808216808452620100008304821694840185905264010000000083048216968401879052660100000000000083048216606085018190526801000000000000000084048316608086018190526a01000000000000000000008504841660a087018190526c010000000000000000000000008604851660c08801526e0100000000000000000000000000008604851660e08801527001000000000000000000000000000000008604851661010088015272010000000000000000000000000000000000008604851661012088015274010000000000000000000000000000000000000000860485166101408801527601000000000000000000000000000000000000000000008604851661016088015278010000000000000000000000000000000000000000000000009095049093166101809095019490945296939594509192565b60fb5473ffffffffffffffffffffffffffffffffffffffff163314612a02576040517f08c379a000000000000000000000000000000000000000000000000000000000815260206004820181905260248201527f4f776e61626c653a2063616c6c6572206973206e6f7420746865206f776e65726044820152606401610986565b73ffffffffffffffffffffffffffffffffffffffff8116612a2257600080fd5b61012d805473ffffffffffffffffffffffffffffffffffffffff909216610100027fffffffffffffffffffffff0000000000000000000000000000000000000000ff909216919091179055565b60008111612ad9576040517f08c379a000000000000000000000000000000000000000000000000000000000815260206004820152601760248201527f746f74616c206d6574617665727365206973207a65726f0000000000000000006044820152606401610986565b61012d54610100900473ffffffffffffffffffffffffffffffffffffffff163373ffffffffffffffffffffffffffffffffffffffff1614612b76576040517f08c379a000000000000000000000000000000000000000000000000000000000815260206004820152600f60248201527f494e56414c49445f464143544f525900000000000000000000000000000000006044820152606401610986565b612b93620186a061154761013a5484613a1190919063ffffffff16565b6101395550565b60fb5473ffffffffffffffffffffffffffffffffffffffff163314612c1b576040517f08c379a000000000000000000000000000000000000000000000000000000000815260206004820181905260248201527f4f776e61626c653a2063616c6c6572206973206e6f7420746865206f776e65726044820152606401610986565b73ffffffffffffffffffffffffffffffffffffffff8116612cbe576040517f08c379a000000000000000000000000000000000000000000000000000000000815260206004820152602660248201527f4f776e61626c653a206e6577206f776e657220697320746865207a65726f206160448201527f64647265737300000000000000000000000000000000000000000000000000006064820152608401610986565b612cc781613a30565b50565b60fb5473ffffffffffffffffffffffffffffffffffffffff163314612d4b576040517f08c379a000000000000000000000000000000000000000000000000000000000815260206004820181905260248201527f4f776e61626c653a2063616c6c6572206973206e6f7420746865206f776e65726044820152606401610986565b61012d80547fffffffffffffffffffffffffffffffffffffffffffffffffffffffffffffff00811660ff90911615179055565b3360009081526101386020526040902054612df5576040517f08c379a000000000000000000000000000000000000000000000000000000000815260206004820152601260248201527f596f7520617265206e6f74206d696e74657200000000000000000000000000006044820152606401610986565b336000908152610138602052604090206003810154905411612e73576040517f08c379a000000000000000000000000000000000000000000000000000000000815260206004820152600e60248201527f596f75206d696e74656420616c6c0000000000000000000000000000000000006044820152606401610986565b3360009081526101386020526040902060010154431015612ef0576040517f08c379a000000000000000000000000000000000000000000000000000000000815260206004820152601460248201527f4d696e7420686173206e6f7420737461727465640000000000000000000000006044820152606401610986565b3360009081526101386020526040902060020154431115612f6d576040517f08c379a000000000000000000000000000000000000000000000000000000000815260206004820152600e60248201527f4d696e742068617320656e6465640000000000000000000000000000000000006044820152606401610986565b3360009081526101386020526040902060030154612f8c906001613ef1565b33600090815261013860205260409020600301556120888282613e28565b6101346020528160005260406000208181548110612fc757600080fd5b90600052602060002001600091509150505481565b600054610100900460ff1680612ff5575060005460ff16155b613081576040517f08c379a000000000000000000000000000000000000000000000000000000000815260206004820152602e60248201527f496e697469616c697a61626c653a20636f6e747261637420697320616c72656160448201527f647920696e697469616c697a65640000000000000000000000000000000000006064820152608401610986565b600054610100900460ff161580156130c057600080547fffffffffffffffffffffffffffffffffffffffffffffffffffffffffffff0000166101011790555b6130c8613aa7565b6130d06140a2565b8015612cc757600080547fffffffffffffffffffffffffffffffffffffffffffffffffffffffffffff00ff16905550565b60006131a5613110848461556a565b61013654610137546101355460408051602081019490945242908401526060808401929092523390911b7fffffffffffffffffffffffffffffffffffffffff000000000000000000000000166080830152609482015260b401604080517fffffffffffffffffffffffffffffffffffffffffffffffffffffffffffffffe081840301815291905280516020909101209061418f565b90506131b18382615501565b610135549091506131c3906001613ef1565b61013555610136546131d6906002613a11565b61013655610135546131e9906003613a11565b6101375592915050565b60007fffffffff0000000000000000000000000000000000000000000000000000000082167f780e9d63000000000000000000000000000000000000000000000000000000001480610b1b5750610b1b8261419b565b600081815260696020526040902080547fffffffffffffffffffffffff00000000000000000000000000000000000000001673ffffffffffffffffffffffffffffffffffffffff841690811790915581906132a38261174d565b73ffffffffffffffffffffffffffffffffffffffff167f8c5be1e5ebec7d5bd14f71427d1e84f3dd0314c0f7b2291e5b200ac8c7c3b92560405160405180910390a45050565b60008181526067602052604081205473ffffffffffffffffffffffffffffffffffffffff1661339a576040517f08c379a000000000000000000000000000000000000000000000000000000000815260206004820152602c60248201527f4552433732313a206f70657261746f7220717565727920666f72206e6f6e657860448201527f697374656e7420746f6b656e00000000000000000000000000000000000000006064820152608401610986565b60006133a58361174d565b90508073ffffffffffffffffffffffffffffffffffffffff168473ffffffffffffffffffffffffffffffffffffffff16148061341457508373ffffffffffffffffffffffffffffffffffffffff166133fc84610bb3565b73ffffffffffffffffffffffffffffffffffffffff16145b80613451575073ffffffffffffffffffffffffffffffffffffffff8082166000908152606a602090815260408083209388168352929052205460ff165b949350505050565b8273ffffffffffffffffffffffffffffffffffffffff166134798261174d565b73ffffffffffffffffffffffffffffffffffffffff161461351c576040517f08c379a000000000000000000000000000000000000000000000000000000000815260206004820152602960248201527f4552433732313a207472616e73666572206f6620746f6b656e2074686174206960448201527f73206e6f74206f776e00000000000000000000000000000000000000000000006064820152608401610986565b73ffffffffffffffffffffffffffffffffffffffff82166135be576040517f08c379a0000000000000000000000000000000000000000000000000000000008152602060048201526024808201527f4552433732313a207472616e7366657220746f20746865207a65726f2061646460448201527f72657373000000000000000000000000000000000000000000000000000000006064820152608401610986565b6135c983838361427e565b6135d4600082613249565b73ffffffffffffffffffffffffffffffffffffffff8316600090815260686020526040812080546001929061360a90849061556a565b909155505073ffffffffffffffffffffffffffffffffffffffff82166000908152606860205260408120805460019290613645908490615501565b909155505060008181526067602052604080822080547fffffffffffffffffffffffff00000000000000000000000000000000000000001673ffffffffffffffffffffffffffffffffffffffff86811691821790925591518493918716917fddf252ad1be2c89b69c2b068fc378daa952ba7f163c4a11628f55a4df523b3ef91a4505050565b600080610b1b61013b60008154811061370d577f4e487b7100000000000000000000000000000000000000000000000000000000600052603260045260246000fd5b906000526020600020015461013c600081548110613754577f4e487b7100000000000000000000000000000000000000000000000000000000600052603260045260246000fd5b9060005260206000200154613101565b600080610b1b61013b6001815481106137a6577f4e487b7100000000000000000000000000000000000000000000000000000000600052603260045260246000fd5b906000526020600020015461013c600181548110613754577f4e487b7100000000000000000000000000000000000000000000000000000000600052603260045260246000fd5b600080610b1b61013b60028154811061382f577f4e487b7100000000000000000000000000000000000000000000000000000000600052603260045260246000fd5b906000526020600020015461013c600281548110613754577f4e487b7100000000000000000000000000000000000000000000000000000000600052603260045260246000fd5b600080610b1b61013b6003815481106138b8577f4e487b7100000000000000000000000000000000000000000000000000000000600052603260045260246000fd5b906000526020600020015461013c600381548110613754577f4e487b7100000000000000000000000000000000000000000000000000000000600052603260045260246000fd5b600080610b1b61013b600481548110613941577f4e487b7100000000000000000000000000000000000000000000000000000000600052603260045260246000fd5b906000526020600020015461013c600481548110613754577f4e487b7100000000000000000000000000000000000000000000000000000000600052603260045260246000fd5b600080610b1b61013b6005815481106139ca577f4e487b7100000000000000000000000000000000000000000000000000000000600052603260045260246000fd5b906000526020600020015461013c600581548110613754577f4e487b7100000000000000000000000000000000000000000000000000000000600052603260045260246000fd5b6000613a1d828461552d565b9392505050565b6000613a1d8284615519565b60fb805473ffffffffffffffffffffffffffffffffffffffff8381167fffffffffffffffffffffffff0000000000000000000000000000000000000000831681179093556040519116919082907f8be0079c531659141344cd1fd0a4f28419497f9722a3daafe3b4186f6b6457e090600090a35050565b600054610100900460ff1680613ac0575060005460ff16155b613b4c576040517f08c379a000000000000000000000000000000000000000000000000000000000815260206004820152602e60248201527f496e697469616c697a61626c653a20636f6e747261637420697320616c72656160448201527f647920696e697469616c697a65640000000000000000000000000000000000006064820152608401610986565b600054610100900460ff161580156130d057600080547fffffffffffffffffffffffffffffffffffffffffffffffffffffffffffff0000166101011790558015612cc757600080547fffffffffffffffffffffffffffffffffffffffffffffffffffffffffffff00ff16905550565b600054610100900460ff1680613bd4575060005460ff16155b613c60576040517f08c379a000000000000000000000000000000000000000000000000000000000815260206004820152602e60248201527f496e697469616c697a61626c653a20636f6e747261637420697320616c72656160448201527f647920696e697469616c697a65640000000000000000000000000000000000006064820152608401610986565b600054610100900460ff16158015613c9f57600080547fffffffffffffffffffffffffffffffffffffffffffffffffffffffffffff0000166101011790555b8251613cb2906065906020860190614da6565b508151613cc6906066906020850190614da6565b508015610e1557600080547fffffffffffffffffffffffffffffffffffffffffffffffffffffffffffff00ff169055505050565b8173ffffffffffffffffffffffffffffffffffffffff168373ffffffffffffffffffffffffffffffffffffffff161415613d90576040517f08c379a000000000000000000000000000000000000000000000000000000000815260206004820152601960248201527f4552433732313a20617070726f766520746f2063616c6c6572000000000000006044820152606401610986565b73ffffffffffffffffffffffffffffffffffffffff8381166000818152606a602090815260408083209487168084529482529182902080547fffffffffffffffffffffffffffffffffffffffffffffffffffffffffffffff001686151590811790915591519182527f17307eab39ab6107e8899845ad3d59bd9653f200f220920489ca2b5937696c31910160405180910390a3505050565b612088828260405180602001604052806000815250614289565b613e4d848484613459565b613e598484848461432c565b611a3b576040517f08c379a000000000000000000000000000000000000000000000000000000000815260206004820152603260248201527f4552433732313a207472616e7366657220746f206e6f6e20455243373231526560448201527f63656976657220696d706c656d656e74657200000000000000000000000000006064820152608401610986565b6000613a1d828461556a565b6000613a1d8284615501565b60008181526067602052604090205460609073ffffffffffffffffffffffffffffffffffffffff16613fb1576040517f08c379a000000000000000000000000000000000000000000000000000000000815260206004820152603160248201527f45524337323155524953746f726167653a2055524920717565727920666f722060448201527f6e6f6e6578697374656e7420746f6b656e0000000000000000000000000000006064820152608401610986565b60008281526097602052604081208054613fca906155ad565b80601f0160208091040260200160405190810160405280929190818152602001828054613ff6906155ad565b80156140435780601f1061401857610100808354040283529160200191614043565b820191906000526020600020905b81548152906001019060200180831161402657829003601f168201915b50505050509050600061405461452b565b9050805160001415614067575092915050565b815115614099578082604051602001614081929190615408565b60405160208183030381529060405292505050919050565b6134518461453b565b600054610100900460ff16806140bb575060005460ff16155b614147576040517f08c379a000000000000000000000000000000000000000000000000000000000815260206004820152602e60248201527f496e697469616c697a61626c653a20636f6e747261637420697320616c72656160448201527f647920696e697469616c697a65640000000000000000000000000000000000006064820152608401610986565b600054610100900460ff1615801561418657600080547fffffffffffffffffffffffffffffffffffffffffffffffffffffffffffff0000166101011790555b6130d033613a30565b6000613a1d828461563a565b60007fffffffff0000000000000000000000000000000000000000000000000000000082167f80ac58cd00000000000000000000000000000000000000000000000000000000148061422e57507fffffffff0000000000000000000000000000000000000000000000000000000082167f5b5e139f00000000000000000000000000000000000000000000000000000000145b80610b1b57507f01ffc9a7000000000000000000000000000000000000000000000000000000007fffffffff00000000000000000000000000000000000000000000000000000000831614610b1b565b610e1583838361464a565b6142938383614750565b6142a0600084848461432c565b610e15576040517f08c379a000000000000000000000000000000000000000000000000000000000815260206004820152603260248201527f4552433732313a207472616e7366657220746f206e6f6e20455243373231526560448201527f63656976657220696d706c656d656e74657200000000000000000000000000006064820152608401610986565b600073ffffffffffffffffffffffffffffffffffffffff84163b15614520576040517f150b7a0200000000000000000000000000000000000000000000000000000000815273ffffffffffffffffffffffffffffffffffffffff85169063150b7a02906143a3903390899088908890600401615437565b602060405180830381600087803b1580156143bd57600080fd5b505af192505050801561440b575060408051601f3d9081017fffffffffffffffffffffffffffffffffffffffffffffffffffffffffffffffe01682019092526144089181019061529d565b60015b6144d5573d808015614439576040519150601f19603f3d011682016040523d82523d6000602084013e61443e565b606091505b5080516144cd576040517f08c379a000000000000000000000000000000000000000000000000000000000815260206004820152603260248201527f4552433732313a207472616e7366657220746f206e6f6e20455243373231526560448201527f63656976657220696d706c656d656e74657200000000000000000000000000006064820152608401610986565b805181602001fd5b7fffffffff00000000000000000000000000000000000000000000000000000000167f150b7a0200000000000000000000000000000000000000000000000000000000149050613451565b506001949350505050565b60606101328054610b30906155ad565b60008181526067602052604090205460609073ffffffffffffffffffffffffffffffffffffffff166145ef576040517f08c379a000000000000000000000000000000000000000000000000000000000815260206004820152602f60248201527f4552433732314d657461646174613a2055524920717565727920666f72206e6f60448201527f6e6578697374656e7420746f6b656e00000000000000000000000000000000006064820152608401610986565b60006145f961452b565b905060008151116146195760405180602001604052806000815250613a1d565b806146238461491e565b604051602001614634929190615408565b6040516020818303038152906040529392505050565b73ffffffffffffffffffffffffffffffffffffffff83166146b2576146ad8160cb8054600083815260cc60205260408120829055600182018355919091527fa7ce836d032b2bf62b7e2097a8e0a6d8aeb35405ad15271e96d3b0188a1d06fb0155565b6146ef565b8173ffffffffffffffffffffffffffffffffffffffff168373ffffffffffffffffffffffffffffffffffffffff16146146ef576146ef8382614a9e565b73ffffffffffffffffffffffffffffffffffffffff821661471357610e1581614b55565b8273ffffffffffffffffffffffffffffffffffffffff168273ffffffffffffffffffffffffffffffffffffffff1614610e1557610e158282614c79565b73ffffffffffffffffffffffffffffffffffffffff82166147cd576040517f08c379a000000000000000000000000000000000000000000000000000000000815260206004820181905260248201527f4552433732313a206d696e7420746f20746865207a65726f20616464726573736044820152606401610986565b60008181526067602052604090205473ffffffffffffffffffffffffffffffffffffffff1615614859576040517f08c379a000000000000000000000000000000000000000000000000000000000815260206004820152601c60248201527f4552433732313a20746f6b656e20616c7265616479206d696e746564000000006044820152606401610986565b6148656000838361427e565b73ffffffffffffffffffffffffffffffffffffffff8216600090815260686020526040812080546001929061489b908490615501565b909155505060008181526067602052604080822080547fffffffffffffffffffffffff00000000000000000000000000000000000000001673ffffffffffffffffffffffffffffffffffffffff861690811790915590518392907fddf252ad1be2c89b69c2b068fc378daa952ba7f163c4a11628f55a4df523b3ef908290a45050565b60608161495e57505060408051808201909152600181527f3000000000000000000000000000000000000000000000000000000000000000602082015290565b8160005b8115614988578061497281615601565b91506149819050600a83615519565b9150614962565b60008167ffffffffffffffff8111156149ca577f4e487b7100000000000000000000000000000000000000000000000000000000600052604160045260246000fd5b6040519080825280601f01601f1916602001820160405280156149f4576020820181803683370190505b5090505b841561345157614a0960018361556a565b9150614a16600a8661563a565b614a21906030615501565b60f81b818381518110614a5d577f4e487b7100000000000000000000000000000000000000000000000000000000600052603260045260246000fd5b60200101907effffffffffffffffffffffffffffffffffffffffffffffffffffffffffffff1916908160001a905350614a97600a86615519565b94506149f8565b60006001614aab84611a41565b614ab5919061556a565b600083815260ca6020526040902054909150808214614b155773ffffffffffffffffffffffffffffffffffffffff8416600090815260c960209081526040808320858452825280832054848452818420819055835260ca90915290208190555b50600091825260ca6020908152604080842084905573ffffffffffffffffffffffffffffffffffffffff909416835260c981528383209183525290812055565b60cb54600090614b679060019061556a565b600083815260cc602052604081205460cb8054939450909284908110614bb6577f4e487b7100000000000000000000000000000000000000000000000000000000600052603260045260246000fd5b906000526020600020015490508060cb8381548110614bfe577f4e487b7100000000000000000000000000000000000000000000000000000000600052603260045260246000fd5b600091825260208083209091019290925582815260cc909152604080822084905585825281205560cb805480614c5d577f4e487b7100000000000000000000000000000000000000000000000000000000600052603160045260246000fd5b6001900381819060005260206000200160009055905550505050565b6000614c8483611a41565b73ffffffffffffffffffffffffffffffffffffffff909316600090815260c960209081526040808320868452825280832085905593825260ca9052919091209190915550565b828054828255906000526020600020908101928215614d05579160200282015b82811115614d05578235825591602001919060010190614cea565b50614d11929150614e1a565b5090565b828054614d21906155ad565b90600052602060002090601f016020900481019282614d435760008555614d05565b82601f10614d7a578280017fffffffffffffffffffffffffffffffffffffffffffffffffffffffffffffff00823516178555614d05565b82800160010185558215614d055791820182811115614d05578235825591602001919060010190614cea565b828054614db2906155ad565b90600052602060002090601f016020900481019282614dd45760008555614d05565b82601f10614ded57805160ff1916838001178555614d05565b82800160010185558215614d05579182015b82811115614d05578251825591602001919060010190614dff565b5b80821115614d115760008155600101614e1b565b600067ffffffffffffffff80841115614e4a57614e4a6156ac565b604051601f85017fffffffffffffffffffffffffffffffffffffffffffffffffffffffffffffffe0908116603f01168101908282118183101715614e9057614e906156ac565b81604052809350858152868686011115614ea957600080fd5b858560208301376000602087830101525050509392505050565b803573ffffffffffffffffffffffffffffffffffffffff81168114614ee757600080fd5b919050565b60008083601f840112614efd578081fd5b50813567ffffffffffffffff811115614f14578182fd5b6020830191508360208260051b8501011115614f2f57600080fd5b9250929050565b60008083601f840112614f47578182fd5b50813567ffffffffffffffff811115614f5e578182fd5b602083019150836020828501011115614f2f57600080fd5b600082601f830112614f86578081fd5b613a1d83833560208501614e2f565b803561ffff81168114614ee757600080fd5b600060208284031215614fb8578081fd5b613a1d82614ec3565b60008060408385031215614fd3578081fd5b614fdc83614ec3565b9150614fea60208401614ec3565b90509250929050565b600080600060608486031215615007578081fd5b61501084614ec3565b925061501e60208501614ec3565b9150604084013590509250925092565b60008060008060808587031215615043578081fd5b61504c85614ec3565b935061505a60208601614ec3565b925060408501359150606085013567ffffffffffffffff81111561507c578182fd5b8501601f8101871361508c578182fd5b61509b87823560208401614e2f565b91505092959194509250565b600080604083850312156150b9578182fd5b6150c283614ec3565b9150602083013580151581146150d6578182fd5b809150509250929050565b60008060008060008060008060a0898b0312156150fc578384fd5b61510589614ec3565b9750602089013567ffffffffffffffff80821115615121578586fd5b61512d8c838d01614f36565b909950975060408b0135965060608b013591508082111561514c578586fd5b6151588c838d01614eec565b909650945060808b0135915080821115615170578384fd5b5061517d8b828c01614eec565b999c989b5096995094979396929594505050565b600080604083850312156151a3578182fd5b6151ac83614ec3565b946020939093013593505050565b600080600080600080600080610100898b0312156151d6578384fd5b6151df89614ec3565b9750602089013596506151f460408a01614f95565b955061520260608a01614f95565b945061521060808a01614f95565b935061521e60a08a01614f95565b925061522c60c08a01614f95565b915061523a60e08a01614f95565b90509295985092959890939650565b6000806000806080858703121561525e578182fd5b61526785614ec3565b966020860135965060408601359560600135945092505050565b600060208284031215615292578081fd5b8135613a1d816156db565b6000602082840312156152ae578081fd5b8151613a1d816156db565b600080602083850312156152cb578182fd5b823567ffffffffffffffff8111156152e1578283fd5b6152ed85828601614f36565b90969095509350505050565b6000806040838503121561530b578182fd5b823567ffffffffffffffff80821115615322578384fd5b61532e86838701614f76565b93506020850135915080821115615343578283fd5b5061535085828601614f76565b9150509250929050565b60006020828403121561536b578081fd5b5035919050565b60008060408385031215615384578182fd5b50508035926020909101359150565b6000806000606084860312156153a7578081fd5b505081359360208301359350604090920135919050565b600081518084526153d6816020860160208601615581565b601f017fffffffffffffffffffffffffffffffffffffffffffffffffffffffffffffffe0169290920160200192915050565b6000835161541a818460208801615581565b83519083019061542e818360208801615581565b01949350505050565b600073ffffffffffffffffffffffffffffffffffffffff80871683528086166020840152508360408301526080606083015261547660808301846153be565b9695505050505050565b602081526000613a1d60208301846153be565b60006040820184835260206040818501528185518084526060860191508287019350845b818110156154d757845161ffff16835293830193918301916001016154b7565b5090979650505050505050565b600061ffff80831681851680830382111561542e5761542e61564e565b600082198211156155145761551461564e565b500190565b6000826155285761552861567d565b500490565b6000817fffffffffffffffffffffffffffffffffffffffffffffffffffffffffffffffff04831182151516156155655761556561564e565b500290565b60008282101561557c5761557c61564e565b500390565b60005b8381101561559c578181015183820152602001615584565b83811115611a3b5750506000910152565b600181811c908216806155c157607f821691505b602082108114156155fb577f4e487b7100000000000000000000000000000000000000000000000000000000600052602260045260246000fd5b50919050565b60007fffffffffffffffffffffffffffffffffffffffffffffffffffffffffffffffff8214156156335761563361564e565b5060010190565b6000826156495761564961567d565b500690565b7f4e487b7100000000000000000000000000000000000000000000000000000000600052601160045260246000fd5b7f4e487b7100000000000000000000000000000000000000000000000000000000600052601260045260246000fd5b7f4e487b7100000000000000000000000000000000000000000000000000000000600052604160045260246000fd5b7fffffffff0000000000000000000000000000000000000000000000000000000081168114612cc757600080fdfea2646970667358221220b4e7bd69739c7f4623467e94e3b9014d01e66250c6c07ace75b07bb88c48215e64736f6c63430008040033",
  "linkReferences": {},
  "deployedLinkReferences": {}
}